{
	"AssetTransactions.sol": {
		"AssetTransactions": {
			"abi": [
				{
					"inputs": [
						{
							"internalType": "string",
							"name": "_title",
							"type": "string"
						},
						{
							"internalType": "int256",
							"name": "_releaseYear",
							"type": "int256"
						},
						{
							"internalType": "string",
							"name": "_system",
							"type": "string"
						},
						{
							"internalType": "uint256",
							"name": "_initialPrice",
							"type": "uint256"
						}
					],
					"stateMutability": "nonpayable",
					"type": "constructor"
				},
				{
					"anonymous": false,
					"inputs": [
						{
							"indexed": true,
							"internalType": "address",
							"name": "owner",
							"type": "address"
						},
						{
							"indexed": true,
							"internalType": "address",
							"name": "spender",
							"type": "address"
						},
						{
							"indexed": false,
							"internalType": "uint256",
							"name": "value",
							"type": "uint256"
						}
					],
					"name": "Approval",
					"type": "event"
				},
				{
					"anonymous": false,
					"inputs": [
						{
							"indexed": false,
							"internalType": "string",
							"name": "title",
							"type": "string"
						},
						{
							"indexed": false,
							"internalType": "int256",
							"name": "releaseYear",
							"type": "int256"
						},
						{
							"indexed": false,
							"internalType": "string",
							"name": "system",
							"type": "string"
						},
						{
							"indexed": false,
							"internalType": "address",
							"name": "creator",
							"type": "address"
						}
					],
					"name": "AssetCreated",
					"type": "event"
				},
				{
					"anonymous": false,
					"inputs": [
						{
							"indexed": true,
							"internalType": "address",
							"name": "buyer",
							"type": "address"
						},
						{
							"indexed": false,
							"internalType": "uint256",
							"name": "amount",
							"type": "uint256"
						}
					],
					"name": "AssetPurchased",
					"type": "event"
				},
				{
					"anonymous": false,
					"inputs": [
						{
							"indexed": true,
							"internalType": "address",
							"name": "seller",
							"type": "address"
						},
						{
							"indexed": false,
							"internalType": "uint256",
							"name": "amount",
							"type": "uint256"
						}
					],
					"name": "AssetSold",
					"type": "event"
				},
				{
					"anonymous": false,
					"inputs": [
						{
							"indexed": true,
							"internalType": "address",
							"name": "from",
							"type": "address"
						},
						{
							"indexed": true,
							"internalType": "address",
							"name": "to",
							"type": "address"
						},
						{
							"indexed": false,
							"internalType": "uint256",
							"name": "value",
							"type": "uint256"
						}
					],
					"name": "Transfer",
					"type": "event"
				},
				{
					"inputs": [
						{
							"internalType": "address",
							"name": "",
							"type": "address"
						},
						{
							"internalType": "address",
							"name": "",
							"type": "address"
						}
					],
					"name": "allowance",
					"outputs": [
						{
							"internalType": "uint256",
							"name": "",
							"type": "uint256"
						}
					],
					"stateMutability": "view",
					"type": "function"
				},
				{
					"inputs": [],
					"name": "assetPrice",
					"outputs": [
						{
							"internalType": "uint256",
							"name": "",
							"type": "uint256"
						}
					],
					"stateMutability": "view",
					"type": "function"
				},
				{
					"inputs": [
						{
							"internalType": "address",
							"name": "",
							"type": "address"
						}
					],
					"name": "balanceOf",
					"outputs": [
						{
							"internalType": "uint256",
							"name": "",
							"type": "uint256"
						}
					],
					"stateMutability": "view",
					"type": "function"
				},
				{
					"inputs": [],
					"name": "creator",
					"outputs": [
						{
							"internalType": "address",
							"name": "",
							"type": "address"
						}
					],
					"stateMutability": "view",
					"type": "function"
				},
				{
					"inputs": [],
					"name": "decimals",
					"outputs": [
						{
							"internalType": "uint8",
							"name": "",
							"type": "uint8"
						}
					],
					"stateMutability": "view",
					"type": "function"
				},
				{
					"inputs": [],
					"name": "gameReleaseYear",
					"outputs": [
						{
							"internalType": "int256",
							"name": "",
							"type": "int256"
						}
					],
					"stateMutability": "view",
					"type": "function"
				},
				{
					"inputs": [],
					"name": "gameSystem",
					"outputs": [
						{
							"internalType": "string",
							"name": "",
							"type": "string"
						}
					],
					"stateMutability": "view",
					"type": "function"
				},
				{
					"inputs": [],
					"name": "gameTitle",
					"outputs": [
						{
							"internalType": "string",
							"name": "",
							"type": "string"
						}
					],
					"stateMutability": "view",
					"type": "function"
				},
				{
					"inputs": [
						{
							"internalType": "address",
							"name": "to",
							"type": "address"
						},
						{
							"internalType": "uint256",
							"name": "amount",
							"type": "uint256"
						}
					],
					"name": "mint",
					"outputs": [],
					"stateMutability": "nonpayable",
					"type": "function"
				},
				{
					"inputs": [],
					"name": "name",
					"outputs": [
						{
							"internalType": "string",
							"name": "",
							"type": "string"
						}
					],
					"stateMutability": "view",
					"type": "function"
				},
				{
					"inputs": [
						{
							"internalType": "uint256",
							"name": "amount",
							"type": "uint256"
						}
					],
					"name": "purchaseAsset",
					"outputs": [],
					"stateMutability": "payable",
					"type": "function"
				},
				{
					"inputs": [
						{
							"internalType": "address",
							"name": "",
							"type": "address"
						}
					],
					"name": "purchaseHistory",
					"outputs": [
						{
							"internalType": "uint256",
							"name": "",
							"type": "uint256"
						}
					],
					"stateMutability": "view",
					"type": "function"
				},
				{
					"inputs": [
						{
							"internalType": "uint256",
							"name": "amount",
							"type": "uint256"
						}
					],
					"name": "sellAsset",
					"outputs": [],
					"stateMutability": "nonpayable",
					"type": "function"
				},
				{
					"inputs": [
						{
							"internalType": "uint256",
							"name": "_newPrice",
							"type": "uint256"
						}
					],
					"name": "setAssetPrice",
					"outputs": [],
					"stateMutability": "nonpayable",
					"type": "function"
				},
				{
					"inputs": [],
					"name": "symbol",
					"outputs": [
						{
							"internalType": "string",
							"name": "",
							"type": "string"
						}
					],
					"stateMutability": "view",
					"type": "function"
				},
				{
					"inputs": [],
					"name": "totalSupply",
					"outputs": [
						{
							"internalType": "uint256",
							"name": "",
							"type": "uint256"
						}
					],
					"stateMutability": "view",
					"type": "function"
				},
				{
					"inputs": [
						{
							"internalType": "address",
							"name": "recipient",
							"type": "address"
						},
						{
							"internalType": "uint256",
							"name": "amount",
							"type": "uint256"
						}
					],
					"name": "transfer",
					"outputs": [
						{
							"internalType": "bool",
							"name": "",
							"type": "bool"
						}
					],
					"stateMutability": "nonpayable",
					"type": "function"
				}
			],
			"devdoc": {
				"kind": "dev",
				"methods": {},
				"version": 1
			},
			"evm": {
				"assembly": "    /* \"AssetTransactions.sol\":131:1324  contract AssetTransactions is TokeniseAsset {... */\n  mstore(0x40, 0x80)\n    /* \"TokeniseAsset.sol\":232:275  string public name = \"FractionalAssetToken\" */\n  mload(0x40)\n  dup1\n  0x40\n  add\n  0x40\n  mstore\n  dup1\n  0x14\n  dup2\n  mstore\n  0x20\n  add\n  0x4672616374696f6e616c4173736574546f6b656e000000000000000000000000\n  dup2\n  mstore\n  pop\n  0x04\n  swap1\n  dup2\n  tag_1\n  swap2\n  swap1\n  tag_2\n  jump\t// in\ntag_1:\n  pop\n    /* \"TokeniseAsset.sol\":281:309  string public symbol = \"FAT\" */\n  mload(0x40)\n  dup1\n  0x40\n  add\n  0x40\n  mstore\n  dup1\n  0x03\n  dup2\n  mstore\n  0x20\n  add\n  0x4641540000000000000000000000000000000000000000000000000000000000\n  dup2\n  mstore\n  pop\n  0x05\n  swap1\n  dup2\n  tag_3\n  swap2\n  swap1\n  tag_2\n  jump\t// in\ntag_3:\n  pop\n    /* \"TokeniseAsset.sol\":339:341  18 */\n  0x12\n    /* \"TokeniseAsset.sol\":315:341  uint8 public decimals = 18 */\n  0x06\n  exp(0x0100, 0x00)\n  dup2\n  sload\n  dup2\n  0xff\n  mul\n  not\n  and\n  swap1\n  dup4\n  0xff\n  and\n  mul\n  or\n  swap1\n  sstore\n  pop\n    /* \"AssetTransactions.sol\":397:583  constructor(string memory _title, int _releaseYear, string memory _system, uint256 _initialPrice) TokeniseAsset(_title, _releaseYear, _system) {... */\n  callvalue\n  dup1\n  iszero\n  tag_4\n  jumpi\n  0x00\n  dup1\n  revert\ntag_4:\n  pop\n  mload(0x40)\n  sub(codesize, bytecodeSize)\n  dup1\n  bytecodeSize\n  dup4\n  codecopy\n  dup2\n  dup2\n  add\n  0x40\n  mstore\n  dup2\n  add\n  swap1\n  tag_5\n  swap2\n  swap1\n  tag_6\n  jump\t// in\ntag_5:\n    /* \"AssetTransactions.sol\":509:515  _title */\n  dup4\n    /* \"AssetTransactions.sol\":517:529  _releaseYear */\n  dup4\n    /* \"AssetTransactions.sol\":531:538  _system */\n  dup4\n    /* \"TokeniseAsset.sol\":749:755  _title */\n  dup3\n    /* \"TokeniseAsset.sol\":757:769  _releaseYear */\n  dup3\n    /* \"TokeniseAsset.sol\":771:778  _system */\n  dup3\n    /* \"DefineAsset.sol\":442:448  _title */\n  dup3\n    /* \"DefineAsset.sol\":430:439  gameTitle */\n  0x00\n    /* \"DefineAsset.sol\":430:448  gameTitle = _title */\n  swap1\n  dup2\n  tag_11\n  swap2\n  swap1\n  tag_2\n  jump\t// in\ntag_11:\n  pop\n    /* \"DefineAsset.sol\":477:489  _releaseYear */\n  dup2\n    /* \"DefineAsset.sol\":459:474  gameReleaseYear */\n  0x01\n    /* \"DefineAsset.sol\":459:489  gameReleaseYear = _releaseYear */\n  dup2\n  swap1\n  sstore\n  pop\n    /* \"DefineAsset.sol\":513:520  _system */\n  dup1\n    /* \"DefineAsset.sol\":500:510  gameSystem */\n  0x02\n    /* \"DefineAsset.sol\":500:520  gameSystem = _system */\n  swap1\n  dup2\n  tag_12\n  swap2\n  swap1\n  tag_2\n  jump\t// in\ntag_12:\n  pop\n    /* \"DefineAsset.sol\":541:551  msg.sender */\n  caller\n    /* \"DefineAsset.sol\":531:538  creator */\n  0x03\n  0x00\n    /* \"DefineAsset.sol\":531:551  creator = msg.sender */\n  0x0100\n  exp\n  dup2\n  sload\n  dup2\n  0xffffffffffffffffffffffffffffffffffffffff\n  mul\n  not\n  and\n  swap1\n  dup4\n  0xffffffffffffffffffffffffffffffffffffffff\n  and\n  mul\n  or\n  swap1\n  sstore\n  pop\n    /* \"DefineAsset.sol\":567:622  AssetCreated(_title, _releaseYear, _system, msg.sender) */\n  0x5e0d2597888948e599236eb45a35968b450146da0b5a9db5d3cb1c28c061a7ce\n    /* \"DefineAsset.sol\":580:586  _title */\n  dup4\n    /* \"DefineAsset.sol\":588:600  _releaseYear */\n  dup4\n    /* \"DefineAsset.sol\":602:609  _system */\n  dup4\n    /* \"DefineAsset.sol\":611:621  msg.sender */\n  caller\n    /* \"DefineAsset.sol\":567:622  AssetCreated(_title, _releaseYear, _system, msg.sender) */\n  mload(0x40)\n  tag_13\n  swap5\n  swap4\n  swap3\n  swap2\n  swap1\n  tag_14\n  jump\t// in\ntag_13:\n  mload(0x40)\n  dup1\n  swap2\n  sub\n  swap1\n  log1\n    /* \"DefineAsset.sol\":344:630  constructor(string memory _title, int _releaseYear, string memory _system) {... */\n  pop\n  pop\n  pop\n    /* \"TokeniseAsset.sol\":662:782  constructor(string memory _title, int _releaseYear, string memory _system) DefineAsset(_title, _releaseYear, _system) {} */\n  pop\n  pop\n  pop\n    /* \"AssetTransactions.sol\":563:576  _initialPrice */\n  dup1\n    /* \"AssetTransactions.sol\":550:560  assetPrice */\n  0x0a\n    /* \"AssetTransactions.sol\":550:576  assetPrice = _initialPrice */\n  dup2\n  swap1\n  sstore\n  pop\n    /* \"AssetTransactions.sol\":397:583  constructor(string memory _title, int _releaseYear, string memory _system, uint256 _initialPrice) TokeniseAsset(_title, _releaseYear, _system) {... */\n  pop\n  pop\n  pop\n  pop\n    /* \"AssetTransactions.sol\":131:1324  contract AssetTransactions is TokeniseAsset {... */\n  jump(tag_17)\n    /* \"#utility.yul\":7:106   */\ntag_18:\n    /* \"#utility.yul\":59:65   */\n  0x00\n    /* \"#utility.yul\":93:98   */\n  dup2\n    /* \"#utility.yul\":87:99   */\n  mload\n    /* \"#utility.yul\":77:99   */\n  swap1\n  pop\n    /* \"#utility.yul\":7:106   */\n  swap2\n  swap1\n  pop\n  jump\t// out\n    /* \"#utility.yul\":112:292   */\ntag_19:\n    /* \"#utility.yul\":160:237   */\n  0x4e487b7100000000000000000000000000000000000000000000000000000000\n    /* \"#utility.yul\":157:158   */\n  0x00\n    /* \"#utility.yul\":150:238   */\n  mstore\n    /* \"#utility.yul\":257:261   */\n  0x41\n    /* \"#utility.yul\":254:255   */\n  0x04\n    /* \"#utility.yul\":247:262   */\n  mstore\n    /* \"#utility.yul\":281:285   */\n  0x24\n    /* \"#utility.yul\":278:279   */\n  0x00\n    /* \"#utility.yul\":271:286   */\n  revert\n    /* \"#utility.yul\":298:478   */\ntag_20:\n    /* \"#utility.yul\":346:423   */\n  0x4e487b7100000000000000000000000000000000000000000000000000000000\n    /* \"#utility.yul\":343:344   */\n  0x00\n    /* \"#utility.yul\":336:424   */\n  mstore\n    /* \"#utility.yul\":443:447   */\n  0x22\n    /* \"#utility.yul\":440:441   */\n  0x04\n    /* \"#utility.yul\":433:448   */\n  mstore\n    /* \"#utility.yul\":467:471   */\n  0x24\n    /* \"#utility.yul\":464:465   */\n  0x00\n    /* \"#utility.yul\":457:472   */\n  revert\n    /* \"#utility.yul\":484:804   */\ntag_21:\n    /* \"#utility.yul\":528:534   */\n  0x00\n    /* \"#utility.yul\":565:566   */\n  0x02\n    /* \"#utility.yul\":559:563   */\n  dup3\n    /* \"#utility.yul\":555:567   */\n  div\n    /* \"#utility.yul\":545:567   */\n  swap1\n  pop\n    /* \"#utility.yul\":612:613   */\n  0x01\n    /* \"#utility.yul\":606:610   */\n  dup3\n    /* \"#utility.yul\":602:614   */\n  and\n    /* \"#utility.yul\":633:651   */\n  dup1\n    /* \"#utility.yul\":623:704   */\n  tag_66\n  jumpi\n    /* \"#utility.yul\":689:693   */\n  0x7f\n    /* \"#utility.yul\":681:687   */\n  dup3\n    /* \"#utility.yul\":677:694   */\n  and\n    /* \"#utility.yul\":667:694   */\n  swap2\n  pop\n    /* \"#utility.yul\":623:704   */\ntag_66:\n    /* \"#utility.yul\":751:753   */\n  0x20\n    /* \"#utility.yul\":743:749   */\n  dup3\n    /* \"#utility.yul\":740:754   */\n  lt\n    /* \"#utility.yul\":720:738   */\n  dup2\n    /* \"#utility.yul\":717:755   */\n  sub\n    /* \"#utility.yul\":714:798   */\n  tag_67\n  jumpi\n    /* \"#utility.yul\":770:788   */\n  tag_68\n  tag_20\n  jump\t// in\ntag_68:\n    /* \"#utility.yul\":714:798   */\ntag_67:\n    /* \"#utility.yul\":535:804   */\n  pop\n    /* \"#utility.yul\":484:804   */\n  swap2\n  swap1\n  pop\n  jump\t// out\n    /* \"#utility.yul\":810:951   */\ntag_22:\n    /* \"#utility.yul\":859:863   */\n  0x00\n    /* \"#utility.yul\":882:885   */\n  dup2\n    /* \"#utility.yul\":874:885   */\n  swap1\n  pop\n    /* \"#utility.yul\":905:908   */\n  dup2\n    /* \"#utility.yul\":902:903   */\n  0x00\n    /* \"#utility.yul\":895:909   */\n  mstore\n    /* \"#utility.yul\":939:943   */\n  0x20\n    /* \"#utility.yul\":936:937   */\n  0x00\n    /* \"#utility.yul\":926:944   */\n  keccak256\n    /* \"#utility.yul\":918:944   */\n  swap1\n  pop\n    /* \"#utility.yul\":810:951   */\n  swap2\n  swap1\n  pop\n  jump\t// out\n    /* \"#utility.yul\":957:1050   */\ntag_23:\n    /* \"#utility.yul\":994:1000   */\n  0x00\n    /* \"#utility.yul\":1041:1043   */\n  0x20\n    /* \"#utility.yul\":1036:1038   */\n  0x1f\n    /* \"#utility.yul\":1029:1034   */\n  dup4\n    /* \"#utility.yul\":1025:1039   */\n  add\n    /* \"#utility.yul\":1021:1044   */\n  div\n    /* \"#utility.yul\":1011:1044   */\n  swap1\n  pop\n    /* \"#utility.yul\":957:1050   */\n  swap2\n  swap1\n  pop\n  jump\t// out\n    /* \"#utility.yul\":1056:1163   */\ntag_24:\n    /* \"#utility.yul\":1100:1108   */\n  0x00\n    /* \"#utility.yul\":1150:1155   */\n  dup3\n    /* \"#utility.yul\":1144:1148   */\n  dup3\n    /* \"#utility.yul\":1140:1156   */\n  shl\n    /* \"#utility.yul\":1119:1156   */\n  swap1\n  pop\n    /* \"#utility.yul\":1056:1163   */\n  swap3\n  swap2\n  pop\n  pop\n  jump\t// out\n    /* \"#utility.yul\":1169:1562   */\ntag_25:\n    /* \"#utility.yul\":1238:1244   */\n  0x00\n    /* \"#utility.yul\":1288:1289   */\n  0x08\n    /* \"#utility.yul\":1276:1286   */\n  dup4\n    /* \"#utility.yul\":1272:1290   */\n  mul\n    /* \"#utility.yul\":1311:1408   */\n  tag_73\n    /* \"#utility.yul\":1341:1407   */\n  0xffffffffffffffffffffffffffffffffffffffffffffffffffffffffffffffff\n    /* \"#utility.yul\":1330:1339   */\n  dup3\n    /* \"#utility.yul\":1311:1408   */\n  tag_24\n  jump\t// in\ntag_73:\n    /* \"#utility.yul\":1429:1468   */\n  tag_74\n    /* \"#utility.yul\":1459:1467   */\n  dup7\n    /* \"#utility.yul\":1448:1457   */\n  dup4\n    /* \"#utility.yul\":1429:1468   */\n  tag_24\n  jump\t// in\ntag_74:\n    /* \"#utility.yul\":1417:1468   */\n  swap6\n  pop\n    /* \"#utility.yul\":1501:1505   */\n  dup1\n    /* \"#utility.yul\":1497:1506   */\n  not\n    /* \"#utility.yul\":1490:1495   */\n  dup5\n    /* \"#utility.yul\":1486:1507   */\n  and\n    /* \"#utility.yul\":1477:1507   */\n  swap4\n  pop\n    /* \"#utility.yul\":1550:1554   */\n  dup1\n    /* \"#utility.yul\":1540:1548   */\n  dup7\n    /* \"#utility.yul\":1536:1555   */\n  and\n    /* \"#utility.yul\":1529:1534   */\n  dup5\n    /* \"#utility.yul\":1526:1556   */\n  or\n    /* \"#utility.yul\":1516:1556   */\n  swap3\n  pop\n    /* \"#utility.yul\":1245:1562   */\n  pop\n  pop\n    /* \"#utility.yul\":1169:1562   */\n  swap4\n  swap3\n  pop\n  pop\n  pop\n  jump\t// out\n    /* \"#utility.yul\":1568:1645   */\ntag_26:\n    /* \"#utility.yul\":1605:1612   */\n  0x00\n    /* \"#utility.yul\":1634:1639   */\n  dup2\n    /* \"#utility.yul\":1623:1639   */\n  swap1\n  pop\n    /* \"#utility.yul\":1568:1645   */\n  swap2\n  swap1\n  pop\n  jump\t// out\n    /* \"#utility.yul\":1651:1711   */\ntag_27:\n    /* \"#utility.yul\":1679:1682   */\n  0x00\n    /* \"#utility.yul\":1700:1705   */\n  dup2\n    /* \"#utility.yul\":1693:1705   */\n  swap1\n  pop\n    /* \"#utility.yul\":1651:1711   */\n  swap2\n  swap1\n  pop\n  jump\t// out\n    /* \"#utility.yul\":1717:1859   */\ntag_28:\n    /* \"#utility.yul\":1767:1776   */\n  0x00\n    /* \"#utility.yul\":1800:1853   */\n  tag_78\n    /* \"#utility.yul\":1818:1852   */\n  tag_79\n    /* \"#utility.yul\":1827:1851   */\n  tag_80\n    /* \"#utility.yul\":1845:1850   */\n  dup5\n    /* \"#utility.yul\":1827:1851   */\n  tag_26\n  jump\t// in\ntag_80:\n    /* \"#utility.yul\":1818:1852   */\n  tag_27\n  jump\t// in\ntag_79:\n    /* \"#utility.yul\":1800:1853   */\n  tag_26\n  jump\t// in\ntag_78:\n    /* \"#utility.yul\":1787:1853   */\n  swap1\n  pop\n    /* \"#utility.yul\":1717:1859   */\n  swap2\n  swap1\n  pop\n  jump\t// out\n    /* \"#utility.yul\":1865:1940   */\ntag_29:\n    /* \"#utility.yul\":1908:1911   */\n  0x00\n    /* \"#utility.yul\":1929:1934   */\n  dup2\n    /* \"#utility.yul\":1922:1934   */\n  swap1\n  pop\n    /* \"#utility.yul\":1865:1940   */\n  swap2\n  swap1\n  pop\n  jump\t// out\n    /* \"#utility.yul\":1946:2215   */\ntag_30:\n    /* \"#utility.yul\":2056:2095   */\n  tag_83\n    /* \"#utility.yul\":2087:2094   */\n  dup4\n    /* \"#utility.yul\":2056:2095   */\n  tag_28\n  jump\t// in\ntag_83:\n    /* \"#utility.yul\":2117:2208   */\n  tag_84\n    /* \"#utility.yul\":2166:2207   */\n  tag_85\n    /* \"#utility.yul\":2190:2206   */\n  dup3\n    /* \"#utility.yul\":2166:2207   */\n  tag_29\n  jump\t// in\ntag_85:\n    /* \"#utility.yul\":2158:2164   */\n  dup5\n    /* \"#utility.yul\":2151:2155   */\n  dup5\n    /* \"#utility.yul\":2145:2156   */\n  sload\n    /* \"#utility.yul\":2117:2208   */\n  tag_25\n  jump\t// in\ntag_84:\n    /* \"#utility.yul\":2111:2115   */\n  dup3\n    /* \"#utility.yul\":2104:2209   */\n  sstore\n    /* \"#utility.yul\":2022:2215   */\n  pop\n    /* \"#utility.yul\":1946:2215   */\n  pop\n  pop\n  pop\n  jump\t// out\n    /* \"#utility.yul\":2221:2294   */\ntag_31:\n    /* \"#utility.yul\":2266:2269   */\n  0x00\n    /* \"#utility.yul\":2221:2294   */\n  swap1\n  jump\t// out\n    /* \"#utility.yul\":2300:2489   */\ntag_32:\n    /* \"#utility.yul\":2377:2409   */\n  tag_88\n  tag_31\n  jump\t// in\ntag_88:\n    /* \"#utility.yul\":2418:2483   */\n  tag_89\n    /* \"#utility.yul\":2476:2482   */\n  dup2\n    /* \"#utility.yul\":2468:2474   */\n  dup5\n    /* \"#utility.yul\":2462:2466   */\n  dup5\n    /* \"#utility.yul\":2418:2483   */\n  tag_30\n  jump\t// in\ntag_89:\n    /* \"#utility.yul\":2353:2489   */\n  pop\n    /* \"#utility.yul\":2300:2489   */\n  pop\n  pop\n  jump\t// out\n    /* \"#utility.yul\":2495:2681   */\ntag_33:\n    /* \"#utility.yul\":2555:2675   */\ntag_91:\n    /* \"#utility.yul\":2572:2575   */\n  dup2\n    /* \"#utility.yul\":2565:2570   */\n  dup2\n    /* \"#utility.yul\":2562:2576   */\n  lt\n    /* \"#utility.yul\":2555:2675   */\n  iszero\n  tag_93\n  jumpi\n    /* \"#utility.yul\":2626:2665   */\n  tag_94\n    /* \"#utility.yul\":2663:2664   */\n  0x00\n    /* \"#utility.yul\":2656:2661   */\n  dup3\n    /* \"#utility.yul\":2626:2665   */\n  tag_32\n  jump\t// in\ntag_94:\n    /* \"#utility.yul\":2599:2600   */\n  0x01\n    /* \"#utility.yul\":2592:2597   */\n  dup2\n    /* \"#utility.yul\":2588:2601   */\n  add\n    /* \"#utility.yul\":2579:2601   */\n  swap1\n  pop\n    /* \"#utility.yul\":2555:2675   */\n  jump(tag_91)\ntag_93:\n    /* \"#utility.yul\":2495:2681   */\n  pop\n  pop\n  jump\t// out\n    /* \"#utility.yul\":2687:3230   */\ntag_34:\n    /* \"#utility.yul\":2788:2790   */\n  0x1f\n    /* \"#utility.yul\":2783:2786   */\n  dup3\n    /* \"#utility.yul\":2780:2791   */\n  gt\n    /* \"#utility.yul\":2777:3223   */\n  iszero\n  tag_96\n  jumpi\n    /* \"#utility.yul\":2822:2860   */\n  tag_97\n    /* \"#utility.yul\":2854:2859   */\n  dup2\n    /* \"#utility.yul\":2822:2860   */\n  tag_22\n  jump\t// in\ntag_97:\n    /* \"#utility.yul\":2906:2935   */\n  tag_98\n    /* \"#utility.yul\":2924:2934   */\n  dup5\n    /* \"#utility.yul\":2906:2935   */\n  tag_23\n  jump\t// in\ntag_98:\n    /* \"#utility.yul\":2896:2904   */\n  dup2\n    /* \"#utility.yul\":2892:2936   */\n  add\n    /* \"#utility.yul\":3089:3091   */\n  0x20\n    /* \"#utility.yul\":3077:3087   */\n  dup6\n    /* \"#utility.yul\":3074:3092   */\n  lt\n    /* \"#utility.yul\":3071:3120   */\n  iszero\n  tag_99\n  jumpi\n    /* \"#utility.yul\":3110:3118   */\n  dup2\n    /* \"#utility.yul\":3095:3118   */\n  swap1\n  pop\n    /* \"#utility.yul\":3071:3120   */\ntag_99:\n    /* \"#utility.yul\":3133:3213   */\n  tag_100\n    /* \"#utility.yul\":3189:3211   */\n  tag_101\n    /* \"#utility.yul\":3207:3210   */\n  dup6\n    /* \"#utility.yul\":3189:3211   */\n  tag_23\n  jump\t// in\ntag_101:\n    /* \"#utility.yul\":3179:3187   */\n  dup4\n    /* \"#utility.yul\":3175:3212   */\n  add\n    /* \"#utility.yul\":3162:3173   */\n  dup3\n    /* \"#utility.yul\":3133:3213   */\n  tag_33\n  jump\t// in\ntag_100:\n    /* \"#utility.yul\":2792:3223   */\n  pop\n  pop\n    /* \"#utility.yul\":2777:3223   */\ntag_96:\n    /* \"#utility.yul\":2687:3230   */\n  pop\n  pop\n  pop\n  jump\t// out\n    /* \"#utility.yul\":3236:3353   */\ntag_35:\n    /* \"#utility.yul\":3290:3298   */\n  0x00\n    /* \"#utility.yul\":3340:3345   */\n  dup3\n    /* \"#utility.yul\":3334:3338   */\n  dup3\n    /* \"#utility.yul\":3330:3346   */\n  shr\n    /* \"#utility.yul\":3309:3346   */\n  swap1\n  pop\n    /* \"#utility.yul\":3236:3353   */\n  swap3\n  swap2\n  pop\n  pop\n  jump\t// out\n    /* \"#utility.yul\":3359:3528   */\ntag_36:\n    /* \"#utility.yul\":3403:3409   */\n  0x00\n    /* \"#utility.yul\":3436:3487   */\n  tag_104\n    /* \"#utility.yul\":3484:3485   */\n  0x00\n    /* \"#utility.yul\":3480:3486   */\n  not\n    /* \"#utility.yul\":3472:3477   */\n  dup5\n    /* \"#utility.yul\":3469:3470   */\n  0x08\n    /* \"#utility.yul\":3465:3478   */\n  mul\n    /* \"#utility.yul\":3436:3487   */\n  tag_35\n  jump\t// in\ntag_104:\n    /* \"#utility.yul\":3432:3488   */\n  not\n    /* \"#utility.yul\":3517:3521   */\n  dup1\n    /* \"#utility.yul\":3511:3515   */\n  dup4\n    /* \"#utility.yul\":3507:3522   */\n  and\n    /* \"#utility.yul\":3497:3522   */\n  swap2\n  pop\n    /* \"#utility.yul\":3410:3528   */\n  pop\n    /* \"#utility.yul\":3359:3528   */\n  swap3\n  swap2\n  pop\n  pop\n  jump\t// out\n    /* \"#utility.yul\":3533:3828   */\ntag_37:\n    /* \"#utility.yul\":3609:3613   */\n  0x00\n    /* \"#utility.yul\":3755:3784   */\n  tag_106\n    /* \"#utility.yul\":3780:3783   */\n  dup4\n    /* \"#utility.yul\":3774:3778   */\n  dup4\n    /* \"#utility.yul\":3755:3784   */\n  tag_36\n  jump\t// in\ntag_106:\n    /* \"#utility.yul\":3747:3784   */\n  swap2\n  pop\n    /* \"#utility.yul\":3817:3820   */\n  dup3\n    /* \"#utility.yul\":3814:3815   */\n  0x02\n    /* \"#utility.yul\":3810:3821   */\n  mul\n    /* \"#utility.yul\":3804:3808   */\n  dup3\n    /* \"#utility.yul\":3801:3822   */\n  or\n    /* \"#utility.yul\":3793:3822   */\n  swap1\n  pop\n    /* \"#utility.yul\":3533:3828   */\n  swap3\n  swap2\n  pop\n  pop\n  jump\t// out\n    /* \"#utility.yul\":3833:5228   */\ntag_2:\n    /* \"#utility.yul\":3950:3987   */\n  tag_108\n    /* \"#utility.yul\":3983:3986   */\n  dup3\n    /* \"#utility.yul\":3950:3987   */\n  tag_18\n  jump\t// in\ntag_108:\n    /* \"#utility.yul\":4052:4070   */\n  0xffffffffffffffff\n    /* \"#utility.yul\":4044:4050   */\n  dup2\n    /* \"#utility.yul\":4041:4071   */\n  gt\n    /* \"#utility.yul\":4038:4094   */\n  iszero\n  tag_109\n  jumpi\n    /* \"#utility.yul\":4074:4092   */\n  tag_110\n  tag_19\n  jump\t// in\ntag_110:\n    /* \"#utility.yul\":4038:4094   */\ntag_109:\n    /* \"#utility.yul\":4118:4156   */\n  tag_111\n    /* \"#utility.yul\":4150:4154   */\n  dup3\n    /* \"#utility.yul\":4144:4155   */\n  sload\n    /* \"#utility.yul\":4118:4156   */\n  tag_21\n  jump\t// in\ntag_111:\n    /* \"#utility.yul\":4203:4270   */\n  tag_112\n    /* \"#utility.yul\":4263:4269   */\n  dup3\n    /* \"#utility.yul\":4255:4261   */\n  dup3\n    /* \"#utility.yul\":4249:4253   */\n  dup6\n    /* \"#utility.yul\":4203:4270   */\n  tag_34\n  jump\t// in\ntag_112:\n    /* \"#utility.yul\":4297:4298   */\n  0x00\n    /* \"#utility.yul\":4321:4325   */\n  0x20\n    /* \"#utility.yul\":4308:4325   */\n  swap1\n  pop\n    /* \"#utility.yul\":4353:4355   */\n  0x1f\n    /* \"#utility.yul\":4345:4351   */\n  dup4\n    /* \"#utility.yul\":4342:4356   */\n  gt\n    /* \"#utility.yul\":4370:4371   */\n  0x01\n    /* \"#utility.yul\":4365:4983   */\n  dup2\n  eq\n  tag_114\n  jumpi\n    /* \"#utility.yul\":5027:5028   */\n  0x00\n    /* \"#utility.yul\":5044:5050   */\n  dup5\n    /* \"#utility.yul\":5041:5118   */\n  iszero\n  tag_115\n  jumpi\n    /* \"#utility.yul\":5093:5102   */\n  dup3\n    /* \"#utility.yul\":5088:5091   */\n  dup8\n    /* \"#utility.yul\":5084:5103   */\n  add\n    /* \"#utility.yul\":5078:5104   */\n  mload\n    /* \"#utility.yul\":5069:5104   */\n  swap1\n  pop\n    /* \"#utility.yul\":5041:5118   */\ntag_115:\n    /* \"#utility.yul\":5144:5211   */\n  tag_116\n    /* \"#utility.yul\":5204:5210   */\n  dup6\n    /* \"#utility.yul\":5197:5202   */\n  dup3\n    /* \"#utility.yul\":5144:5211   */\n  tag_37\n  jump\t// in\ntag_116:\n    /* \"#utility.yul\":5138:5142   */\n  dup7\n    /* \"#utility.yul\":5131:5212   */\n  sstore\n    /* \"#utility.yul\":5000:5222   */\n  pop\n    /* \"#utility.yul\":4335:5222   */\n  jump(tag_113)\n    /* \"#utility.yul\":4365:4983   */\ntag_114:\n    /* \"#utility.yul\":4417:4421   */\n  0x1f\n    /* \"#utility.yul\":4413:4422   */\n  not\n    /* \"#utility.yul\":4405:4411   */\n  dup5\n    /* \"#utility.yul\":4401:4423   */\n  and\n    /* \"#utility.yul\":4451:4488   */\n  tag_117\n    /* \"#utility.yul\":4483:4487   */\n  dup7\n    /* \"#utility.yul\":4451:4488   */\n  tag_22\n  jump\t// in\ntag_117:\n    /* \"#utility.yul\":4510:4511   */\n  0x00\n    /* \"#utility.yul\":4524:4732   */\ntag_118:\n    /* \"#utility.yul\":4538:4545   */\n  dup3\n    /* \"#utility.yul\":4535:4536   */\n  dup2\n    /* \"#utility.yul\":4532:4546   */\n  lt\n    /* \"#utility.yul\":4524:4732   */\n  iszero\n  tag_120\n  jumpi\n    /* \"#utility.yul\":4617:4626   */\n  dup5\n    /* \"#utility.yul\":4612:4615   */\n  dup10\n    /* \"#utility.yul\":4608:4627   */\n  add\n    /* \"#utility.yul\":4602:4628   */\n  mload\n    /* \"#utility.yul\":4594:4600   */\n  dup3\n    /* \"#utility.yul\":4587:4629   */\n  sstore\n    /* \"#utility.yul\":4668:4669   */\n  0x01\n    /* \"#utility.yul\":4660:4666   */\n  dup3\n    /* \"#utility.yul\":4656:4670   */\n  add\n    /* \"#utility.yul\":4646:4670   */\n  swap2\n  pop\n    /* \"#utility.yul\":4715:4717   */\n  0x20\n    /* \"#utility.yul\":4704:4713   */\n  dup6\n    /* \"#utility.yul\":4700:4718   */\n  add\n    /* \"#utility.yul\":4687:4718   */\n  swap5\n  pop\n    /* \"#utility.yul\":4561:4565   */\n  0x20\n    /* \"#utility.yul\":4558:4559   */\n  dup2\n    /* \"#utility.yul\":4554:4566   */\n  add\n    /* \"#utility.yul\":4549:4566   */\n  swap1\n  pop\n    /* \"#utility.yul\":4524:4732   */\n  jump(tag_118)\ntag_120:\n    /* \"#utility.yul\":4760:4766   */\n  dup7\n    /* \"#utility.yul\":4751:4758   */\n  dup4\n    /* \"#utility.yul\":4748:4767   */\n  lt\n    /* \"#utility.yul\":4745:4924   */\n  iszero\n  tag_121\n  jumpi\n    /* \"#utility.yul\":4818:4827   */\n  dup5\n    /* \"#utility.yul\":4813:4816   */\n  dup10\n    /* \"#utility.yul\":4809:4828   */\n  add\n    /* \"#utility.yul\":4803:4829   */\n  mload\n    /* \"#utility.yul\":4861:4909   */\n  tag_122\n    /* \"#utility.yul\":4903:4907   */\n  0x1f\n    /* \"#utility.yul\":4895:4901   */\n  dup10\n    /* \"#utility.yul\":4891:4908   */\n  and\n    /* \"#utility.yul\":4880:4889   */\n  dup3\n    /* \"#utility.yul\":4861:4909   */\n  tag_36\n  jump\t// in\ntag_122:\n    /* \"#utility.yul\":4853:4859   */\n  dup4\n    /* \"#utility.yul\":4846:4910   */\n  sstore\n    /* \"#utility.yul\":4768:4924   */\n  pop\n    /* \"#utility.yul\":4745:4924   */\ntag_121:\n    /* \"#utility.yul\":4970:4971   */\n  0x01\n    /* \"#utility.yul\":4966:4967   */\n  0x02\n    /* \"#utility.yul\":4958:4964   */\n  dup9\n    /* \"#utility.yul\":4954:4968   */\n  mul\n    /* \"#utility.yul\":4950:4972   */\n  add\n    /* \"#utility.yul\":4944:4948   */\n  dup9\n    /* \"#utility.yul\":4937:4973   */\n  sstore\n    /* \"#utility.yul\":4372:4983   */\n  pop\n  pop\n  pop\n    /* \"#utility.yul\":4335:5222   */\ntag_113:\n  pop\n    /* \"#utility.yul\":3925:5228   */\n  pop\n  pop\n  pop\n    /* \"#utility.yul\":3833:5228   */\n  pop\n  pop\n  jump\t// out\n    /* \"#utility.yul\":5234:5309   */\ntag_38:\n    /* \"#utility.yul\":5267:5273   */\n  0x00\n    /* \"#utility.yul\":5300:5302   */\n  0x40\n    /* \"#utility.yul\":5294:5303   */\n  mload\n    /* \"#utility.yul\":5284:5303   */\n  swap1\n  pop\n    /* \"#utility.yul\":5234:5309   */\n  swap1\n  jump\t// out\n    /* \"#utility.yul\":5315:5432   */\ntag_39:\n    /* \"#utility.yul\":5424:5425   */\n  0x00\n    /* \"#utility.yul\":5421:5422   */\n  dup1\n    /* \"#utility.yul\":5414:5426   */\n  revert\n    /* \"#utility.yul\":5438:5555   */\ntag_40:\n    /* \"#utility.yul\":5547:5548   */\n  0x00\n    /* \"#utility.yul\":5544:5545   */\n  dup1\n    /* \"#utility.yul\":5537:5549   */\n  revert\n    /* \"#utility.yul\":5561:5678   */\ntag_41:\n    /* \"#utility.yul\":5670:5671   */\n  0x00\n    /* \"#utility.yul\":5667:5668   */\n  dup1\n    /* \"#utility.yul\":5660:5672   */\n  revert\n    /* \"#utility.yul\":5684:5801   */\ntag_42:\n    /* \"#utility.yul\":5793:5794   */\n  0x00\n    /* \"#utility.yul\":5790:5791   */\n  dup1\n    /* \"#utility.yul\":5783:5795   */\n  revert\n    /* \"#utility.yul\":5807:5909   */\ntag_43:\n    /* \"#utility.yul\":5848:5854   */\n  0x00\n    /* \"#utility.yul\":5899:5901   */\n  0x1f\n    /* \"#utility.yul\":5895:5902   */\n  not\n    /* \"#utility.yul\":5890:5892   */\n  0x1f\n    /* \"#utility.yul\":5883:5888   */\n  dup4\n    /* \"#utility.yul\":5879:5893   */\n  add\n    /* \"#utility.yul\":5875:5903   */\n  and\n    /* \"#utility.yul\":5865:5903   */\n  swap1\n  pop\n    /* \"#utility.yul\":5807:5909   */\n  swap2\n  swap1\n  pop\n  jump\t// out\n    /* \"#utility.yul\":5915:6196   */\ntag_44:\n    /* \"#utility.yul\":5998:6025   */\n  tag_130\n    /* \"#utility.yul\":6020:6024   */\n  dup3\n    /* \"#utility.yul\":5998:6025   */\n  tag_43\n  jump\t// in\ntag_130:\n    /* \"#utility.yul\":5990:5996   */\n  dup2\n    /* \"#utility.yul\":5986:6026   */\n  add\n    /* \"#utility.yul\":6128:6134   */\n  dup2\n    /* \"#utility.yul\":6116:6126   */\n  dup2\n    /* \"#utility.yul\":6113:6135   */\n  lt\n    /* \"#utility.yul\":6092:6110   */\n  0xffffffffffffffff\n    /* \"#utility.yul\":6080:6090   */\n  dup3\n    /* \"#utility.yul\":6077:6111   */\n  gt\n    /* \"#utility.yul\":6074:6136   */\n  or\n    /* \"#utility.yul\":6071:6159   */\n  iszero\n  tag_131\n  jumpi\n    /* \"#utility.yul\":6139:6157   */\n  tag_132\n  tag_19\n  jump\t// in\ntag_132:\n    /* \"#utility.yul\":6071:6159   */\ntag_131:\n    /* \"#utility.yul\":6179:6189   */\n  dup1\n    /* \"#utility.yul\":6175:6177   */\n  0x40\n    /* \"#utility.yul\":6168:6190   */\n  mstore\n    /* \"#utility.yul\":5958:6196   */\n  pop\n    /* \"#utility.yul\":5915:6196   */\n  pop\n  pop\n  jump\t// out\n    /* \"#utility.yul\":6202:6331   */\ntag_45:\n    /* \"#utility.yul\":6236:6242   */\n  0x00\n    /* \"#utility.yul\":6263:6283   */\n  tag_134\n  tag_38\n  jump\t// in\ntag_134:\n    /* \"#utility.yul\":6253:6283   */\n  swap1\n  pop\n    /* \"#utility.yul\":6292:6325   */\n  tag_135\n    /* \"#utility.yul\":6320:6324   */\n  dup3\n    /* \"#utility.yul\":6312:6318   */\n  dup3\n    /* \"#utility.yul\":6292:6325   */\n  tag_44\n  jump\t// in\ntag_135:\n    /* \"#utility.yul\":6202:6331   */\n  swap2\n  swap1\n  pop\n  jump\t// out\n    /* \"#utility.yul\":6337:6645   */\ntag_46:\n    /* \"#utility.yul\":6399:6403   */\n  0x00\n    /* \"#utility.yul\":6489:6507   */\n  0xffffffffffffffff\n    /* \"#utility.yul\":6481:6487   */\n  dup3\n    /* \"#utility.yul\":6478:6508   */\n  gt\n    /* \"#utility.yul\":6475:6531   */\n  iszero\n  tag_137\n  jumpi\n    /* \"#utility.yul\":6511:6529   */\n  tag_138\n  tag_19\n  jump\t// in\ntag_138:\n    /* \"#utility.yul\":6475:6531   */\ntag_137:\n    /* \"#utility.yul\":6549:6578   */\n  tag_139\n    /* \"#utility.yul\":6571:6577   */\n  dup3\n    /* \"#utility.yul\":6549:6578   */\n  tag_43\n  jump\t// in\ntag_139:\n    /* \"#utility.yul\":6541:6578   */\n  swap1\n  pop\n    /* \"#utility.yul\":6633:6637   */\n  0x20\n    /* \"#utility.yul\":6627:6631   */\n  dup2\n    /* \"#utility.yul\":6623:6638   */\n  add\n    /* \"#utility.yul\":6615:6638   */\n  swap1\n  pop\n    /* \"#utility.yul\":6337:6645   */\n  swap2\n  swap1\n  pop\n  jump\t// out\n    /* \"#utility.yul\":6651:6790   */\ntag_47:\n    /* \"#utility.yul\":6740:6746   */\n  dup3\n    /* \"#utility.yul\":6735:6738   */\n  dup2\n    /* \"#utility.yul\":6730:6733   */\n  dup4\n    /* \"#utility.yul\":6724:6747   */\n  mcopy\n    /* \"#utility.yul\":6781:6782   */\n  0x00\n    /* \"#utility.yul\":6772:6778   */\n  dup4\n    /* \"#utility.yul\":6767:6770   */\n  dup4\n    /* \"#utility.yul\":6763:6779   */\n  add\n    /* \"#utility.yul\":6756:6783   */\n  mstore\n    /* \"#utility.yul\":6651:6790   */\n  pop\n  pop\n  pop\n  jump\t// out\n    /* \"#utility.yul\":6796:7230   */\ntag_48:\n    /* \"#utility.yul\":6885:6890   */\n  0x00\n    /* \"#utility.yul\":6910:6976   */\n  tag_142\n    /* \"#utility.yul\":6926:6975   */\n  tag_143\n    /* \"#utility.yul\":6968:6974   */\n  dup5\n    /* \"#utility.yul\":6926:6975   */\n  tag_46\n  jump\t// in\ntag_143:\n    /* \"#utility.yul\":6910:6976   */\n  tag_45\n  jump\t// in\ntag_142:\n    /* \"#utility.yul\":6901:6976   */\n  swap1\n  pop\n    /* \"#utility.yul\":6999:7005   */\n  dup3\n    /* \"#utility.yul\":6992:6997   */\n  dup2\n    /* \"#utility.yul\":6985:7006   */\n  mstore\n    /* \"#utility.yul\":7037:7041   */\n  0x20\n    /* \"#utility.yul\":7030:7035   */\n  dup2\n    /* \"#utility.yul\":7026:7042   */\n  add\n    /* \"#utility.yul\":7075:7078   */\n  dup5\n    /* \"#utility.yul\":7066:7072   */\n  dup5\n    /* \"#utility.yul\":7061:7064   */\n  dup5\n    /* \"#utility.yul\":7057:7073   */\n  add\n    /* \"#utility.yul\":7054:7079   */\n  gt\n    /* \"#utility.yul\":7051:7163   */\n  iszero\n  tag_144\n  jumpi\n    /* \"#utility.yul\":7082:7161   */\n  tag_145\n  tag_42\n  jump\t// in\ntag_145:\n    /* \"#utility.yul\":7051:7163   */\ntag_144:\n    /* \"#utility.yul\":7172:7224   */\n  tag_146\n    /* \"#utility.yul\":7217:7223   */\n  dup5\n    /* \"#utility.yul\":7212:7215   */\n  dup3\n    /* \"#utility.yul\":7207:7210   */\n  dup6\n    /* \"#utility.yul\":7172:7224   */\n  tag_47\n  jump\t// in\ntag_146:\n    /* \"#utility.yul\":6891:7230   */\n  pop\n    /* \"#utility.yul\":6796:7230   */\n  swap4\n  swap3\n  pop\n  pop\n  pop\n  jump\t// out\n    /* \"#utility.yul\":7250:7605   */\ntag_49:\n    /* \"#utility.yul\":7317:7322   */\n  0x00\n    /* \"#utility.yul\":7366:7369   */\n  dup3\n    /* \"#utility.yul\":7359:7363   */\n  0x1f\n    /* \"#utility.yul\":7351:7357   */\n  dup4\n    /* \"#utility.yul\":7347:7364   */\n  add\n    /* \"#utility.yul\":7343:7370   */\n  slt\n    /* \"#utility.yul\":7333:7455   */\n  tag_148\n  jumpi\n    /* \"#utility.yul\":7374:7453   */\n  tag_149\n  tag_41\n  jump\t// in\ntag_149:\n    /* \"#utility.yul\":7333:7455   */\ntag_148:\n    /* \"#utility.yul\":7484:7490   */\n  dup2\n    /* \"#utility.yul\":7478:7491   */\n  mload\n    /* \"#utility.yul\":7509:7599   */\n  tag_150\n    /* \"#utility.yul\":7595:7598   */\n  dup5\n    /* \"#utility.yul\":7587:7593   */\n  dup3\n    /* \"#utility.yul\":7580:7584   */\n  0x20\n    /* \"#utility.yul\":7572:7578   */\n  dup7\n    /* \"#utility.yul\":7568:7585   */\n  add\n    /* \"#utility.yul\":7509:7599   */\n  tag_48\n  jump\t// in\ntag_150:\n    /* \"#utility.yul\":7500:7599   */\n  swap2\n  pop\n    /* \"#utility.yul\":7323:7605   */\n  pop\n    /* \"#utility.yul\":7250:7605   */\n  swap3\n  swap2\n  pop\n  pop\n  jump\t// out\n    /* \"#utility.yul\":7611:7687   */\ntag_50:\n    /* \"#utility.yul\":7647:7654   */\n  0x00\n    /* \"#utility.yul\":7676:7681   */\n  dup2\n    /* \"#utility.yul\":7665:7681   */\n  swap1\n  pop\n    /* \"#utility.yul\":7611:7687   */\n  swap2\n  swap1\n  pop\n  jump\t// out\n    /* \"#utility.yul\":7693:7813   */\ntag_51:\n    /* \"#utility.yul\":7765:7788   */\n  tag_153\n    /* \"#utility.yul\":7782:7787   */\n  dup2\n    /* \"#utility.yul\":7765:7788   */\n  tag_50\n  jump\t// in\ntag_153:\n    /* \"#utility.yul\":7758:7763   */\n  dup2\n    /* \"#utility.yul\":7755:7789   */\n  eq\n    /* \"#utility.yul\":7745:7807   */\n  tag_154\n  jumpi\n    /* \"#utility.yul\":7803:7804   */\n  0x00\n    /* \"#utility.yul\":7800:7801   */\n  dup1\n    /* \"#utility.yul\":7793:7805   */\n  revert\n    /* \"#utility.yul\":7745:7807   */\ntag_154:\n    /* \"#utility.yul\":7693:7813   */\n  pop\n  jump\t// out\n    /* \"#utility.yul\":7819:7960   */\ntag_52:\n    /* \"#utility.yul\":7875:7880   */\n  0x00\n    /* \"#utility.yul\":7906:7912   */\n  dup2\n    /* \"#utility.yul\":7900:7913   */\n  mload\n    /* \"#utility.yul\":7891:7913   */\n  swap1\n  pop\n    /* \"#utility.yul\":7922:7954   */\n  tag_156\n    /* \"#utility.yul\":7948:7953   */\n  dup2\n    /* \"#utility.yul\":7922:7954   */\n  tag_51\n  jump\t// in\ntag_156:\n    /* \"#utility.yul\":7819:7960   */\n  swap3\n  swap2\n  pop\n  pop\n  jump\t// out\n    /* \"#utility.yul\":7966:8088   */\ntag_53:\n    /* \"#utility.yul\":8039:8063   */\n  tag_158\n    /* \"#utility.yul\":8057:8062   */\n  dup2\n    /* \"#utility.yul\":8039:8063   */\n  tag_26\n  jump\t// in\ntag_158:\n    /* \"#utility.yul\":8032:8037   */\n  dup2\n    /* \"#utility.yul\":8029:8064   */\n  eq\n    /* \"#utility.yul\":8019:8082   */\n  tag_159\n  jumpi\n    /* \"#utility.yul\":8078:8079   */\n  0x00\n    /* \"#utility.yul\":8075:8076   */\n  dup1\n    /* \"#utility.yul\":8068:8080   */\n  revert\n    /* \"#utility.yul\":8019:8082   */\ntag_159:\n    /* \"#utility.yul\":7966:8088   */\n  pop\n  jump\t// out\n    /* \"#utility.yul\":8094:8237   */\ntag_54:\n    /* \"#utility.yul\":8151:8156   */\n  0x00\n    /* \"#utility.yul\":8182:8188   */\n  dup2\n    /* \"#utility.yul\":8176:8189   */\n  mload\n    /* \"#utility.yul\":8167:8189   */\n  swap1\n  pop\n    /* \"#utility.yul\":8198:8231   */\n  tag_161\n    /* \"#utility.yul\":8225:8230   */\n  dup2\n    /* \"#utility.yul\":8198:8231   */\n  tag_53\n  jump\t// in\ntag_161:\n    /* \"#utility.yul\":8094:8237   */\n  swap3\n  swap2\n  pop\n  pop\n  jump\t// out\n    /* \"#utility.yul\":8243:9407   */\ntag_6:\n    /* \"#utility.yul\":8359:8365   */\n  0x00\n    /* \"#utility.yul\":8367:8373   */\n  dup1\n    /* \"#utility.yul\":8375:8381   */\n  0x00\n    /* \"#utility.yul\":8383:8389   */\n  dup1\n    /* \"#utility.yul\":8432:8435   */\n  0x80\n    /* \"#utility.yul\":8420:8429   */\n  dup6\n    /* \"#utility.yul\":8411:8418   */\n  dup8\n    /* \"#utility.yul\":8407:8430   */\n  sub\n    /* \"#utility.yul\":8403:8436   */\n  slt\n    /* \"#utility.yul\":8400:8520   */\n  iszero\n  tag_163\n  jumpi\n    /* \"#utility.yul\":8439:8518   */\n  tag_164\n  tag_39\n  jump\t// in\ntag_164:\n    /* \"#utility.yul\":8400:8520   */\ntag_163:\n    /* \"#utility.yul\":8580:8581   */\n  0x00\n    /* \"#utility.yul\":8569:8578   */\n  dup6\n    /* \"#utility.yul\":8565:8582   */\n  add\n    /* \"#utility.yul\":8559:8583   */\n  mload\n    /* \"#utility.yul\":8610:8628   */\n  0xffffffffffffffff\n    /* \"#utility.yul\":8602:8608   */\n  dup2\n    /* \"#utility.yul\":8599:8629   */\n  gt\n    /* \"#utility.yul\":8596:8713   */\n  iszero\n  tag_165\n  jumpi\n    /* \"#utility.yul\":8632:8711   */\n  tag_166\n  tag_40\n  jump\t// in\ntag_166:\n    /* \"#utility.yul\":8596:8713   */\ntag_165:\n    /* \"#utility.yul\":8737:8811   */\n  tag_167\n    /* \"#utility.yul\":8803:8810   */\n  dup8\n    /* \"#utility.yul\":8794:8800   */\n  dup3\n    /* \"#utility.yul\":8783:8792   */\n  dup9\n    /* \"#utility.yul\":8779:8801   */\n  add\n    /* \"#utility.yul\":8737:8811   */\n  tag_49\n  jump\t// in\ntag_167:\n    /* \"#utility.yul\":8727:8811   */\n  swap5\n  pop\n    /* \"#utility.yul\":8530:8821   */\n  pop\n    /* \"#utility.yul\":8860:8862   */\n  0x20\n    /* \"#utility.yul\":8886:8949   */\n  tag_168\n    /* \"#utility.yul\":8941:8948   */\n  dup8\n    /* \"#utility.yul\":8932:8938   */\n  dup3\n    /* \"#utility.yul\":8921:8930   */\n  dup9\n    /* \"#utility.yul\":8917:8939   */\n  add\n    /* \"#utility.yul\":8886:8949   */\n  tag_52\n  jump\t// in\ntag_168:\n    /* \"#utility.yul\":8876:8949   */\n  swap4\n  pop\n    /* \"#utility.yul\":8831:8959   */\n  pop\n    /* \"#utility.yul\":9019:9021   */\n  0x40\n    /* \"#utility.yul\":9008:9017   */\n  dup6\n    /* \"#utility.yul\":9004:9022   */\n  add\n    /* \"#utility.yul\":8998:9023   */\n  mload\n    /* \"#utility.yul\":9050:9068   */\n  0xffffffffffffffff\n    /* \"#utility.yul\":9042:9048   */\n  dup2\n    /* \"#utility.yul\":9039:9069   */\n  gt\n    /* \"#utility.yul\":9036:9153   */\n  iszero\n  tag_169\n  jumpi\n    /* \"#utility.yul\":9072:9151   */\n  tag_170\n  tag_40\n  jump\t// in\ntag_170:\n    /* \"#utility.yul\":9036:9153   */\ntag_169:\n    /* \"#utility.yul\":9177:9251   */\n  tag_171\n    /* \"#utility.yul\":9243:9250   */\n  dup8\n    /* \"#utility.yul\":9234:9240   */\n  dup3\n    /* \"#utility.yul\":9223:9232   */\n  dup9\n    /* \"#utility.yul\":9219:9241   */\n  add\n    /* \"#utility.yul\":9177:9251   */\n  tag_49\n  jump\t// in\ntag_171:\n    /* \"#utility.yul\":9167:9251   */\n  swap3\n  pop\n    /* \"#utility.yul\":8969:9261   */\n  pop\n    /* \"#utility.yul\":9300:9302   */\n  0x60\n    /* \"#utility.yul\":9326:9390   */\n  tag_172\n    /* \"#utility.yul\":9382:9389   */\n  dup8\n    /* \"#utility.yul\":9373:9379   */\n  dup3\n    /* \"#utility.yul\":9362:9371   */\n  dup9\n    /* \"#utility.yul\":9358:9380   */\n  add\n    /* \"#utility.yul\":9326:9390   */\n  tag_54\n  jump\t// in\ntag_172:\n    /* \"#utility.yul\":9316:9390   */\n  swap2\n  pop\n    /* \"#utility.yul\":9271:9400   */\n  pop\n    /* \"#utility.yul\":8243:9407   */\n  swap3\n  swap6\n  swap2\n  swap5\n  pop\n  swap3\n  pop\n  jump\t// out\n    /* \"#utility.yul\":9413:9582   */\ntag_55:\n    /* \"#utility.yul\":9497:9508   */\n  0x00\n    /* \"#utility.yul\":9531:9537   */\n  dup3\n    /* \"#utility.yul\":9526:9529   */\n  dup3\n    /* \"#utility.yul\":9519:9538   */\n  mstore\n    /* \"#utility.yul\":9571:9575   */\n  0x20\n    /* \"#utility.yul\":9566:9569   */\n  dup3\n    /* \"#utility.yul\":9562:9576   */\n  add\n    /* \"#utility.yul\":9547:9576   */\n  swap1\n  pop\n    /* \"#utility.yul\":9413:9582   */\n  swap3\n  swap2\n  pop\n  pop\n  jump\t// out\n    /* \"#utility.yul\":9588:9965   */\ntag_56:\n    /* \"#utility.yul\":9676:9679   */\n  0x00\n    /* \"#utility.yul\":9704:9743   */\n  tag_175\n    /* \"#utility.yul\":9737:9742   */\n  dup3\n    /* \"#utility.yul\":9704:9743   */\n  tag_18\n  jump\t// in\ntag_175:\n    /* \"#utility.yul\":9759:9830   */\n  tag_176\n    /* \"#utility.yul\":9823:9829   */\n  dup2\n    /* \"#utility.yul\":9818:9821   */\n  dup6\n    /* \"#utility.yul\":9759:9830   */\n  tag_55\n  jump\t// in\ntag_176:\n    /* \"#utility.yul\":9752:9830   */\n  swap4\n  pop\n    /* \"#utility.yul\":9839:9904   */\n  tag_177\n    /* \"#utility.yul\":9897:9903   */\n  dup2\n    /* \"#utility.yul\":9892:9895   */\n  dup6\n    /* \"#utility.yul\":9885:9889   */\n  0x20\n    /* \"#utility.yul\":9878:9883   */\n  dup7\n    /* \"#utility.yul\":9874:9890   */\n  add\n    /* \"#utility.yul\":9839:9904   */\n  tag_47\n  jump\t// in\ntag_177:\n    /* \"#utility.yul\":9929:9958   */\n  tag_178\n    /* \"#utility.yul\":9951:9957   */\n  dup2\n    /* \"#utility.yul\":9929:9958   */\n  tag_43\n  jump\t// in\ntag_178:\n    /* \"#utility.yul\":9924:9927   */\n  dup5\n    /* \"#utility.yul\":9920:9959   */\n  add\n    /* \"#utility.yul\":9913:9959   */\n  swap2\n  pop\n    /* \"#utility.yul\":9680:9965   */\n  pop\n    /* \"#utility.yul\":9588:9965   */\n  swap3\n  swap2\n  pop\n  pop\n  jump\t// out\n    /* \"#utility.yul\":9971:10086   */\ntag_57:\n    /* \"#utility.yul\":10056:10079   */\n  tag_180\n    /* \"#utility.yul\":10073:10078   */\n  dup2\n    /* \"#utility.yul\":10056:10079   */\n  tag_50\n  jump\t// in\ntag_180:\n    /* \"#utility.yul\":10051:10054   */\n  dup3\n    /* \"#utility.yul\":10044:10080   */\n  mstore\n    /* \"#utility.yul\":9971:10086   */\n  pop\n  pop\n  jump\t// out\n    /* \"#utility.yul\":10092:10218   */\ntag_58:\n    /* \"#utility.yul\":10129:10136   */\n  0x00\n    /* \"#utility.yul\":10169:10211   */\n  0xffffffffffffffffffffffffffffffffffffffff\n    /* \"#utility.yul\":10162:10167   */\n  dup3\n    /* \"#utility.yul\":10158:10212   */\n  and\n    /* \"#utility.yul\":10147:10212   */\n  swap1\n  pop\n    /* \"#utility.yul\":10092:10218   */\n  swap2\n  swap1\n  pop\n  jump\t// out\n    /* \"#utility.yul\":10224:10320   */\ntag_59:\n    /* \"#utility.yul\":10261:10268   */\n  0x00\n    /* \"#utility.yul\":10290:10314   */\n  tag_183\n    /* \"#utility.yul\":10308:10313   */\n  dup3\n    /* \"#utility.yul\":10290:10314   */\n  tag_58\n  jump\t// in\ntag_183:\n    /* \"#utility.yul\":10279:10314   */\n  swap1\n  pop\n    /* \"#utility.yul\":10224:10320   */\n  swap2\n  swap1\n  pop\n  jump\t// out\n    /* \"#utility.yul\":10326:10444   */\ntag_60:\n    /* \"#utility.yul\":10413:10437   */\n  tag_185\n    /* \"#utility.yul\":10431:10436   */\n  dup2\n    /* \"#utility.yul\":10413:10437   */\n  tag_59\n  jump\t// in\ntag_185:\n    /* \"#utility.yul\":10408:10411   */\n  dup3\n    /* \"#utility.yul\":10401:10438   */\n  mstore\n    /* \"#utility.yul\":10326:10444   */\n  pop\n  pop\n  jump\t// out\n    /* \"#utility.yul\":10450:11181   */\ntag_14:\n    /* \"#utility.yul\":10665:10669   */\n  0x00\n    /* \"#utility.yul\":10703:10706   */\n  0x80\n    /* \"#utility.yul\":10692:10701   */\n  dup3\n    /* \"#utility.yul\":10688:10707   */\n  add\n    /* \"#utility.yul\":10680:10707   */\n  swap1\n  pop\n    /* \"#utility.yul\":10753:10762   */\n  dup2\n    /* \"#utility.yul\":10747:10751   */\n  dup2\n    /* \"#utility.yul\":10743:10763   */\n  sub\n    /* \"#utility.yul\":10739:10740   */\n  0x00\n    /* \"#utility.yul\":10728:10737   */\n  dup4\n    /* \"#utility.yul\":10724:10741   */\n  add\n    /* \"#utility.yul\":10717:10764   */\n  mstore\n    /* \"#utility.yul\":10781:10859   */\n  tag_187\n    /* \"#utility.yul\":10854:10858   */\n  dup2\n    /* \"#utility.yul\":10845:10851   */\n  dup8\n    /* \"#utility.yul\":10781:10859   */\n  tag_56\n  jump\t// in\ntag_187:\n    /* \"#utility.yul\":10773:10859   */\n  swap1\n  pop\n    /* \"#utility.yul\":10869:10939   */\n  tag_188\n    /* \"#utility.yul\":10935:10937   */\n  0x20\n    /* \"#utility.yul\":10924:10933   */\n  dup4\n    /* \"#utility.yul\":10920:10938   */\n  add\n    /* \"#utility.yul\":10911:10917   */\n  dup7\n    /* \"#utility.yul\":10869:10939   */\n  tag_57\n  jump\t// in\ntag_188:\n    /* \"#utility.yul\":10986:10995   */\n  dup2\n    /* \"#utility.yul\":10980:10984   */\n  dup2\n    /* \"#utility.yul\":10976:10996   */\n  sub\n    /* \"#utility.yul\":10971:10973   */\n  0x40\n    /* \"#utility.yul\":10960:10969   */\n  dup4\n    /* \"#utility.yul\":10956:10974   */\n  add\n    /* \"#utility.yul\":10949:10997   */\n  mstore\n    /* \"#utility.yul\":11014:11092   */\n  tag_189\n    /* \"#utility.yul\":11087:11091   */\n  dup2\n    /* \"#utility.yul\":11078:11084   */\n  dup6\n    /* \"#utility.yul\":11014:11092   */\n  tag_56\n  jump\t// in\ntag_189:\n    /* \"#utility.yul\":11006:11092   */\n  swap1\n  pop\n    /* \"#utility.yul\":11102:11174   */\n  tag_190\n    /* \"#utility.yul\":11170:11172   */\n  0x60\n    /* \"#utility.yul\":11159:11168   */\n  dup4\n    /* \"#utility.yul\":11155:11173   */\n  add\n    /* \"#utility.yul\":11146:11152   */\n  dup5\n    /* \"#utility.yul\":11102:11174   */\n  tag_60\n  jump\t// in\ntag_190:\n    /* \"#utility.yul\":10450:11181   */\n  swap6\n  swap5\n  pop\n  pop\n  pop\n  pop\n  pop\n  jump\t// out\n    /* \"AssetTransactions.sol\":131:1324  contract AssetTransactions is TokeniseAsset {... */\ntag_17:\n  dataSize(sub_0)\n  dup1\n  dataOffset(sub_0)\n  0x00\n  codecopy\n  0x00\n  return\nstop\n\nsub_0: assembly {\n        /* \"AssetTransactions.sol\":131:1324  contract AssetTransactions is TokeniseAsset {... */\n      mstore(0x40, 0x80)\n      jumpi(tag_1, lt(calldatasize, 0x04))\n      shr(0xe0, calldataload(0x00))\n      dup1\n      0x95d89b41\n      gt\n      tag_19\n      jumpi\n      dup1\n      0xcc00dd19\n      gt\n      tag_20\n      jumpi\n      dup1\n      0xcc00dd19\n      eq\n      tag_14\n      jumpi\n      dup1\n      0xd24378eb\n      eq\n      tag_15\n      jumpi\n      dup1\n      0xdd62ed3e\n      eq\n      tag_16\n      jumpi\n      dup1\n      0xde8f4642\n      eq\n      tag_17\n      jumpi\n      dup1\n      0xe45f2b8a\n      eq\n      tag_18\n      jumpi\n      jump(tag_1)\n    tag_20:\n      dup1\n      0x95d89b41\n      eq\n      tag_10\n      jumpi\n      dup1\n      0xa457e1c0\n      eq\n      tag_11\n      jumpi\n      dup1\n      0xa9059cbb\n      eq\n      tag_12\n      jumpi\n      dup1\n      0xb2033ce7\n      eq\n      tag_13\n      jumpi\n      jump(tag_1)\n    tag_19:\n      dup1\n      0x2eed8b95\n      gt\n      tag_21\n      jumpi\n      dup1\n      0x2eed8b95\n      eq\n      tag_6\n      jumpi\n      dup1\n      0x313ce567\n      eq\n      tag_7\n      jumpi\n      dup1\n      0x40c10f19\n      eq\n      tag_8\n      jumpi\n      dup1\n      0x70a08231\n      eq\n      tag_9\n      jumpi\n      jump(tag_1)\n    tag_21:\n      dup1\n      0x02d05d3f\n      eq\n      tag_2\n      jumpi\n      dup1\n      0x06fdde03\n      eq\n      tag_3\n      jumpi\n      dup1\n      0x07480fd8\n      eq\n      tag_4\n      jumpi\n      dup1\n      0x18160ddd\n      eq\n      tag_5\n      jumpi\n    tag_1:\n      0x00\n      dup1\n      revert\n        /* \"DefineAsset.sol\":223:245  address public creator */\n    tag_2:\n      callvalue\n      dup1\n      iszero\n      tag_22\n      jumpi\n      0x00\n      dup1\n      revert\n    tag_22:\n      pop\n      tag_23\n      tag_24\n      jump\t// in\n    tag_23:\n      mload(0x40)\n      tag_25\n      swap2\n      swap1\n      tag_26\n      jump\t// in\n    tag_25:\n      mload(0x40)\n      dup1\n      swap2\n      sub\n      swap1\n      return\n        /* \"TokeniseAsset.sol\":232:275  string public name = \"FractionalAssetToken\" */\n    tag_3:\n      callvalue\n      dup1\n      iszero\n      tag_27\n      jumpi\n      0x00\n      dup1\n      revert\n    tag_27:\n      pop\n      tag_28\n      tag_29\n      jump\t// in\n    tag_28:\n      mload(0x40)\n      tag_30\n      swap2\n      swap1\n      tag_31\n      jump\t// in\n    tag_30:\n      mload(0x40)\n      dup1\n      swap2\n      sub\n      swap1\n      return\n        /* \"AssetTransactions.sol\":859:1216  function sellAsset(uint256 amount) public {... */\n    tag_4:\n      callvalue\n      dup1\n      iszero\n      tag_32\n      jumpi\n      0x00\n      dup1\n      revert\n    tag_32:\n      pop\n      tag_33\n      0x04\n      dup1\n      calldatasize\n      sub\n      dup2\n      add\n      swap1\n      tag_34\n      swap2\n      swap1\n      tag_35\n      jump\t// in\n    tag_34:\n      tag_36\n      jump\t// in\n    tag_33:\n      stop\n        /* \"TokeniseAsset.sol\":347:373  uint256 public totalSupply */\n    tag_5:\n      callvalue\n      dup1\n      iszero\n      tag_37\n      jumpi\n      0x00\n      dup1\n      revert\n    tag_37:\n      pop\n      tag_38\n      tag_39\n      jump\t// in\n    tag_38:\n      mload(0x40)\n      tag_40\n      swap2\n      swap1\n      tag_41\n      jump\t// in\n    tag_40:\n      mload(0x40)\n      dup1\n      swap2\n      sub\n      swap1\n      return\n        /* \"AssetTransactions.sol\":1222:1322  function setAssetPrice(uint256 _newPrice) public onlyCreator {... */\n    tag_6:\n      callvalue\n      dup1\n      iszero\n      tag_42\n      jumpi\n      0x00\n      dup1\n      revert\n    tag_42:\n      pop\n      tag_43\n      0x04\n      dup1\n      calldatasize\n      sub\n      dup2\n      add\n      swap1\n      tag_44\n      swap2\n      swap1\n      tag_35\n      jump\t// in\n    tag_44:\n      tag_45\n      jump\t// in\n    tag_43:\n      stop\n        /* \"TokeniseAsset.sol\":315:341  uint8 public decimals = 18 */\n    tag_7:\n      callvalue\n      dup1\n      iszero\n      tag_46\n      jumpi\n      0x00\n      dup1\n      revert\n    tag_46:\n      pop\n      tag_47\n      tag_48\n      jump\t// in\n    tag_47:\n      mload(0x40)\n      tag_49\n      swap2\n      swap1\n      tag_50\n      jump\t// in\n    tag_49:\n      mload(0x40)\n      dup1\n      swap2\n      sub\n      swap1\n      return\n        /* \"TokeniseAsset.sol\":788:1037  function mint(address to, uint256 amount) public onlyCreator {... */\n    tag_8:\n      callvalue\n      dup1\n      iszero\n      tag_51\n      jumpi\n      0x00\n      dup1\n      revert\n    tag_51:\n      pop\n      tag_52\n      0x04\n      dup1\n      calldatasize\n      sub\n      dup2\n      add\n      swap1\n      tag_53\n      swap2\n      swap1\n      tag_54\n      jump\t// in\n    tag_53:\n      tag_55\n      jump\t// in\n    tag_52:\n      stop\n        /* \"TokeniseAsset.sol\":380:424  mapping(address => uint256) public balanceOf */\n    tag_9:\n      callvalue\n      dup1\n      iszero\n      tag_56\n      jumpi\n      0x00\n      dup1\n      revert\n    tag_56:\n      pop\n      tag_57\n      0x04\n      dup1\n      calldatasize\n      sub\n      dup2\n      add\n      swap1\n      tag_58\n      swap2\n      swap1\n      tag_59\n      jump\t// in\n    tag_58:\n      tag_60\n      jump\t// in\n    tag_57:\n      mload(0x40)\n      tag_61\n      swap2\n      swap1\n      tag_41\n      jump\t// in\n    tag_61:\n      mload(0x40)\n      dup1\n      swap2\n      sub\n      swap1\n      return\n        /* \"TokeniseAsset.sol\":281:309  string public symbol = \"FAT\" */\n    tag_10:\n      callvalue\n      dup1\n      iszero\n      tag_62\n      jumpi\n      0x00\n      dup1\n      revert\n    tag_62:\n      pop\n      tag_63\n      tag_64\n      jump\t// in\n    tag_63:\n      mload(0x40)\n      tag_65\n      swap2\n      swap1\n      tag_31\n      jump\t// in\n    tag_65:\n      mload(0x40)\n      dup1\n      swap2\n      sub\n      swap1\n      return\n        /* \"AssetTransactions.sol\":589:853  function purchaseAsset(uint256 amount) public payable {... */\n    tag_11:\n      tag_66\n      0x04\n      dup1\n      calldatasize\n      sub\n      dup2\n      add\n      swap1\n      tag_67\n      swap2\n      swap1\n      tag_35\n      jump\t// in\n    tag_67:\n      tag_68\n      jump\t// in\n    tag_66:\n      stop\n        /* \"TokeniseAsset.sol\":1043:1355  function transfer(address recipient, uint256 amount) public returns (bool) {... */\n    tag_12:\n      callvalue\n      dup1\n      iszero\n      tag_69\n      jumpi\n      0x00\n      dup1\n      revert\n    tag_69:\n      pop\n      tag_70\n      0x04\n      dup1\n      calldatasize\n      sub\n      dup2\n      add\n      swap1\n      tag_71\n      swap2\n      swap1\n      tag_54\n      jump\t// in\n    tag_71:\n      tag_72\n      jump\t// in\n    tag_70:\n      mload(0x40)\n      tag_73\n      swap2\n      swap1\n      tag_74\n      jump\t// in\n    tag_73:\n      mload(0x40)\n      dup1\n      swap2\n      sub\n      swap1\n      return\n        /* \"DefineAsset.sol\":129:152  string public gameTitle */\n    tag_13:\n      callvalue\n      dup1\n      iszero\n      tag_75\n      jumpi\n      0x00\n      dup1\n      revert\n    tag_75:\n      pop\n      tag_76\n      tag_77\n      jump\t// in\n    tag_76:\n      mload(0x40)\n      tag_78\n      swap2\n      swap1\n      tag_31\n      jump\t// in\n    tag_78:\n      mload(0x40)\n      dup1\n      swap2\n      sub\n      swap1\n      return\n        /* \"DefineAsset.sol\":192:216  string public gameSystem */\n    tag_14:\n      callvalue\n      dup1\n      iszero\n      tag_79\n      jumpi\n      0x00\n      dup1\n      revert\n    tag_79:\n      pop\n      tag_80\n      tag_81\n      jump\t// in\n    tag_80:\n      mload(0x40)\n      tag_82\n      swap2\n      swap1\n      tag_31\n      jump\t// in\n    tag_82:\n      mload(0x40)\n      dup1\n      swap2\n      sub\n      swap1\n      return\n        /* \"AssetTransactions.sol\":182:207  uint256 public assetPrice */\n    tag_15:\n      callvalue\n      dup1\n      iszero\n      tag_83\n      jumpi\n      0x00\n      dup1\n      revert\n    tag_83:\n      pop\n      tag_84\n      tag_85\n      jump\t// in\n    tag_84:\n      mload(0x40)\n      tag_86\n      swap2\n      swap1\n      tag_41\n      jump\t// in\n    tag_86:\n      mload(0x40)\n      dup1\n      swap2\n      sub\n      swap1\n      return\n        /* \"TokeniseAsset.sol\":430:494  mapping(address => mapping(address => uint256)) public allowance */\n    tag_16:\n      callvalue\n      dup1\n      iszero\n      tag_87\n      jumpi\n      0x00\n      dup1\n      revert\n    tag_87:\n      pop\n      tag_88\n      0x04\n      dup1\n      calldatasize\n      sub\n      dup2\n      add\n      swap1\n      tag_89\n      swap2\n      swap1\n      tag_90\n      jump\t// in\n    tag_89:\n      tag_91\n      jump\t// in\n    tag_88:\n      mload(0x40)\n      tag_92\n      swap2\n      swap1\n      tag_41\n      jump\t// in\n    tag_92:\n      mload(0x40)\n      dup1\n      swap2\n      sub\n      swap1\n      return\n        /* \"DefineAsset.sol\":159:185  int public gameReleaseYear */\n    tag_17:\n      callvalue\n      dup1\n      iszero\n      tag_93\n      jumpi\n      0x00\n      dup1\n      revert\n    tag_93:\n      pop\n      tag_94\n      tag_95\n      jump\t// in\n    tag_94:\n      mload(0x40)\n      tag_96\n      swap2\n      swap1\n      tag_97\n      jump\t// in\n    tag_96:\n      mload(0x40)\n      dup1\n      swap2\n      sub\n      swap1\n      return\n        /* \"AssetTransactions.sol\":213:263  mapping(address => uint256) public purchaseHistory */\n    tag_18:\n      callvalue\n      dup1\n      iszero\n      tag_98\n      jumpi\n      0x00\n      dup1\n      revert\n    tag_98:\n      pop\n      tag_99\n      0x04\n      dup1\n      calldatasize\n      sub\n      dup2\n      add\n      swap1\n      tag_100\n      swap2\n      swap1\n      tag_59\n      jump\t// in\n    tag_100:\n      tag_101\n      jump\t// in\n    tag_99:\n      mload(0x40)\n      tag_102\n      swap2\n      swap1\n      tag_41\n      jump\t// in\n    tag_102:\n      mload(0x40)\n      dup1\n      swap2\n      sub\n      swap1\n      return\n        /* \"DefineAsset.sol\":223:245  address public creator */\n    tag_24:\n      0x03\n      0x00\n      swap1\n      sload\n      swap1\n      0x0100\n      exp\n      swap1\n      div\n      0xffffffffffffffffffffffffffffffffffffffff\n      and\n      dup2\n      jump\t// out\n        /* \"TokeniseAsset.sol\":232:275  string public name = \"FractionalAssetToken\" */\n    tag_29:\n      0x04\n      dup1\n      sload\n      tag_103\n      swap1\n      tag_104\n      jump\t// in\n    tag_103:\n      dup1\n      0x1f\n      add\n      0x20\n      dup1\n      swap2\n      div\n      mul\n      0x20\n      add\n      mload(0x40)\n      swap1\n      dup2\n      add\n      0x40\n      mstore\n      dup1\n      swap3\n      swap2\n      swap1\n      dup2\n      dup2\n      mstore\n      0x20\n      add\n      dup3\n      dup1\n      sload\n      tag_105\n      swap1\n      tag_104\n      jump\t// in\n    tag_105:\n      dup1\n      iszero\n      tag_106\n      jumpi\n      dup1\n      0x1f\n      lt\n      tag_107\n      jumpi\n      0x0100\n      dup1\n      dup4\n      sload\n      div\n      mul\n      dup4\n      mstore\n      swap2\n      0x20\n      add\n      swap2\n      jump(tag_106)\n    tag_107:\n      dup3\n      add\n      swap2\n      swap1\n      0x00\n      mstore\n      keccak256(0x00, 0x20)\n      swap1\n    tag_108:\n      dup2\n      sload\n      dup2\n      mstore\n      swap1\n      0x01\n      add\n      swap1\n      0x20\n      add\n      dup1\n      dup4\n      gt\n      tag_108\n      jumpi\n      dup3\n      swap1\n      sub\n      0x1f\n      and\n      dup3\n      add\n      swap2\n    tag_106:\n      pop\n      pop\n      pop\n      pop\n      pop\n      dup2\n      jump\t// out\n        /* \"AssetTransactions.sol\":859:1216  function sellAsset(uint256 amount) public {... */\n    tag_36:\n        /* \"AssetTransactions.sol\":944:950  amount */\n      dup1\n        /* \"AssetTransactions.sol\":919:928  balanceOf */\n      0x08\n        /* \"AssetTransactions.sol\":919:940  balanceOf[msg.sender] */\n      0x00\n        /* \"AssetTransactions.sol\":929:939  msg.sender */\n      caller\n        /* \"AssetTransactions.sol\":919:940  balanceOf[msg.sender] */\n      0xffffffffffffffffffffffffffffffffffffffff\n      and\n      0xffffffffffffffffffffffffffffffffffffffff\n      and\n      dup2\n      mstore\n      0x20\n      add\n      swap1\n      dup2\n      mstore\n      0x20\n      add\n      0x00\n      keccak256\n      sload\n        /* \"AssetTransactions.sol\":919:950  balanceOf[msg.sender] >= amount */\n      lt\n      iszero\n        /* \"AssetTransactions.sol\":911:983  require(balanceOf[msg.sender] >= amount, \"Insufficient balance to sell\") */\n      tag_110\n      jumpi\n      mload(0x40)\n      0x08c379a000000000000000000000000000000000000000000000000000000000\n      dup2\n      mstore\n      0x04\n      add\n      tag_111\n      swap1\n      tag_112\n      jump\t// in\n    tag_111:\n      mload(0x40)\n      dup1\n      swap2\n      sub\n      swap1\n      revert\n    tag_110:\n        /* \"AssetTransactions.sol\":993:1016  uint256 valueToTransfer */\n      0x00\n        /* \"AssetTransactions.sol\":1032:1038  amount */\n      dup2\n        /* \"AssetTransactions.sol\":1019:1029  assetPrice */\n      sload(0x0a)\n        /* \"AssetTransactions.sol\":1019:1038  assetPrice * amount */\n      tag_113\n      swap2\n      swap1\n      tag_114\n      jump\t// in\n    tag_113:\n        /* \"AssetTransactions.sol\":993:1038  uint256 valueToTransfer = assetPrice * amount */\n      swap1\n      pop\n        /* \"AssetTransactions.sol\":1056:1066  msg.sender */\n      caller\n        /* \"AssetTransactions.sol\":1048:1076  payable(msg.sender).transfer */\n      0xffffffffffffffffffffffffffffffffffffffff\n      and\n        /* \"AssetTransactions.sol\":1048:1093  payable(msg.sender).transfer(valueToTransfer) */\n      0x08fc\n        /* \"AssetTransactions.sol\":1077:1092  valueToTransfer */\n      dup3\n        /* \"AssetTransactions.sol\":1048:1093  payable(msg.sender).transfer(valueToTransfer) */\n      swap1\n      dup2\n      iszero\n      mul\n      swap1\n      mload(0x40)\n      0x00\n      mload(0x40)\n      dup1\n      dup4\n      sub\n      dup2\n      dup6\n      dup9\n      dup9\n      call\n      swap4\n      pop\n      pop\n      pop\n      pop\n      iszero\n      dup1\n      iszero\n      tag_116\n      jumpi\n      returndatasize\n      0x00\n      dup1\n      returndatacopy\n      revert(0x00, returndatasize)\n    tag_116:\n      pop\n        /* \"AssetTransactions.sol\":1128:1134  amount */\n      dup2\n        /* \"AssetTransactions.sol\":1103:1112  balanceOf */\n      0x08\n        /* \"AssetTransactions.sol\":1103:1124  balanceOf[msg.sender] */\n      0x00\n        /* \"AssetTransactions.sol\":1113:1123  msg.sender */\n      caller\n        /* \"AssetTransactions.sol\":1103:1124  balanceOf[msg.sender] */\n      0xffffffffffffffffffffffffffffffffffffffff\n      and\n      0xffffffffffffffffffffffffffffffffffffffff\n      and\n      dup2\n      mstore\n      0x20\n      add\n      swap1\n      dup2\n      mstore\n      0x20\n      add\n      0x00\n      keccak256\n      0x00\n        /* \"AssetTransactions.sol\":1103:1134  balanceOf[msg.sender] -= amount */\n      dup3\n      dup3\n      sload\n      tag_117\n      swap2\n      swap1\n      tag_118\n      jump\t// in\n    tag_117:\n      swap3\n      pop\n      pop\n      dup2\n      swap1\n      sstore\n      pop\n        /* \"AssetTransactions.sol\":1159:1165  amount */\n      dup2\n        /* \"AssetTransactions.sol\":1144:1155  totalSupply */\n      0x07\n      0x00\n        /* \"AssetTransactions.sol\":1144:1165  totalSupply -= amount */\n      dup3\n      dup3\n      sload\n      tag_119\n      swap2\n      swap1\n      tag_118\n      jump\t// in\n    tag_119:\n      swap3\n      pop\n      pop\n      dup2\n      swap1\n      sstore\n      pop\n        /* \"AssetTransactions.sol\":1190:1200  msg.sender */\n      caller\n        /* \"AssetTransactions.sol\":1180:1209  AssetSold(msg.sender, amount) */\n      0xffffffffffffffffffffffffffffffffffffffff\n      and\n      0x11228197cb47986d326f6c795b48b26c7bc662ab55f470bf5ee2ad68f4064594\n        /* \"AssetTransactions.sol\":1202:1208  amount */\n      dup4\n        /* \"AssetTransactions.sol\":1180:1209  AssetSold(msg.sender, amount) */\n      mload(0x40)\n      tag_120\n      swap2\n      swap1\n      tag_41\n      jump\t// in\n    tag_120:\n      mload(0x40)\n      dup1\n      swap2\n      sub\n      swap1\n      log2\n        /* \"AssetTransactions.sol\":901:1216  {... */\n      pop\n        /* \"AssetTransactions.sol\":859:1216  function sellAsset(uint256 amount) public {... */\n      pop\n      jump\t// out\n        /* \"TokeniseAsset.sol\":347:373  uint256 public totalSupply */\n    tag_39:\n      sload(0x07)\n      dup2\n      jump\t// out\n        /* \"AssetTransactions.sol\":1222:1322  function setAssetPrice(uint256 _newPrice) public onlyCreator {... */\n    tag_45:\n        /* \"DefineAsset.sol\":694:701  creator */\n      0x03\n      0x00\n      swap1\n      sload\n      swap1\n      0x0100\n      exp\n      swap1\n      div\n      0xffffffffffffffffffffffffffffffffffffffff\n      and\n        /* \"DefineAsset.sol\":680:701  msg.sender == creator */\n      0xffffffffffffffffffffffffffffffffffffffff\n      and\n        /* \"DefineAsset.sol\":680:690  msg.sender */\n      caller\n        /* \"DefineAsset.sol\":680:701  msg.sender == creator */\n      0xffffffffffffffffffffffffffffffffffffffff\n      and\n      eq\n        /* \"DefineAsset.sol\":672:746  require(msg.sender == creator, \"Only the creator can perform this action\") */\n      tag_122\n      jumpi\n      mload(0x40)\n      0x08c379a000000000000000000000000000000000000000000000000000000000\n      dup2\n      mstore\n      0x04\n      add\n      tag_123\n      swap1\n      tag_124\n      jump\t// in\n    tag_123:\n      mload(0x40)\n      dup1\n      swap2\n      sub\n      swap1\n      revert\n    tag_122:\n        /* \"AssetTransactions.sol\":1306:1315  _newPrice */\n      dup1\n        /* \"AssetTransactions.sol\":1293:1303  assetPrice */\n      0x0a\n        /* \"AssetTransactions.sol\":1293:1315  assetPrice = _newPrice */\n      dup2\n      swap1\n      sstore\n      pop\n        /* \"AssetTransactions.sol\":1222:1322  function setAssetPrice(uint256 _newPrice) public onlyCreator {... */\n      pop\n      jump\t// out\n        /* \"TokeniseAsset.sol\":315:341  uint8 public decimals = 18 */\n    tag_48:\n      0x06\n      0x00\n      swap1\n      sload\n      swap1\n      0x0100\n      exp\n      swap1\n      div\n      0xff\n      and\n      dup2\n      jump\t// out\n        /* \"TokeniseAsset.sol\":788:1037  function mint(address to, uint256 amount) public onlyCreator {... */\n    tag_55:\n        /* \"DefineAsset.sol\":694:701  creator */\n      0x03\n      0x00\n      swap1\n      sload\n      swap1\n      0x0100\n      exp\n      swap1\n      div\n      0xffffffffffffffffffffffffffffffffffffffff\n      and\n        /* \"DefineAsset.sol\":680:701  msg.sender == creator */\n      0xffffffffffffffffffffffffffffffffffffffff\n      and\n        /* \"DefineAsset.sol\":680:690  msg.sender */\n      caller\n        /* \"DefineAsset.sol\":680:701  msg.sender == creator */\n      0xffffffffffffffffffffffffffffffffffffffff\n      and\n      eq\n        /* \"DefineAsset.sol\":672:746  require(msg.sender == creator, \"Only the creator can perform this action\") */\n      tag_127\n      jumpi\n      mload(0x40)\n      0x08c379a000000000000000000000000000000000000000000000000000000000\n      dup2\n      mstore\n      0x04\n      add\n      tag_128\n      swap1\n      tag_124\n      jump\t// in\n    tag_128:\n      mload(0x40)\n      dup1\n      swap2\n      sub\n      swap1\n      revert\n    tag_127:\n        /* \"TokeniseAsset.sol\":881:882  0 */\n      0x00\n        /* \"TokeniseAsset.sol\":867:883  to != address(0) */\n      0xffffffffffffffffffffffffffffffffffffffff\n      and\n        /* \"TokeniseAsset.sol\":867:869  to */\n      dup3\n        /* \"TokeniseAsset.sol\":867:883  to != address(0) */\n      0xffffffffffffffffffffffffffffffffffffffff\n      and\n      sub\n        /* \"TokeniseAsset.sol\":859:919  require(to != address(0), \"Cannot mint to the zero address\") */\n      tag_130\n      jumpi\n      mload(0x40)\n      0x08c379a000000000000000000000000000000000000000000000000000000000\n      dup2\n      mstore\n      0x04\n      add\n      tag_131\n      swap1\n      tag_132\n      jump\t// in\n    tag_131:\n      mload(0x40)\n      dup1\n      swap2\n      sub\n      swap1\n      revert\n    tag_130:\n        /* \"TokeniseAsset.sol\":944:950  amount */\n      dup1\n        /* \"TokeniseAsset.sol\":929:940  totalSupply */\n      0x07\n      0x00\n        /* \"TokeniseAsset.sol\":929:950  totalSupply += amount */\n      dup3\n      dup3\n      sload\n      tag_133\n      swap2\n      swap1\n      tag_134\n      jump\t// in\n    tag_133:\n      swap3\n      pop\n      pop\n      dup2\n      swap1\n      sstore\n      pop\n        /* \"TokeniseAsset.sol\":977:983  amount */\n      dup1\n        /* \"TokeniseAsset.sol\":960:969  balanceOf */\n      0x08\n        /* \"TokeniseAsset.sol\":960:973  balanceOf[to] */\n      0x00\n        /* \"TokeniseAsset.sol\":970:972  to */\n      dup5\n        /* \"TokeniseAsset.sol\":960:973  balanceOf[to] */\n      0xffffffffffffffffffffffffffffffffffffffff\n      and\n      0xffffffffffffffffffffffffffffffffffffffff\n      and\n      dup2\n      mstore\n      0x20\n      add\n      swap1\n      dup2\n      mstore\n      0x20\n      add\n      0x00\n      keccak256\n      0x00\n        /* \"TokeniseAsset.sol\":960:983  balanceOf[to] += amount */\n      dup3\n      dup3\n      sload\n      tag_135\n      swap2\n      swap1\n      tag_134\n      jump\t// in\n    tag_135:\n      swap3\n      pop\n      pop\n      dup2\n      swap1\n      sstore\n      pop\n        /* \"TokeniseAsset.sol\":1019:1021  to */\n      dup2\n        /* \"TokeniseAsset.sol\":998:1030  Transfer(address(0), to, amount) */\n      0xffffffffffffffffffffffffffffffffffffffff\n      and\n        /* \"TokeniseAsset.sol\":1015:1016  0 */\n      0x00\n        /* \"TokeniseAsset.sol\":998:1030  Transfer(address(0), to, amount) */\n      0xffffffffffffffffffffffffffffffffffffffff\n      and\n      0xddf252ad1be2c89b69c2b068fc378daa952ba7f163c4a11628f55a4df523b3ef\n        /* \"TokeniseAsset.sol\":1023:1029  amount */\n      dup4\n        /* \"TokeniseAsset.sol\":998:1030  Transfer(address(0), to, amount) */\n      mload(0x40)\n      tag_136\n      swap2\n      swap1\n      tag_41\n      jump\t// in\n    tag_136:\n      mload(0x40)\n      dup1\n      swap2\n      sub\n      swap1\n      log3\n        /* \"TokeniseAsset.sol\":788:1037  function mint(address to, uint256 amount) public onlyCreator {... */\n      pop\n      pop\n      jump\t// out\n        /* \"TokeniseAsset.sol\":380:424  mapping(address => uint256) public balanceOf */\n    tag_60:\n      mstore(0x20, 0x08)\n      dup1\n      0x00\n      mstore\n      keccak256(0x00, 0x40)\n      0x00\n      swap2\n      pop\n      swap1\n      pop\n      sload\n      dup2\n      jump\t// out\n        /* \"TokeniseAsset.sol\":281:309  string public symbol = \"FAT\" */\n    tag_64:\n      0x05\n      dup1\n      sload\n      tag_137\n      swap1\n      tag_104\n      jump\t// in\n    tag_137:\n      dup1\n      0x1f\n      add\n      0x20\n      dup1\n      swap2\n      div\n      mul\n      0x20\n      add\n      mload(0x40)\n      swap1\n      dup2\n      add\n      0x40\n      mstore\n      dup1\n      swap3\n      swap2\n      swap1\n      dup2\n      dup2\n      mstore\n      0x20\n      add\n      dup3\n      dup1\n      sload\n      tag_138\n      swap1\n      tag_104\n      jump\t// in\n    tag_138:\n      dup1\n      iszero\n      tag_139\n      jumpi\n      dup1\n      0x1f\n      lt\n      tag_140\n      jumpi\n      0x0100\n      dup1\n      dup4\n      sload\n      div\n      mul\n      dup4\n      mstore\n      swap2\n      0x20\n      add\n      swap2\n      jump(tag_139)\n    tag_140:\n      dup3\n      add\n      swap2\n      swap1\n      0x00\n      mstore\n      keccak256(0x00, 0x20)\n      swap1\n    tag_141:\n      dup2\n      sload\n      dup2\n      mstore\n      swap1\n      0x01\n      add\n      swap1\n      0x20\n      add\n      dup1\n      dup4\n      gt\n      tag_141\n      jumpi\n      dup3\n      swap1\n      sub\n      0x1f\n      and\n      dup3\n      add\n      swap2\n    tag_139:\n      pop\n      pop\n      pop\n      pop\n      pop\n      dup2\n      jump\t// out\n        /* \"AssetTransactions.sol\":589:853  function purchaseAsset(uint256 amount) public payable {... */\n    tag_68:\n        /* \"AssetTransactions.sol\":687:693  amount */\n      dup1\n        /* \"AssetTransactions.sol\":674:684  assetPrice */\n      sload(0x0a)\n        /* \"AssetTransactions.sol\":674:693  assetPrice * amount */\n      tag_143\n      swap2\n      swap1\n      tag_114\n      jump\t// in\n    tag_143:\n        /* \"AssetTransactions.sol\":661:670  msg.value */\n      callvalue\n        /* \"AssetTransactions.sol\":661:693  msg.value == assetPrice * amount */\n      eq\n        /* \"AssetTransactions.sol\":653:716  require(msg.value == assetPrice * amount, \"Incorrect ETH sent\") */\n      tag_144\n      jumpi\n      mload(0x40)\n      0x08c379a000000000000000000000000000000000000000000000000000000000\n      dup2\n      mstore\n      0x04\n      add\n      tag_145\n      swap1\n      tag_146\n      jump\t// in\n    tag_145:\n      mload(0x40)\n      dup1\n      swap2\n      sub\n      swap1\n      revert\n    tag_144:\n        /* \"AssetTransactions.sol\":726:750  mint(msg.sender, amount) */\n      tag_147\n        /* \"AssetTransactions.sol\":731:741  msg.sender */\n      caller\n        /* \"AssetTransactions.sol\":743:749  amount */\n      dup3\n        /* \"AssetTransactions.sol\":726:730  mint */\n      tag_55\n        /* \"AssetTransactions.sol\":726:750  mint(msg.sender, amount) */\n      jump\t// in\n    tag_147:\n        /* \"AssetTransactions.sol\":791:797  amount */\n      dup1\n        /* \"AssetTransactions.sol\":760:775  purchaseHistory */\n      0x0b\n        /* \"AssetTransactions.sol\":760:787  purchaseHistory[msg.sender] */\n      0x00\n        /* \"AssetTransactions.sol\":776:786  msg.sender */\n      caller\n        /* \"AssetTransactions.sol\":760:787  purchaseHistory[msg.sender] */\n      0xffffffffffffffffffffffffffffffffffffffff\n      and\n      0xffffffffffffffffffffffffffffffffffffffff\n      and\n      dup2\n      mstore\n      0x20\n      add\n      swap1\n      dup2\n      mstore\n      0x20\n      add\n      0x00\n      keccak256\n      0x00\n        /* \"AssetTransactions.sol\":760:797  purchaseHistory[msg.sender] += amount */\n      dup3\n      dup3\n      sload\n      tag_148\n      swap2\n      swap1\n      tag_134\n      jump\t// in\n    tag_148:\n      swap3\n      pop\n      pop\n      dup2\n      swap1\n      sstore\n      pop\n        /* \"AssetTransactions.sol\":827:837  msg.sender */\n      caller\n        /* \"AssetTransactions.sol\":812:846  AssetPurchased(msg.sender, amount) */\n      0xffffffffffffffffffffffffffffffffffffffff\n      and\n      0x42269b09224b40f0b303d85790b3f28f1f7eacbb8b6143bff10a541a559e499b\n        /* \"AssetTransactions.sol\":839:845  amount */\n      dup3\n        /* \"AssetTransactions.sol\":812:846  AssetPurchased(msg.sender, amount) */\n      mload(0x40)\n      tag_149\n      swap2\n      swap1\n      tag_41\n      jump\t// in\n    tag_149:\n      mload(0x40)\n      dup1\n      swap2\n      sub\n      swap1\n      log2\n        /* \"AssetTransactions.sol\":589:853  function purchaseAsset(uint256 amount) public payable {... */\n      pop\n      jump\t// out\n        /* \"TokeniseAsset.sol\":1043:1355  function transfer(address recipient, uint256 amount) public returns (bool) {... */\n    tag_72:\n        /* \"TokeniseAsset.sol\":1112:1116  bool */\n      0x00\n        /* \"TokeniseAsset.sol\":1161:1167  amount */\n      dup2\n        /* \"TokeniseAsset.sol\":1136:1145  balanceOf */\n      0x08\n        /* \"TokeniseAsset.sol\":1136:1157  balanceOf[msg.sender] */\n      0x00\n        /* \"TokeniseAsset.sol\":1146:1156  msg.sender */\n      caller\n        /* \"TokeniseAsset.sol\":1136:1157  balanceOf[msg.sender] */\n      0xffffffffffffffffffffffffffffffffffffffff\n      and\n      0xffffffffffffffffffffffffffffffffffffffff\n      and\n      dup2\n      mstore\n      0x20\n      add\n      swap1\n      dup2\n      mstore\n      0x20\n      add\n      0x00\n      keccak256\n      sload\n        /* \"TokeniseAsset.sol\":1136:1167  balanceOf[msg.sender] >= amount */\n      lt\n      iszero\n        /* \"TokeniseAsset.sol\":1128:1192  require(balanceOf[msg.sender] >= amount, \"Insufficient balance\") */\n      tag_151\n      jumpi\n      mload(0x40)\n      0x08c379a000000000000000000000000000000000000000000000000000000000\n      dup2\n      mstore\n      0x04\n      add\n      tag_152\n      swap1\n      tag_153\n      jump\t// in\n    tag_152:\n      mload(0x40)\n      dup1\n      swap2\n      sub\n      swap1\n      revert\n    tag_151:\n        /* \"TokeniseAsset.sol\":1227:1233  amount */\n      dup2\n        /* \"TokeniseAsset.sol\":1202:1211  balanceOf */\n      0x08\n        /* \"TokeniseAsset.sol\":1202:1223  balanceOf[msg.sender] */\n      0x00\n        /* \"TokeniseAsset.sol\":1212:1222  msg.sender */\n      caller\n        /* \"TokeniseAsset.sol\":1202:1223  balanceOf[msg.sender] */\n      0xffffffffffffffffffffffffffffffffffffffff\n      and\n      0xffffffffffffffffffffffffffffffffffffffff\n      and\n      dup2\n      mstore\n      0x20\n      add\n      swap1\n      dup2\n      mstore\n      0x20\n      add\n      0x00\n      keccak256\n      0x00\n        /* \"TokeniseAsset.sol\":1202:1233  balanceOf[msg.sender] -= amount */\n      dup3\n      dup3\n      sload\n      tag_154\n      swap2\n      swap1\n      tag_118\n      jump\t// in\n    tag_154:\n      swap3\n      pop\n      pop\n      dup2\n      swap1\n      sstore\n      pop\n        /* \"TokeniseAsset.sol\":1267:1273  amount */\n      dup2\n        /* \"TokeniseAsset.sol\":1243:1252  balanceOf */\n      0x08\n        /* \"TokeniseAsset.sol\":1243:1263  balanceOf[recipient] */\n      0x00\n        /* \"TokeniseAsset.sol\":1253:1262  recipient */\n      dup6\n        /* \"TokeniseAsset.sol\":1243:1263  balanceOf[recipient] */\n      0xffffffffffffffffffffffffffffffffffffffff\n      and\n      0xffffffffffffffffffffffffffffffffffffffff\n      and\n      dup2\n      mstore\n      0x20\n      add\n      swap1\n      dup2\n      mstore\n      0x20\n      add\n      0x00\n      keccak256\n      0x00\n        /* \"TokeniseAsset.sol\":1243:1273  balanceOf[recipient] += amount */\n      dup3\n      dup3\n      sload\n      tag_155\n      swap2\n      swap1\n      tag_134\n      jump\t// in\n    tag_155:\n      swap3\n      pop\n      pop\n      dup2\n      swap1\n      sstore\n      pop\n        /* \"TokeniseAsset.sol\":1309:1318  recipient */\n      dup3\n        /* \"TokeniseAsset.sol\":1288:1327  Transfer(msg.sender, recipient, amount) */\n      0xffffffffffffffffffffffffffffffffffffffff\n      and\n        /* \"TokeniseAsset.sol\":1297:1307  msg.sender */\n      caller\n        /* \"TokeniseAsset.sol\":1288:1327  Transfer(msg.sender, recipient, amount) */\n      0xffffffffffffffffffffffffffffffffffffffff\n      and\n      0xddf252ad1be2c89b69c2b068fc378daa952ba7f163c4a11628f55a4df523b3ef\n        /* \"TokeniseAsset.sol\":1320:1326  amount */\n      dup5\n        /* \"TokeniseAsset.sol\":1288:1327  Transfer(msg.sender, recipient, amount) */\n      mload(0x40)\n      tag_156\n      swap2\n      swap1\n      tag_41\n      jump\t// in\n    tag_156:\n      mload(0x40)\n      dup1\n      swap2\n      sub\n      swap1\n      log3\n        /* \"TokeniseAsset.sol\":1344:1348  true */\n      0x01\n        /* \"TokeniseAsset.sol\":1337:1348  return true */\n      swap1\n      pop\n        /* \"TokeniseAsset.sol\":1043:1355  function transfer(address recipient, uint256 amount) public returns (bool) {... */\n      swap3\n      swap2\n      pop\n      pop\n      jump\t// out\n        /* \"DefineAsset.sol\":129:152  string public gameTitle */\n    tag_77:\n      0x00\n      dup1\n      sload\n      tag_157\n      swap1\n      tag_104\n      jump\t// in\n    tag_157:\n      dup1\n      0x1f\n      add\n      0x20\n      dup1\n      swap2\n      div\n      mul\n      0x20\n      add\n      mload(0x40)\n      swap1\n      dup2\n      add\n      0x40\n      mstore\n      dup1\n      swap3\n      swap2\n      swap1\n      dup2\n      dup2\n      mstore\n      0x20\n      add\n      dup3\n      dup1\n      sload\n      tag_158\n      swap1\n      tag_104\n      jump\t// in\n    tag_158:\n      dup1\n      iszero\n      tag_159\n      jumpi\n      dup1\n      0x1f\n      lt\n      tag_160\n      jumpi\n      0x0100\n      dup1\n      dup4\n      sload\n      div\n      mul\n      dup4\n      mstore\n      swap2\n      0x20\n      add\n      swap2\n      jump(tag_159)\n    tag_160:\n      dup3\n      add\n      swap2\n      swap1\n      0x00\n      mstore\n      keccak256(0x00, 0x20)\n      swap1\n    tag_161:\n      dup2\n      sload\n      dup2\n      mstore\n      swap1\n      0x01\n      add\n      swap1\n      0x20\n      add\n      dup1\n      dup4\n      gt\n      tag_161\n      jumpi\n      dup3\n      swap1\n      sub\n      0x1f\n      and\n      dup3\n      add\n      swap2\n    tag_159:\n      pop\n      pop\n      pop\n      pop\n      pop\n      dup2\n      jump\t// out\n        /* \"DefineAsset.sol\":192:216  string public gameSystem */\n    tag_81:\n      0x02\n      dup1\n      sload\n      tag_162\n      swap1\n      tag_104\n      jump\t// in\n    tag_162:\n      dup1\n      0x1f\n      add\n      0x20\n      dup1\n      swap2\n      div\n      mul\n      0x20\n      add\n      mload(0x40)\n      swap1\n      dup2\n      add\n      0x40\n      mstore\n      dup1\n      swap3\n      swap2\n      swap1\n      dup2\n      dup2\n      mstore\n      0x20\n      add\n      dup3\n      dup1\n      sload\n      tag_163\n      swap1\n      tag_104\n      jump\t// in\n    tag_163:\n      dup1\n      iszero\n      tag_164\n      jumpi\n      dup1\n      0x1f\n      lt\n      tag_165\n      jumpi\n      0x0100\n      dup1\n      dup4\n      sload\n      div\n      mul\n      dup4\n      mstore\n      swap2\n      0x20\n      add\n      swap2\n      jump(tag_164)\n    tag_165:\n      dup3\n      add\n      swap2\n      swap1\n      0x00\n      mstore\n      keccak256(0x00, 0x20)\n      swap1\n    tag_166:\n      dup2\n      sload\n      dup2\n      mstore\n      swap1\n      0x01\n      add\n      swap1\n      0x20\n      add\n      dup1\n      dup4\n      gt\n      tag_166\n      jumpi\n      dup3\n      swap1\n      sub\n      0x1f\n      and\n      dup3\n      add\n      swap2\n    tag_164:\n      pop\n      pop\n      pop\n      pop\n      pop\n      dup2\n      jump\t// out\n        /* \"AssetTransactions.sol\":182:207  uint256 public assetPrice */\n    tag_85:\n      sload(0x0a)\n      dup2\n      jump\t// out\n        /* \"TokeniseAsset.sol\":430:494  mapping(address => mapping(address => uint256)) public allowance */\n    tag_91:\n      mstore(0x20, 0x09)\n      dup2\n      0x00\n      mstore\n      mstore(0x20, keccak256(0x00, 0x40))\n      dup1\n      0x00\n      mstore\n      keccak256(0x00, 0x40)\n      0x00\n      swap2\n      pop\n      swap2\n      pop\n      pop\n      sload\n      dup2\n      jump\t// out\n        /* \"DefineAsset.sol\":159:185  int public gameReleaseYear */\n    tag_95:\n      sload(0x01)\n      dup2\n      jump\t// out\n        /* \"AssetTransactions.sol\":213:263  mapping(address => uint256) public purchaseHistory */\n    tag_101:\n      mstore(0x20, 0x0b)\n      dup1\n      0x00\n      mstore\n      keccak256(0x00, 0x40)\n      0x00\n      swap2\n      pop\n      swap1\n      pop\n      sload\n      dup2\n      jump\t// out\n        /* \"#utility.yul\":7:133   */\n    tag_167:\n        /* \"#utility.yul\":44:51   */\n      0x00\n        /* \"#utility.yul\":84:126   */\n      0xffffffffffffffffffffffffffffffffffffffff\n        /* \"#utility.yul\":77:82   */\n      dup3\n        /* \"#utility.yul\":73:127   */\n      and\n        /* \"#utility.yul\":62:127   */\n      swap1\n      pop\n        /* \"#utility.yul\":7:133   */\n      swap2\n      swap1\n      pop\n      jump\t// out\n        /* \"#utility.yul\":139:235   */\n    tag_168:\n        /* \"#utility.yul\":176:183   */\n      0x00\n        /* \"#utility.yul\":205:229   */\n      tag_205\n        /* \"#utility.yul\":223:228   */\n      dup3\n        /* \"#utility.yul\":205:229   */\n      tag_167\n      jump\t// in\n    tag_205:\n        /* \"#utility.yul\":194:229   */\n      swap1\n      pop\n        /* \"#utility.yul\":139:235   */\n      swap2\n      swap1\n      pop\n      jump\t// out\n        /* \"#utility.yul\":241:359   */\n    tag_169:\n        /* \"#utility.yul\":328:352   */\n      tag_207\n        /* \"#utility.yul\":346:351   */\n      dup2\n        /* \"#utility.yul\":328:352   */\n      tag_168\n      jump\t// in\n    tag_207:\n        /* \"#utility.yul\":323:326   */\n      dup3\n        /* \"#utility.yul\":316:353   */\n      mstore\n        /* \"#utility.yul\":241:359   */\n      pop\n      pop\n      jump\t// out\n        /* \"#utility.yul\":365:587   */\n    tag_26:\n        /* \"#utility.yul\":458:462   */\n      0x00\n        /* \"#utility.yul\":496:498   */\n      0x20\n        /* \"#utility.yul\":485:494   */\n      dup3\n        /* \"#utility.yul\":481:499   */\n      add\n        /* \"#utility.yul\":473:499   */\n      swap1\n      pop\n        /* \"#utility.yul\":509:580   */\n      tag_209\n        /* \"#utility.yul\":577:578   */\n      0x00\n        /* \"#utility.yul\":566:575   */\n      dup4\n        /* \"#utility.yul\":562:579   */\n      add\n        /* \"#utility.yul\":553:559   */\n      dup5\n        /* \"#utility.yul\":509:580   */\n      tag_169\n      jump\t// in\n    tag_209:\n        /* \"#utility.yul\":365:587   */\n      swap3\n      swap2\n      pop\n      pop\n      jump\t// out\n        /* \"#utility.yul\":593:692   */\n    tag_170:\n        /* \"#utility.yul\":645:651   */\n      0x00\n        /* \"#utility.yul\":679:684   */\n      dup2\n        /* \"#utility.yul\":673:685   */\n      mload\n        /* \"#utility.yul\":663:685   */\n      swap1\n      pop\n        /* \"#utility.yul\":593:692   */\n      swap2\n      swap1\n      pop\n      jump\t// out\n        /* \"#utility.yul\":698:867   */\n    tag_171:\n        /* \"#utility.yul\":782:793   */\n      0x00\n        /* \"#utility.yul\":816:822   */\n      dup3\n        /* \"#utility.yul\":811:814   */\n      dup3\n        /* \"#utility.yul\":804:823   */\n      mstore\n        /* \"#utility.yul\":856:860   */\n      0x20\n        /* \"#utility.yul\":851:854   */\n      dup3\n        /* \"#utility.yul\":847:861   */\n      add\n        /* \"#utility.yul\":832:861   */\n      swap1\n      pop\n        /* \"#utility.yul\":698:867   */\n      swap3\n      swap2\n      pop\n      pop\n      jump\t// out\n        /* \"#utility.yul\":873:1012   */\n    tag_172:\n        /* \"#utility.yul\":962:968   */\n      dup3\n        /* \"#utility.yul\":957:960   */\n      dup2\n        /* \"#utility.yul\":952:955   */\n      dup4\n        /* \"#utility.yul\":946:969   */\n      mcopy\n        /* \"#utility.yul\":1003:1004   */\n      0x00\n        /* \"#utility.yul\":994:1000   */\n      dup4\n        /* \"#utility.yul\":989:992   */\n      dup4\n        /* \"#utility.yul\":985:1001   */\n      add\n        /* \"#utility.yul\":978:1005   */\n      mstore\n        /* \"#utility.yul\":873:1012   */\n      pop\n      pop\n      pop\n      jump\t// out\n        /* \"#utility.yul\":1018:1120   */\n    tag_173:\n        /* \"#utility.yul\":1059:1065   */\n      0x00\n        /* \"#utility.yul\":1110:1112   */\n      0x1f\n        /* \"#utility.yul\":1106:1113   */\n      not\n        /* \"#utility.yul\":1101:1103   */\n      0x1f\n        /* \"#utility.yul\":1094:1099   */\n      dup4\n        /* \"#utility.yul\":1090:1104   */\n      add\n        /* \"#utility.yul\":1086:1114   */\n      and\n        /* \"#utility.yul\":1076:1114   */\n      swap1\n      pop\n        /* \"#utility.yul\":1018:1120   */\n      swap2\n      swap1\n      pop\n      jump\t// out\n        /* \"#utility.yul\":1126:1503   */\n    tag_174:\n        /* \"#utility.yul\":1214:1217   */\n      0x00\n        /* \"#utility.yul\":1242:1281   */\n      tag_215\n        /* \"#utility.yul\":1275:1280   */\n      dup3\n        /* \"#utility.yul\":1242:1281   */\n      tag_170\n      jump\t// in\n    tag_215:\n        /* \"#utility.yul\":1297:1368   */\n      tag_216\n        /* \"#utility.yul\":1361:1367   */\n      dup2\n        /* \"#utility.yul\":1356:1359   */\n      dup6\n        /* \"#utility.yul\":1297:1368   */\n      tag_171\n      jump\t// in\n    tag_216:\n        /* \"#utility.yul\":1290:1368   */\n      swap4\n      pop\n        /* \"#utility.yul\":1377:1442   */\n      tag_217\n        /* \"#utility.yul\":1435:1441   */\n      dup2\n        /* \"#utility.yul\":1430:1433   */\n      dup6\n        /* \"#utility.yul\":1423:1427   */\n      0x20\n        /* \"#utility.yul\":1416:1421   */\n      dup7\n        /* \"#utility.yul\":1412:1428   */\n      add\n        /* \"#utility.yul\":1377:1442   */\n      tag_172\n      jump\t// in\n    tag_217:\n        /* \"#utility.yul\":1467:1496   */\n      tag_218\n        /* \"#utility.yul\":1489:1495   */\n      dup2\n        /* \"#utility.yul\":1467:1496   */\n      tag_173\n      jump\t// in\n    tag_218:\n        /* \"#utility.yul\":1462:1465   */\n      dup5\n        /* \"#utility.yul\":1458:1497   */\n      add\n        /* \"#utility.yul\":1451:1497   */\n      swap2\n      pop\n        /* \"#utility.yul\":1218:1503   */\n      pop\n        /* \"#utility.yul\":1126:1503   */\n      swap3\n      swap2\n      pop\n      pop\n      jump\t// out\n        /* \"#utility.yul\":1509:1822   */\n    tag_31:\n        /* \"#utility.yul\":1622:1626   */\n      0x00\n        /* \"#utility.yul\":1660:1662   */\n      0x20\n        /* \"#utility.yul\":1649:1658   */\n      dup3\n        /* \"#utility.yul\":1645:1663   */\n      add\n        /* \"#utility.yul\":1637:1663   */\n      swap1\n      pop\n        /* \"#utility.yul\":1709:1718   */\n      dup2\n        /* \"#utility.yul\":1703:1707   */\n      dup2\n        /* \"#utility.yul\":1699:1719   */\n      sub\n        /* \"#utility.yul\":1695:1696   */\n      0x00\n        /* \"#utility.yul\":1684:1693   */\n      dup4\n        /* \"#utility.yul\":1680:1697   */\n      add\n        /* \"#utility.yul\":1673:1720   */\n      mstore\n        /* \"#utility.yul\":1737:1815   */\n      tag_220\n        /* \"#utility.yul\":1810:1814   */\n      dup2\n        /* \"#utility.yul\":1801:1807   */\n      dup5\n        /* \"#utility.yul\":1737:1815   */\n      tag_174\n      jump\t// in\n    tag_220:\n        /* \"#utility.yul\":1729:1815   */\n      swap1\n      pop\n        /* \"#utility.yul\":1509:1822   */\n      swap3\n      swap2\n      pop\n      pop\n      jump\t// out\n        /* \"#utility.yul\":1909:2026   */\n    tag_176:\n        /* \"#utility.yul\":2018:2019   */\n      0x00\n        /* \"#utility.yul\":2015:2016   */\n      dup1\n        /* \"#utility.yul\":2008:2020   */\n      revert\n        /* \"#utility.yul\":2155:2232   */\n    tag_178:\n        /* \"#utility.yul\":2192:2199   */\n      0x00\n        /* \"#utility.yul\":2221:2226   */\n      dup2\n        /* \"#utility.yul\":2210:2226   */\n      swap1\n      pop\n        /* \"#utility.yul\":2155:2232   */\n      swap2\n      swap1\n      pop\n      jump\t// out\n        /* \"#utility.yul\":2238:2360   */\n    tag_179:\n        /* \"#utility.yul\":2311:2335   */\n      tag_226\n        /* \"#utility.yul\":2329:2334   */\n      dup2\n        /* \"#utility.yul\":2311:2335   */\n      tag_178\n      jump\t// in\n    tag_226:\n        /* \"#utility.yul\":2304:2309   */\n      dup2\n        /* \"#utility.yul\":2301:2336   */\n      eq\n        /* \"#utility.yul\":2291:2354   */\n      tag_227\n      jumpi\n        /* \"#utility.yul\":2350:2351   */\n      0x00\n        /* \"#utility.yul\":2347:2348   */\n      dup1\n        /* \"#utility.yul\":2340:2352   */\n      revert\n        /* \"#utility.yul\":2291:2354   */\n    tag_227:\n        /* \"#utility.yul\":2238:2360   */\n      pop\n      jump\t// out\n        /* \"#utility.yul\":2366:2505   */\n    tag_180:\n        /* \"#utility.yul\":2412:2417   */\n      0x00\n        /* \"#utility.yul\":2450:2456   */\n      dup2\n        /* \"#utility.yul\":2437:2457   */\n      calldataload\n        /* \"#utility.yul\":2428:2457   */\n      swap1\n      pop\n        /* \"#utility.yul\":2466:2499   */\n      tag_229\n        /* \"#utility.yul\":2493:2498   */\n      dup2\n        /* \"#utility.yul\":2466:2499   */\n      tag_179\n      jump\t// in\n    tag_229:\n        /* \"#utility.yul\":2366:2505   */\n      swap3\n      swap2\n      pop\n      pop\n      jump\t// out\n        /* \"#utility.yul\":2511:2840   */\n    tag_35:\n        /* \"#utility.yul\":2570:2576   */\n      0x00\n        /* \"#utility.yul\":2619:2621   */\n      0x20\n        /* \"#utility.yul\":2607:2616   */\n      dup3\n        /* \"#utility.yul\":2598:2605   */\n      dup5\n        /* \"#utility.yul\":2594:2617   */\n      sub\n        /* \"#utility.yul\":2590:2622   */\n      slt\n        /* \"#utility.yul\":2587:2706   */\n      iszero\n      tag_231\n      jumpi\n        /* \"#utility.yul\":2625:2704   */\n      tag_232\n      tag_176\n      jump\t// in\n    tag_232:\n        /* \"#utility.yul\":2587:2706   */\n    tag_231:\n        /* \"#utility.yul\":2745:2746   */\n      0x00\n        /* \"#utility.yul\":2770:2823   */\n      tag_233\n        /* \"#utility.yul\":2815:2822   */\n      dup5\n        /* \"#utility.yul\":2806:2812   */\n      dup3\n        /* \"#utility.yul\":2795:2804   */\n      dup6\n        /* \"#utility.yul\":2791:2813   */\n      add\n        /* \"#utility.yul\":2770:2823   */\n      tag_180\n      jump\t// in\n    tag_233:\n        /* \"#utility.yul\":2760:2823   */\n      swap2\n      pop\n        /* \"#utility.yul\":2716:2833   */\n      pop\n        /* \"#utility.yul\":2511:2840   */\n      swap3\n      swap2\n      pop\n      pop\n      jump\t// out\n        /* \"#utility.yul\":2846:2964   */\n    tag_181:\n        /* \"#utility.yul\":2933:2957   */\n      tag_235\n        /* \"#utility.yul\":2951:2956   */\n      dup2\n        /* \"#utility.yul\":2933:2957   */\n      tag_178\n      jump\t// in\n    tag_235:\n        /* \"#utility.yul\":2928:2931   */\n      dup3\n        /* \"#utility.yul\":2921:2958   */\n      mstore\n        /* \"#utility.yul\":2846:2964   */\n      pop\n      pop\n      jump\t// out\n        /* \"#utility.yul\":2970:3192   */\n    tag_41:\n        /* \"#utility.yul\":3063:3067   */\n      0x00\n        /* \"#utility.yul\":3101:3103   */\n      0x20\n        /* \"#utility.yul\":3090:3099   */\n      dup3\n        /* \"#utility.yul\":3086:3104   */\n      add\n        /* \"#utility.yul\":3078:3104   */\n      swap1\n      pop\n        /* \"#utility.yul\":3114:3185   */\n      tag_237\n        /* \"#utility.yul\":3182:3183   */\n      0x00\n        /* \"#utility.yul\":3171:3180   */\n      dup4\n        /* \"#utility.yul\":3167:3184   */\n      add\n        /* \"#utility.yul\":3158:3164   */\n      dup5\n        /* \"#utility.yul\":3114:3185   */\n      tag_181\n      jump\t// in\n    tag_237:\n        /* \"#utility.yul\":2970:3192   */\n      swap3\n      swap2\n      pop\n      pop\n      jump\t// out\n        /* \"#utility.yul\":3198:3284   */\n    tag_182:\n        /* \"#utility.yul\":3233:3240   */\n      0x00\n        /* \"#utility.yul\":3273:3277   */\n      0xff\n        /* \"#utility.yul\":3266:3271   */\n      dup3\n        /* \"#utility.yul\":3262:3278   */\n      and\n        /* \"#utility.yul\":3251:3278   */\n      swap1\n      pop\n        /* \"#utility.yul\":3198:3284   */\n      swap2\n      swap1\n      pop\n      jump\t// out\n        /* \"#utility.yul\":3290:3402   */\n    tag_183:\n        /* \"#utility.yul\":3373:3395   */\n      tag_240\n        /* \"#utility.yul\":3389:3394   */\n      dup2\n        /* \"#utility.yul\":3373:3395   */\n      tag_182\n      jump\t// in\n    tag_240:\n        /* \"#utility.yul\":3368:3371   */\n      dup3\n        /* \"#utility.yul\":3361:3396   */\n      mstore\n        /* \"#utility.yul\":3290:3402   */\n      pop\n      pop\n      jump\t// out\n        /* \"#utility.yul\":3408:3622   */\n    tag_50:\n        /* \"#utility.yul\":3497:3501   */\n      0x00\n        /* \"#utility.yul\":3535:3537   */\n      0x20\n        /* \"#utility.yul\":3524:3533   */\n      dup3\n        /* \"#utility.yul\":3520:3538   */\n      add\n        /* \"#utility.yul\":3512:3538   */\n      swap1\n      pop\n        /* \"#utility.yul\":3548:3615   */\n      tag_242\n        /* \"#utility.yul\":3612:3613   */\n      0x00\n        /* \"#utility.yul\":3601:3610   */\n      dup4\n        /* \"#utility.yul\":3597:3614   */\n      add\n        /* \"#utility.yul\":3588:3594   */\n      dup5\n        /* \"#utility.yul\":3548:3615   */\n      tag_183\n      jump\t// in\n    tag_242:\n        /* \"#utility.yul\":3408:3622   */\n      swap3\n      swap2\n      pop\n      pop\n      jump\t// out\n        /* \"#utility.yul\":3628:3750   */\n    tag_184:\n        /* \"#utility.yul\":3701:3725   */\n      tag_244\n        /* \"#utility.yul\":3719:3724   */\n      dup2\n        /* \"#utility.yul\":3701:3725   */\n      tag_168\n      jump\t// in\n    tag_244:\n        /* \"#utility.yul\":3694:3699   */\n      dup2\n        /* \"#utility.yul\":3691:3726   */\n      eq\n        /* \"#utility.yul\":3681:3744   */\n      tag_245\n      jumpi\n        /* \"#utility.yul\":3740:3741   */\n      0x00\n        /* \"#utility.yul\":3737:3738   */\n      dup1\n        /* \"#utility.yul\":3730:3742   */\n      revert\n        /* \"#utility.yul\":3681:3744   */\n    tag_245:\n        /* \"#utility.yul\":3628:3750   */\n      pop\n      jump\t// out\n        /* \"#utility.yul\":3756:3895   */\n    tag_185:\n        /* \"#utility.yul\":3802:3807   */\n      0x00\n        /* \"#utility.yul\":3840:3846   */\n      dup2\n        /* \"#utility.yul\":3827:3847   */\n      calldataload\n        /* \"#utility.yul\":3818:3847   */\n      swap1\n      pop\n        /* \"#utility.yul\":3856:3889   */\n      tag_247\n        /* \"#utility.yul\":3883:3888   */\n      dup2\n        /* \"#utility.yul\":3856:3889   */\n      tag_184\n      jump\t// in\n    tag_247:\n        /* \"#utility.yul\":3756:3895   */\n      swap3\n      swap2\n      pop\n      pop\n      jump\t// out\n        /* \"#utility.yul\":3901:4375   */\n    tag_54:\n        /* \"#utility.yul\":3969:3975   */\n      0x00\n        /* \"#utility.yul\":3977:3983   */\n      dup1\n        /* \"#utility.yul\":4026:4028   */\n      0x40\n        /* \"#utility.yul\":4014:4023   */\n      dup4\n        /* \"#utility.yul\":4005:4012   */\n      dup6\n        /* \"#utility.yul\":4001:4024   */\n      sub\n        /* \"#utility.yul\":3997:4029   */\n      slt\n        /* \"#utility.yul\":3994:4113   */\n      iszero\n      tag_249\n      jumpi\n        /* \"#utility.yul\":4032:4111   */\n      tag_250\n      tag_176\n      jump\t// in\n    tag_250:\n        /* \"#utility.yul\":3994:4113   */\n    tag_249:\n        /* \"#utility.yul\":4152:4153   */\n      0x00\n        /* \"#utility.yul\":4177:4230   */\n      tag_251\n        /* \"#utility.yul\":4222:4229   */\n      dup6\n        /* \"#utility.yul\":4213:4219   */\n      dup3\n        /* \"#utility.yul\":4202:4211   */\n      dup7\n        /* \"#utility.yul\":4198:4220   */\n      add\n        /* \"#utility.yul\":4177:4230   */\n      tag_185\n      jump\t// in\n    tag_251:\n        /* \"#utility.yul\":4167:4230   */\n      swap3\n      pop\n        /* \"#utility.yul\":4123:4240   */\n      pop\n        /* \"#utility.yul\":4279:4281   */\n      0x20\n        /* \"#utility.yul\":4305:4358   */\n      tag_252\n        /* \"#utility.yul\":4350:4357   */\n      dup6\n        /* \"#utility.yul\":4341:4347   */\n      dup3\n        /* \"#utility.yul\":4330:4339   */\n      dup7\n        /* \"#utility.yul\":4326:4348   */\n      add\n        /* \"#utility.yul\":4305:4358   */\n      tag_180\n      jump\t// in\n    tag_252:\n        /* \"#utility.yul\":4295:4358   */\n      swap2\n      pop\n        /* \"#utility.yul\":4250:4368   */\n      pop\n        /* \"#utility.yul\":3901:4375   */\n      swap3\n      pop\n      swap3\n      swap1\n      pop\n      jump\t// out\n        /* \"#utility.yul\":4381:4710   */\n    tag_59:\n        /* \"#utility.yul\":4440:4446   */\n      0x00\n        /* \"#utility.yul\":4489:4491   */\n      0x20\n        /* \"#utility.yul\":4477:4486   */\n      dup3\n        /* \"#utility.yul\":4468:4475   */\n      dup5\n        /* \"#utility.yul\":4464:4487   */\n      sub\n        /* \"#utility.yul\":4460:4492   */\n      slt\n        /* \"#utility.yul\":4457:4576   */\n      iszero\n      tag_254\n      jumpi\n        /* \"#utility.yul\":4495:4574   */\n      tag_255\n      tag_176\n      jump\t// in\n    tag_255:\n        /* \"#utility.yul\":4457:4576   */\n    tag_254:\n        /* \"#utility.yul\":4615:4616   */\n      0x00\n        /* \"#utility.yul\":4640:4693   */\n      tag_256\n        /* \"#utility.yul\":4685:4692   */\n      dup5\n        /* \"#utility.yul\":4676:4682   */\n      dup3\n        /* \"#utility.yul\":4665:4674   */\n      dup6\n        /* \"#utility.yul\":4661:4683   */\n      add\n        /* \"#utility.yul\":4640:4693   */\n      tag_185\n      jump\t// in\n    tag_256:\n        /* \"#utility.yul\":4630:4693   */\n      swap2\n      pop\n        /* \"#utility.yul\":4586:4703   */\n      pop\n        /* \"#utility.yul\":4381:4710   */\n      swap3\n      swap2\n      pop\n      pop\n      jump\t// out\n        /* \"#utility.yul\":4716:4806   */\n    tag_186:\n        /* \"#utility.yul\":4750:4757   */\n      0x00\n        /* \"#utility.yul\":4793:4798   */\n      dup2\n        /* \"#utility.yul\":4786:4799   */\n      iszero\n        /* \"#utility.yul\":4779:4800   */\n      iszero\n        /* \"#utility.yul\":4768:4800   */\n      swap1\n      pop\n        /* \"#utility.yul\":4716:4806   */\n      swap2\n      swap1\n      pop\n      jump\t// out\n        /* \"#utility.yul\":4812:4921   */\n    tag_187:\n        /* \"#utility.yul\":4893:4914   */\n      tag_259\n        /* \"#utility.yul\":4908:4913   */\n      dup2\n        /* \"#utility.yul\":4893:4914   */\n      tag_186\n      jump\t// in\n    tag_259:\n        /* \"#utility.yul\":4888:4891   */\n      dup3\n        /* \"#utility.yul\":4881:4915   */\n      mstore\n        /* \"#utility.yul\":4812:4921   */\n      pop\n      pop\n      jump\t// out\n        /* \"#utility.yul\":4927:5137   */\n    tag_74:\n        /* \"#utility.yul\":5014:5018   */\n      0x00\n        /* \"#utility.yul\":5052:5054   */\n      0x20\n        /* \"#utility.yul\":5041:5050   */\n      dup3\n        /* \"#utility.yul\":5037:5055   */\n      add\n        /* \"#utility.yul\":5029:5055   */\n      swap1\n      pop\n        /* \"#utility.yul\":5065:5130   */\n      tag_261\n        /* \"#utility.yul\":5127:5128   */\n      0x00\n        /* \"#utility.yul\":5116:5125   */\n      dup4\n        /* \"#utility.yul\":5112:5129   */\n      add\n        /* \"#utility.yul\":5103:5109   */\n      dup5\n        /* \"#utility.yul\":5065:5130   */\n      tag_187\n      jump\t// in\n    tag_261:\n        /* \"#utility.yul\":4927:5137   */\n      swap3\n      swap2\n      pop\n      pop\n      jump\t// out\n        /* \"#utility.yul\":5143:5617   */\n    tag_90:\n        /* \"#utility.yul\":5211:5217   */\n      0x00\n        /* \"#utility.yul\":5219:5225   */\n      dup1\n        /* \"#utility.yul\":5268:5270   */\n      0x40\n        /* \"#utility.yul\":5256:5265   */\n      dup4\n        /* \"#utility.yul\":5247:5254   */\n      dup6\n        /* \"#utility.yul\":5243:5266   */\n      sub\n        /* \"#utility.yul\":5239:5271   */\n      slt\n        /* \"#utility.yul\":5236:5355   */\n      iszero\n      tag_263\n      jumpi\n        /* \"#utility.yul\":5274:5353   */\n      tag_264\n      tag_176\n      jump\t// in\n    tag_264:\n        /* \"#utility.yul\":5236:5355   */\n    tag_263:\n        /* \"#utility.yul\":5394:5395   */\n      0x00\n        /* \"#utility.yul\":5419:5472   */\n      tag_265\n        /* \"#utility.yul\":5464:5471   */\n      dup6\n        /* \"#utility.yul\":5455:5461   */\n      dup3\n        /* \"#utility.yul\":5444:5453   */\n      dup7\n        /* \"#utility.yul\":5440:5462   */\n      add\n        /* \"#utility.yul\":5419:5472   */\n      tag_185\n      jump\t// in\n    tag_265:\n        /* \"#utility.yul\":5409:5472   */\n      swap3\n      pop\n        /* \"#utility.yul\":5365:5482   */\n      pop\n        /* \"#utility.yul\":5521:5523   */\n      0x20\n        /* \"#utility.yul\":5547:5600   */\n      tag_266\n        /* \"#utility.yul\":5592:5599   */\n      dup6\n        /* \"#utility.yul\":5583:5589   */\n      dup3\n        /* \"#utility.yul\":5572:5581   */\n      dup7\n        /* \"#utility.yul\":5568:5590   */\n      add\n        /* \"#utility.yul\":5547:5600   */\n      tag_185\n      jump\t// in\n    tag_266:\n        /* \"#utility.yul\":5537:5600   */\n      swap2\n      pop\n        /* \"#utility.yul\":5492:5610   */\n      pop\n        /* \"#utility.yul\":5143:5617   */\n      swap3\n      pop\n      swap3\n      swap1\n      pop\n      jump\t// out\n        /* \"#utility.yul\":5623:5699   */\n    tag_188:\n        /* \"#utility.yul\":5659:5666   */\n      0x00\n        /* \"#utility.yul\":5688:5693   */\n      dup2\n        /* \"#utility.yul\":5677:5693   */\n      swap1\n      pop\n        /* \"#utility.yul\":5623:5699   */\n      swap2\n      swap1\n      pop\n      jump\t// out\n        /* \"#utility.yul\":5705:5820   */\n    tag_189:\n        /* \"#utility.yul\":5790:5813   */\n      tag_269\n        /* \"#utility.yul\":5807:5812   */\n      dup2\n        /* \"#utility.yul\":5790:5813   */\n      tag_188\n      jump\t// in\n    tag_269:\n        /* \"#utility.yul\":5785:5788   */\n      dup3\n        /* \"#utility.yul\":5778:5814   */\n      mstore\n        /* \"#utility.yul\":5705:5820   */\n      pop\n      pop\n      jump\t// out\n        /* \"#utility.yul\":5826:6044   */\n    tag_97:\n        /* \"#utility.yul\":5917:5921   */\n      0x00\n        /* \"#utility.yul\":5955:5957   */\n      0x20\n        /* \"#utility.yul\":5944:5953   */\n      dup3\n        /* \"#utility.yul\":5940:5958   */\n      add\n        /* \"#utility.yul\":5932:5958   */\n      swap1\n      pop\n        /* \"#utility.yul\":5968:6037   */\n      tag_271\n        /* \"#utility.yul\":6034:6035   */\n      0x00\n        /* \"#utility.yul\":6023:6032   */\n      dup4\n        /* \"#utility.yul\":6019:6036   */\n      add\n        /* \"#utility.yul\":6010:6016   */\n      dup5\n        /* \"#utility.yul\":5968:6037   */\n      tag_189\n      jump\t// in\n    tag_271:\n        /* \"#utility.yul\":5826:6044   */\n      swap3\n      swap2\n      pop\n      pop\n      jump\t// out\n        /* \"#utility.yul\":6050:6230   */\n    tag_190:\n        /* \"#utility.yul\":6098:6175   */\n      0x4e487b7100000000000000000000000000000000000000000000000000000000\n        /* \"#utility.yul\":6095:6096   */\n      0x00\n        /* \"#utility.yul\":6088:6176   */\n      mstore\n        /* \"#utility.yul\":6195:6199   */\n      0x22\n        /* \"#utility.yul\":6192:6193   */\n      0x04\n        /* \"#utility.yul\":6185:6200   */\n      mstore\n        /* \"#utility.yul\":6219:6223   */\n      0x24\n        /* \"#utility.yul\":6216:6217   */\n      0x00\n        /* \"#utility.yul\":6209:6224   */\n      revert\n        /* \"#utility.yul\":6236:6556   */\n    tag_104:\n        /* \"#utility.yul\":6280:6286   */\n      0x00\n        /* \"#utility.yul\":6317:6318   */\n      0x02\n        /* \"#utility.yul\":6311:6315   */\n      dup3\n        /* \"#utility.yul\":6307:6319   */\n      div\n        /* \"#utility.yul\":6297:6319   */\n      swap1\n      pop\n        /* \"#utility.yul\":6364:6365   */\n      0x01\n        /* \"#utility.yul\":6358:6362   */\n      dup3\n        /* \"#utility.yul\":6354:6366   */\n      and\n        /* \"#utility.yul\":6385:6403   */\n      dup1\n        /* \"#utility.yul\":6375:6456   */\n      tag_274\n      jumpi\n        /* \"#utility.yul\":6441:6445   */\n      0x7f\n        /* \"#utility.yul\":6433:6439   */\n      dup3\n        /* \"#utility.yul\":6429:6446   */\n      and\n        /* \"#utility.yul\":6419:6446   */\n      swap2\n      pop\n        /* \"#utility.yul\":6375:6456   */\n    tag_274:\n        /* \"#utility.yul\":6503:6505   */\n      0x20\n        /* \"#utility.yul\":6495:6501   */\n      dup3\n        /* \"#utility.yul\":6492:6506   */\n      lt\n        /* \"#utility.yul\":6472:6490   */\n      dup2\n        /* \"#utility.yul\":6469:6507   */\n      sub\n        /* \"#utility.yul\":6466:6550   */\n      tag_275\n      jumpi\n        /* \"#utility.yul\":6522:6540   */\n      tag_276\n      tag_190\n      jump\t// in\n    tag_276:\n        /* \"#utility.yul\":6466:6550   */\n    tag_275:\n        /* \"#utility.yul\":6287:6556   */\n      pop\n        /* \"#utility.yul\":6236:6556   */\n      swap2\n      swap1\n      pop\n      jump\t// out\n        /* \"#utility.yul\":6562:6740   */\n    tag_191:\n        /* \"#utility.yul\":6702:6732   */\n      0x496e73756666696369656e742062616c616e636520746f2073656c6c00000000\n        /* \"#utility.yul\":6698:6699   */\n      0x00\n        /* \"#utility.yul\":6690:6696   */\n      dup3\n        /* \"#utility.yul\":6686:6700   */\n      add\n        /* \"#utility.yul\":6679:6733   */\n      mstore\n        /* \"#utility.yul\":6562:6740   */\n      pop\n      jump\t// out\n        /* \"#utility.yul\":6746:7112   */\n    tag_192:\n        /* \"#utility.yul\":6888:6891   */\n      0x00\n        /* \"#utility.yul\":6909:6976   */\n      tag_279\n        /* \"#utility.yul\":6973:6975   */\n      0x1c\n        /* \"#utility.yul\":6968:6971   */\n      dup4\n        /* \"#utility.yul\":6909:6976   */\n      tag_171\n      jump\t// in\n    tag_279:\n        /* \"#utility.yul\":6902:6976   */\n      swap2\n      pop\n        /* \"#utility.yul\":6985:7078   */\n      tag_280\n        /* \"#utility.yul\":7074:7077   */\n      dup3\n        /* \"#utility.yul\":6985:7078   */\n      tag_191\n      jump\t// in\n    tag_280:\n        /* \"#utility.yul\":7103:7105   */\n      0x20\n        /* \"#utility.yul\":7098:7101   */\n      dup3\n        /* \"#utility.yul\":7094:7106   */\n      add\n        /* \"#utility.yul\":7087:7106   */\n      swap1\n      pop\n        /* \"#utility.yul\":6746:7112   */\n      swap2\n      swap1\n      pop\n      jump\t// out\n        /* \"#utility.yul\":7118:7537   */\n    tag_112:\n        /* \"#utility.yul\":7284:7288   */\n      0x00\n        /* \"#utility.yul\":7322:7324   */\n      0x20\n        /* \"#utility.yul\":7311:7320   */\n      dup3\n        /* \"#utility.yul\":7307:7325   */\n      add\n        /* \"#utility.yul\":7299:7325   */\n      swap1\n      pop\n        /* \"#utility.yul\":7371:7380   */\n      dup2\n        /* \"#utility.yul\":7365:7369   */\n      dup2\n        /* \"#utility.yul\":7361:7381   */\n      sub\n        /* \"#utility.yul\":7357:7358   */\n      0x00\n        /* \"#utility.yul\":7346:7355   */\n      dup4\n        /* \"#utility.yul\":7342:7359   */\n      add\n        /* \"#utility.yul\":7335:7382   */\n      mstore\n        /* \"#utility.yul\":7399:7530   */\n      tag_282\n        /* \"#utility.yul\":7525:7529   */\n      dup2\n        /* \"#utility.yul\":7399:7530   */\n      tag_192\n      jump\t// in\n    tag_282:\n        /* \"#utility.yul\":7391:7530   */\n      swap1\n      pop\n        /* \"#utility.yul\":7118:7537   */\n      swap2\n      swap1\n      pop\n      jump\t// out\n        /* \"#utility.yul\":7543:7723   */\n    tag_193:\n        /* \"#utility.yul\":7591:7668   */\n      0x4e487b7100000000000000000000000000000000000000000000000000000000\n        /* \"#utility.yul\":7588:7589   */\n      0x00\n        /* \"#utility.yul\":7581:7669   */\n      mstore\n        /* \"#utility.yul\":7688:7692   */\n      0x11\n        /* \"#utility.yul\":7685:7686   */\n      0x04\n        /* \"#utility.yul\":7678:7693   */\n      mstore\n        /* \"#utility.yul\":7712:7716   */\n      0x24\n        /* \"#utility.yul\":7709:7710   */\n      0x00\n        /* \"#utility.yul\":7702:7717   */\n      revert\n        /* \"#utility.yul\":7729:8139   */\n    tag_114:\n        /* \"#utility.yul\":7769:7776   */\n      0x00\n        /* \"#utility.yul\":7792:7812   */\n      tag_285\n        /* \"#utility.yul\":7810:7811   */\n      dup3\n        /* \"#utility.yul\":7792:7812   */\n      tag_178\n      jump\t// in\n    tag_285:\n        /* \"#utility.yul\":7787:7812   */\n      swap2\n      pop\n        /* \"#utility.yul\":7826:7846   */\n      tag_286\n        /* \"#utility.yul\":7844:7845   */\n      dup4\n        /* \"#utility.yul\":7826:7846   */\n      tag_178\n      jump\t// in\n    tag_286:\n        /* \"#utility.yul\":7821:7846   */\n      swap3\n      pop\n        /* \"#utility.yul\":7881:7882   */\n      dup3\n        /* \"#utility.yul\":7878:7879   */\n      dup3\n        /* \"#utility.yul\":7874:7883   */\n      mul\n        /* \"#utility.yul\":7903:7933   */\n      tag_287\n        /* \"#utility.yul\":7921:7932   */\n      dup2\n        /* \"#utility.yul\":7903:7933   */\n      tag_178\n      jump\t// in\n    tag_287:\n        /* \"#utility.yul\":7892:7933   */\n      swap2\n      pop\n        /* \"#utility.yul\":8082:8083   */\n      dup3\n        /* \"#utility.yul\":8073:8080   */\n      dup3\n        /* \"#utility.yul\":8069:8084   */\n      div\n        /* \"#utility.yul\":8066:8067   */\n      dup5\n        /* \"#utility.yul\":8063:8085   */\n      eq\n        /* \"#utility.yul\":8043:8044   */\n      dup4\n        /* \"#utility.yul\":8036:8045   */\n      iszero\n        /* \"#utility.yul\":8016:8099   */\n      or\n        /* \"#utility.yul\":7993:8132   */\n      tag_288\n      jumpi\n        /* \"#utility.yul\":8112:8130   */\n      tag_289\n      tag_193\n      jump\t// in\n    tag_289:\n        /* \"#utility.yul\":7993:8132   */\n    tag_288:\n        /* \"#utility.yul\":7777:8139   */\n      pop\n        /* \"#utility.yul\":7729:8139   */\n      swap3\n      swap2\n      pop\n      pop\n      jump\t// out\n        /* \"#utility.yul\":8145:8339   */\n    tag_118:\n        /* \"#utility.yul\":8185:8189   */\n      0x00\n        /* \"#utility.yul\":8205:8225   */\n      tag_291\n        /* \"#utility.yul\":8223:8224   */\n      dup3\n        /* \"#utility.yul\":8205:8225   */\n      tag_178\n      jump\t// in\n    tag_291:\n        /* \"#utility.yul\":8200:8225   */\n      swap2\n      pop\n        /* \"#utility.yul\":8239:8259   */\n      tag_292\n        /* \"#utility.yul\":8257:8258   */\n      dup4\n        /* \"#utility.yul\":8239:8259   */\n      tag_178\n      jump\t// in\n    tag_292:\n        /* \"#utility.yul\":8234:8259   */\n      swap3\n      pop\n        /* \"#utility.yul\":8283:8284   */\n      dup3\n        /* \"#utility.yul\":8280:8281   */\n      dup3\n        /* \"#utility.yul\":8276:8285   */\n      sub\n        /* \"#utility.yul\":8268:8285   */\n      swap1\n      pop\n        /* \"#utility.yul\":8307:8308   */\n      dup2\n        /* \"#utility.yul\":8301:8305   */\n      dup2\n        /* \"#utility.yul\":8298:8309   */\n      gt\n        /* \"#utility.yul\":8295:8332   */\n      iszero\n      tag_293\n      jumpi\n        /* \"#utility.yul\":8312:8330   */\n      tag_294\n      tag_193\n      jump\t// in\n    tag_294:\n        /* \"#utility.yul\":8295:8332   */\n    tag_293:\n        /* \"#utility.yul\":8145:8339   */\n      swap3\n      swap2\n      pop\n      pop\n      jump\t// out\n        /* \"#utility.yul\":8345:8572   */\n    tag_194:\n        /* \"#utility.yul\":8485:8519   */\n      0x4f6e6c79207468652063726561746f722063616e20706572666f726d20746869\n        /* \"#utility.yul\":8481:8482   */\n      0x00\n        /* \"#utility.yul\":8473:8479   */\n      dup3\n        /* \"#utility.yul\":8469:8483   */\n      add\n        /* \"#utility.yul\":8462:8520   */\n      mstore\n        /* \"#utility.yul\":8554:8564   */\n      0x7320616374696f6e000000000000000000000000000000000000000000000000\n        /* \"#utility.yul\":8549:8551   */\n      0x20\n        /* \"#utility.yul\":8541:8547   */\n      dup3\n        /* \"#utility.yul\":8537:8552   */\n      add\n        /* \"#utility.yul\":8530:8565   */\n      mstore\n        /* \"#utility.yul\":8345:8572   */\n      pop\n      jump\t// out\n        /* \"#utility.yul\":8578:8944   */\n    tag_195:\n        /* \"#utility.yul\":8720:8723   */\n      0x00\n        /* \"#utility.yul\":8741:8808   */\n      tag_297\n        /* \"#utility.yul\":8805:8807   */\n      0x28\n        /* \"#utility.yul\":8800:8803   */\n      dup4\n        /* \"#utility.yul\":8741:8808   */\n      tag_171\n      jump\t// in\n    tag_297:\n        /* \"#utility.yul\":8734:8808   */\n      swap2\n      pop\n        /* \"#utility.yul\":8817:8910   */\n      tag_298\n        /* \"#utility.yul\":8906:8909   */\n      dup3\n        /* \"#utility.yul\":8817:8910   */\n      tag_194\n      jump\t// in\n    tag_298:\n        /* \"#utility.yul\":8935:8937   */\n      0x40\n        /* \"#utility.yul\":8930:8933   */\n      dup3\n        /* \"#utility.yul\":8926:8938   */\n      add\n        /* \"#utility.yul\":8919:8938   */\n      swap1\n      pop\n        /* \"#utility.yul\":8578:8944   */\n      swap2\n      swap1\n      pop\n      jump\t// out\n        /* \"#utility.yul\":8950:9369   */\n    tag_124:\n        /* \"#utility.yul\":9116:9120   */\n      0x00\n        /* \"#utility.yul\":9154:9156   */\n      0x20\n        /* \"#utility.yul\":9143:9152   */\n      dup3\n        /* \"#utility.yul\":9139:9157   */\n      add\n        /* \"#utility.yul\":9131:9157   */\n      swap1\n      pop\n        /* \"#utility.yul\":9203:9212   */\n      dup2\n        /* \"#utility.yul\":9197:9201   */\n      dup2\n        /* \"#utility.yul\":9193:9213   */\n      sub\n        /* \"#utility.yul\":9189:9190   */\n      0x00\n        /* \"#utility.yul\":9178:9187   */\n      dup4\n        /* \"#utility.yul\":9174:9191   */\n      add\n        /* \"#utility.yul\":9167:9214   */\n      mstore\n        /* \"#utility.yul\":9231:9362   */\n      tag_300\n        /* \"#utility.yul\":9357:9361   */\n      dup2\n        /* \"#utility.yul\":9231:9362   */\n      tag_195\n      jump\t// in\n    tag_300:\n        /* \"#utility.yul\":9223:9362   */\n      swap1\n      pop\n        /* \"#utility.yul\":8950:9369   */\n      swap2\n      swap1\n      pop\n      jump\t// out\n        /* \"#utility.yul\":9375:9556   */\n    tag_196:\n        /* \"#utility.yul\":9515:9548   */\n      0x43616e6e6f74206d696e7420746f20746865207a65726f206164647265737300\n        /* \"#utility.yul\":9511:9512   */\n      0x00\n        /* \"#utility.yul\":9503:9509   */\n      dup3\n        /* \"#utility.yul\":9499:9513   */\n      add\n        /* \"#utility.yul\":9492:9549   */\n      mstore\n        /* \"#utility.yul\":9375:9556   */\n      pop\n      jump\t// out\n        /* \"#utility.yul\":9562:9928   */\n    tag_197:\n        /* \"#utility.yul\":9704:9707   */\n      0x00\n        /* \"#utility.yul\":9725:9792   */\n      tag_303\n        /* \"#utility.yul\":9789:9791   */\n      0x1f\n        /* \"#utility.yul\":9784:9787   */\n      dup4\n        /* \"#utility.yul\":9725:9792   */\n      tag_171\n      jump\t// in\n    tag_303:\n        /* \"#utility.yul\":9718:9792   */\n      swap2\n      pop\n        /* \"#utility.yul\":9801:9894   */\n      tag_304\n        /* \"#utility.yul\":9890:9893   */\n      dup3\n        /* \"#utility.yul\":9801:9894   */\n      tag_196\n      jump\t// in\n    tag_304:\n        /* \"#utility.yul\":9919:9921   */\n      0x20\n        /* \"#utility.yul\":9914:9917   */\n      dup3\n        /* \"#utility.yul\":9910:9922   */\n      add\n        /* \"#utility.yul\":9903:9922   */\n      swap1\n      pop\n        /* \"#utility.yul\":9562:9928   */\n      swap2\n      swap1\n      pop\n      jump\t// out\n        /* \"#utility.yul\":9934:10353   */\n    tag_132:\n        /* \"#utility.yul\":10100:10104   */\n      0x00\n        /* \"#utility.yul\":10138:10140   */\n      0x20\n        /* \"#utility.yul\":10127:10136   */\n      dup3\n        /* \"#utility.yul\":10123:10141   */\n      add\n        /* \"#utility.yul\":10115:10141   */\n      swap1\n      pop\n        /* \"#utility.yul\":10187:10196   */\n      dup2\n        /* \"#utility.yul\":10181:10185   */\n      dup2\n        /* \"#utility.yul\":10177:10197   */\n      sub\n        /* \"#utility.yul\":10173:10174   */\n      0x00\n        /* \"#utility.yul\":10162:10171   */\n      dup4\n        /* \"#utility.yul\":10158:10175   */\n      add\n        /* \"#utility.yul\":10151:10198   */\n      mstore\n        /* \"#utility.yul\":10215:10346   */\n      tag_306\n        /* \"#utility.yul\":10341:10345   */\n      dup2\n        /* \"#utility.yul\":10215:10346   */\n      tag_197\n      jump\t// in\n    tag_306:\n        /* \"#utility.yul\":10207:10346   */\n      swap1\n      pop\n        /* \"#utility.yul\":9934:10353   */\n      swap2\n      swap1\n      pop\n      jump\t// out\n        /* \"#utility.yul\":10359:10550   */\n    tag_134:\n        /* \"#utility.yul\":10399:10402   */\n      0x00\n        /* \"#utility.yul\":10418:10438   */\n      tag_308\n        /* \"#utility.yul\":10436:10437   */\n      dup3\n        /* \"#utility.yul\":10418:10438   */\n      tag_178\n      jump\t// in\n    tag_308:\n        /* \"#utility.yul\":10413:10438   */\n      swap2\n      pop\n        /* \"#utility.yul\":10452:10472   */\n      tag_309\n        /* \"#utility.yul\":10470:10471   */\n      dup4\n        /* \"#utility.yul\":10452:10472   */\n      tag_178\n      jump\t// in\n    tag_309:\n        /* \"#utility.yul\":10447:10472   */\n      swap3\n      pop\n        /* \"#utility.yul\":10495:10496   */\n      dup3\n        /* \"#utility.yul\":10492:10493   */\n      dup3\n        /* \"#utility.yul\":10488:10497   */\n      add\n        /* \"#utility.yul\":10481:10497   */\n      swap1\n      pop\n        /* \"#utility.yul\":10516:10519   */\n      dup1\n        /* \"#utility.yul\":10513:10514   */\n      dup3\n        /* \"#utility.yul\":10510:10520   */\n      gt\n        /* \"#utility.yul\":10507:10543   */\n      iszero\n      tag_310\n      jumpi\n        /* \"#utility.yul\":10523:10541   */\n      tag_311\n      tag_193\n      jump\t// in\n    tag_311:\n        /* \"#utility.yul\":10507:10543   */\n    tag_310:\n        /* \"#utility.yul\":10359:10550   */\n      swap3\n      swap2\n      pop\n      pop\n      jump\t// out\n        /* \"#utility.yul\":10556:10724   */\n    tag_198:\n        /* \"#utility.yul\":10696:10716   */\n      0x496e636f7272656374204554482073656e740000000000000000000000000000\n        /* \"#utility.yul\":10692:10693   */\n      0x00\n        /* \"#utility.yul\":10684:10690   */\n      dup3\n        /* \"#utility.yul\":10680:10694   */\n      add\n        /* \"#utility.yul\":10673:10717   */\n      mstore\n        /* \"#utility.yul\":10556:10724   */\n      pop\n      jump\t// out\n        /* \"#utility.yul\":10730:11096   */\n    tag_199:\n        /* \"#utility.yul\":10872:10875   */\n      0x00\n        /* \"#utility.yul\":10893:10960   */\n      tag_314\n        /* \"#utility.yul\":10957:10959   */\n      0x12\n        /* \"#utility.yul\":10952:10955   */\n      dup4\n        /* \"#utility.yul\":10893:10960   */\n      tag_171\n      jump\t// in\n    tag_314:\n        /* \"#utility.yul\":10886:10960   */\n      swap2\n      pop\n        /* \"#utility.yul\":10969:11062   */\n      tag_315\n        /* \"#utility.yul\":11058:11061   */\n      dup3\n        /* \"#utility.yul\":10969:11062   */\n      tag_198\n      jump\t// in\n    tag_315:\n        /* \"#utility.yul\":11087:11089   */\n      0x20\n        /* \"#utility.yul\":11082:11085   */\n      dup3\n        /* \"#utility.yul\":11078:11090   */\n      add\n        /* \"#utility.yul\":11071:11090   */\n      swap1\n      pop\n        /* \"#utility.yul\":10730:11096   */\n      swap2\n      swap1\n      pop\n      jump\t// out\n        /* \"#utility.yul\":11102:11521   */\n    tag_146:\n        /* \"#utility.yul\":11268:11272   */\n      0x00\n        /* \"#utility.yul\":11306:11308   */\n      0x20\n        /* \"#utility.yul\":11295:11304   */\n      dup3\n        /* \"#utility.yul\":11291:11309   */\n      add\n        /* \"#utility.yul\":11283:11309   */\n      swap1\n      pop\n        /* \"#utility.yul\":11355:11364   */\n      dup2\n        /* \"#utility.yul\":11349:11353   */\n      dup2\n        /* \"#utility.yul\":11345:11365   */\n      sub\n        /* \"#utility.yul\":11341:11342   */\n      0x00\n        /* \"#utility.yul\":11330:11339   */\n      dup4\n        /* \"#utility.yul\":11326:11343   */\n      add\n        /* \"#utility.yul\":11319:11366   */\n      mstore\n        /* \"#utility.yul\":11383:11514   */\n      tag_317\n        /* \"#utility.yul\":11509:11513   */\n      dup2\n        /* \"#utility.yul\":11383:11514   */\n      tag_199\n      jump\t// in\n    tag_317:\n        /* \"#utility.yul\":11375:11514   */\n      swap1\n      pop\n        /* \"#utility.yul\":11102:11521   */\n      swap2\n      swap1\n      pop\n      jump\t// out\n        /* \"#utility.yul\":11527:11697   */\n    tag_200:\n        /* \"#utility.yul\":11667:11689   */\n      0x496e73756666696369656e742062616c616e6365000000000000000000000000\n        /* \"#utility.yul\":11663:11664   */\n      0x00\n        /* \"#utility.yul\":11655:11661   */\n      dup3\n        /* \"#utility.yul\":11651:11665   */\n      add\n        /* \"#utility.yul\":11644:11690   */\n      mstore\n        /* \"#utility.yul\":11527:11697   */\n      pop\n      jump\t// out\n        /* \"#utility.yul\":11703:12069   */\n    tag_201:\n        /* \"#utility.yul\":11845:11848   */\n      0x00\n        /* \"#utility.yul\":11866:11933   */\n      tag_320\n        /* \"#utility.yul\":11930:11932   */\n      0x14\n        /* \"#utility.yul\":11925:11928   */\n      dup4\n        /* \"#utility.yul\":11866:11933   */\n      tag_171\n      jump\t// in\n    tag_320:\n        /* \"#utility.yul\":11859:11933   */\n      swap2\n      pop\n        /* \"#utility.yul\":11942:12035   */\n      tag_321\n        /* \"#utility.yul\":12031:12034   */\n      dup3\n        /* \"#utility.yul\":11942:12035   */\n      tag_200\n      jump\t// in\n    tag_321:\n        /* \"#utility.yul\":12060:12062   */\n      0x20\n        /* \"#utility.yul\":12055:12058   */\n      dup3\n        /* \"#utility.yul\":12051:12063   */\n      add\n        /* \"#utility.yul\":12044:12063   */\n      swap1\n      pop\n        /* \"#utility.yul\":11703:12069   */\n      swap2\n      swap1\n      pop\n      jump\t// out\n        /* \"#utility.yul\":12075:12494   */\n    tag_153:\n        /* \"#utility.yul\":12241:12245   */\n      0x00\n        /* \"#utility.yul\":12279:12281   */\n      0x20\n        /* \"#utility.yul\":12268:12277   */\n      dup3\n        /* \"#utility.yul\":12264:12282   */\n      add\n        /* \"#utility.yul\":12256:12282   */\n      swap1\n      pop\n        /* \"#utility.yul\":12328:12337   */\n      dup2\n        /* \"#utility.yul\":12322:12326   */\n      dup2\n        /* \"#utility.yul\":12318:12338   */\n      sub\n        /* \"#utility.yul\":12314:12315   */\n      0x00\n        /* \"#utility.yul\":12303:12312   */\n      dup4\n        /* \"#utility.yul\":12299:12316   */\n      add\n        /* \"#utility.yul\":12292:12339   */\n      mstore\n        /* \"#utility.yul\":12356:12487   */\n      tag_323\n        /* \"#utility.yul\":12482:12486   */\n      dup2\n        /* \"#utility.yul\":12356:12487   */\n      tag_201\n      jump\t// in\n    tag_323:\n        /* \"#utility.yul\":12348:12487   */\n      swap1\n      pop\n        /* \"#utility.yul\":12075:12494   */\n      swap2\n      swap1\n      pop\n      jump\t// out\n\n    auxdata: 0xa2646970667358221220c61825bc49641dbd31b7417774b629152862f12c091f3b822c036fe23e11eaa464736f6c634300081a0033\n}\n",
				"bytecode": {
					"linkReferences": {},
					"object": "60806040526040518060400160405280601481526020017f4672616374696f6e616c4173736574546f6b656e0000000000000000000000008152506004908161004891906103cf565b506040518060400160405280600381526020017f46415400000000000000000000000000000000000000000000000000000000008152506005908161008d91906103cf565b50601260065f6101000a81548160ff021916908360ff1602179055503480156100b4575f80fd5b50604051611b6b380380611b6b83398181016040528101906100d6919061061b565b838383828282825f90816100ea91906103cf565b5081600181905550806002908161010191906103cf565b503360035f6101000a81548173ffffffffffffffffffffffffffffffffffffffff021916908373ffffffffffffffffffffffffffffffffffffffff1602179055507f5e0d2597888948e599236eb45a35968b450146da0b5a9db5d3cb1c28c061a7ce83838333604051610177949392919061074d565b60405180910390a150505050505080600a819055505050505061079e565b5f81519050919050565b7f4e487b71000000000000000000000000000000000000000000000000000000005f52604160045260245ffd5b7f4e487b71000000000000000000000000000000000000000000000000000000005f52602260045260245ffd5b5f600282049050600182168061021057607f821691505b602082108103610223576102226101cc565b5b50919050565b5f819050815f5260205f209050919050565b5f6020601f8301049050919050565b5f82821b905092915050565b5f600883026102857fffffffffffffffffffffffffffffffffffffffffffffffffffffffffffffffff8261024a565b61028f868361024a565b95508019841693508086168417925050509392505050565b5f819050919050565b5f819050919050565b5f6102d36102ce6102c9846102a7565b6102b0565b6102a7565b9050919050565b5f819050919050565b6102ec836102b9565b6103006102f8826102da565b848454610256565b825550505050565b5f90565b610314610308565b61031f8184846102e3565b505050565b5b81811015610342576103375f8261030c565b600181019050610325565b5050565b601f8211156103875761035881610229565b6103618461023b565b81016020851015610370578190505b61038461037c8561023b565b830182610324565b50505b505050565b5f82821c905092915050565b5f6103a75f198460080261038c565b1980831691505092915050565b5f6103bf8383610398565b9150826002028217905092915050565b6103d882610195565b67ffffffffffffffff8111156103f1576103f061019f565b5b6103fb82546101f9565b610406828285610346565b5f60209050601f831160018114610437575f8415610425578287015190505b61042f85826103b4565b865550610496565b601f19841661044586610229565b5f5b8281101561046c57848901518255600182019150602085019450602081019050610447565b868310156104895784890151610485601f891682610398565b8355505b6001600288020188555050505b505050505050565b5f604051905090565b5f80fd5b5f80fd5b5f80fd5b5f80fd5b5f601f19601f8301169050919050565b6104d0826104b7565b810181811067ffffffffffffffff821117156104ef576104ee61019f565b5b80604052505050565b5f61050161049e565b905061050d82826104c7565b919050565b5f67ffffffffffffffff82111561052c5761052b61019f565b5b610535826104b7565b9050602081019050919050565b8281835e5f83830152505050565b5f61056261055d84610512565b6104f8565b90508281526020810184848401111561057e5761057d6104b3565b5b610589848285610542565b509392505050565b5f82601f8301126105a5576105a46104af565b5b81516105b5848260208601610550565b91505092915050565b5f819050919050565b6105d0816105be565b81146105da575f80fd5b50565b5f815190506105eb816105c7565b92915050565b6105fa816102a7565b8114610604575f80fd5b50565b5f81519050610615816105f1565b92915050565b5f805f8060808587031215610633576106326104a7565b5b5f85015167ffffffffffffffff8111156106505761064f6104ab565b5b61065c87828801610591565b945050602061066d878288016105dd565b935050604085015167ffffffffffffffff81111561068e5761068d6104ab565b5b61069a87828801610591565b92505060606106ab87828801610607565b91505092959194509250565b5f82825260208201905092915050565b5f6106d182610195565b6106db81856106b7565b93506106eb818560208601610542565b6106f4816104b7565b840191505092915050565b610708816105be565b82525050565b5f73ffffffffffffffffffffffffffffffffffffffff82169050919050565b5f6107378261070e565b9050919050565b6107478161072d565b82525050565b5f6080820190508181035f83015261076581876106c7565b905061077460208301866106ff565b818103604083015261078681856106c7565b9050610795606083018461073e565b95945050505050565b6113c0806107ab5f395ff3fe6080604052600436106100fd575f3560e01c806395d89b4111610094578063cc00dd1911610063578063cc00dd1914610309578063d24378eb14610333578063dd62ed3e1461035d578063de8f464214610399578063e45f2b8a146103c3576100fd565b806395d89b411461025d578063a457e1c014610287578063a9059cbb146102a3578063b2033ce7146102df576100fd565b80632eed8b95116100d05780632eed8b95146101a7578063313ce567146101cf57806340c10f19146101f957806370a0823114610221576100fd565b806302d05d3f1461010157806306fdde031461012b57806307480fd81461015557806318160ddd1461017d575b5f80fd5b34801561010c575f80fd5b506101156103ff565b6040516101229190610d8f565b60405180910390f35b348015610136575f80fd5b5061013f610424565b60405161014c9190610e18565b60405180910390f35b348015610160575f80fd5b5061017b60048036038101906101769190610e6f565b6104b0565b005b348015610188575f80fd5b50610191610642565b60405161019e9190610ea9565b60405180910390f35b3480156101b2575f80fd5b506101cd60048036038101906101c89190610e6f565b610648565b005b3480156101da575f80fd5b506101e36106e1565b6040516101f09190610edd565b60405180910390f35b348015610204575f80fd5b5061021f600480360381019061021a9190610f20565b6106f3565b005b34801561022c575f80fd5b5061024760048036038101906102429190610f5e565b6108c4565b6040516102549190610ea9565b60405180910390f35b348015610268575f80fd5b506102716108d9565b60405161027e9190610e18565b60405180910390f35b6102a1600480360381019061029c9190610e6f565b610965565b005b3480156102ae575f80fd5b506102c960048036038101906102c49190610f20565b610a62565b6040516102d69190610fa3565b60405180910390f35b3480156102ea575f80fd5b506102f3610bf8565b6040516103009190610e18565b60405180910390f35b348015610314575f80fd5b5061031d610c83565b60405161032a9190610e18565b60405180910390f35b34801561033e575f80fd5b50610347610d0f565b6040516103549190610ea9565b60405180910390f35b348015610368575f80fd5b50610383600480360381019061037e9190610fbc565b610d15565b6040516103909190610ea9565b60405180910390f35b3480156103a4575f80fd5b506103ad610d35565b6040516103ba9190611012565b60405180910390f35b3480156103ce575f80fd5b506103e960048036038101906103e49190610f5e565b610d3b565b6040516103f69190610ea9565b60405180910390f35b60035f9054906101000a900473ffffffffffffffffffffffffffffffffffffffff1681565b6004805461043190611058565b80601f016020809104026020016040519081016040528092919081815260200182805461045d90611058565b80156104a85780601f1061047f576101008083540402835291602001916104a8565b820191905f5260205f20905b81548152906001019060200180831161048b57829003601f168201915b505050505081565b8060085f3373ffffffffffffffffffffffffffffffffffffffff1673ffffffffffffffffffffffffffffffffffffffff1681526020019081526020015f20541015610530576040517f08c379a0000000000000000000000000000000000000000000000000000000008152600401610527906110d2565b60405180910390fd5b5f81600a5461053f919061111d565b90503373ffffffffffffffffffffffffffffffffffffffff166108fc8290811502906040515f60405180830381858888f19350505050158015610584573d5f803e3d5ffd5b508160085f3373ffffffffffffffffffffffffffffffffffffffff1673ffffffffffffffffffffffffffffffffffffffff1681526020019081526020015f205f8282546105d1919061115e565b925050819055508160075f8282546105e9919061115e565b925050819055503373ffffffffffffffffffffffffffffffffffffffff167f11228197cb47986d326f6c795b48b26c7bc662ab55f470bf5ee2ad68f4064594836040516106369190610ea9565b60405180910390a25050565b60075481565b60035f9054906101000a900473ffffffffffffffffffffffffffffffffffffffff1673ffffffffffffffffffffffffffffffffffffffff163373ffffffffffffffffffffffffffffffffffffffff16146106d7576040517f08c379a00000000000000000000000000000000000000000000000000000000081526004016106ce90611201565b60405180910390fd5b80600a8190555050565b60065f9054906101000a900460ff1681565b60035f9054906101000a900473ffffffffffffffffffffffffffffffffffffffff1673ffffffffffffffffffffffffffffffffffffffff163373ffffffffffffffffffffffffffffffffffffffff1614610782576040517f08c379a000000000000000000000000000000000000000000000000000000000815260040161077990611201565b60405180910390fd5b5f73ffffffffffffffffffffffffffffffffffffffff168273ffffffffffffffffffffffffffffffffffffffff16036107f0576040517f08c379a00000000000000000000000000000000000000000000000000000000081526004016107e790611269565b60405180910390fd5b8060075f8282546108019190611287565b925050819055508060085f8473ffffffffffffffffffffffffffffffffffffffff1673ffffffffffffffffffffffffffffffffffffffff1681526020019081526020015f205f8282546108549190611287565b925050819055508173ffffffffffffffffffffffffffffffffffffffff165f73ffffffffffffffffffffffffffffffffffffffff167fddf252ad1be2c89b69c2b068fc378daa952ba7f163c4a11628f55a4df523b3ef836040516108b89190610ea9565b60405180910390a35050565b6008602052805f5260405f205f915090505481565b600580546108e690611058565b80601f016020809104026020016040519081016040528092919081815260200182805461091290611058565b801561095d5780601f106109345761010080835404028352916020019161095d565b820191905f5260205f20905b81548152906001019060200180831161094057829003601f168201915b505050505081565b80600a54610973919061111d565b34146109b4576040517f08c379a00000000000000000000000000000000000000000000000000000000081526004016109ab90611304565b60405180910390fd5b6109be33826106f3565b80600b5f3373ffffffffffffffffffffffffffffffffffffffff1673ffffffffffffffffffffffffffffffffffffffff1681526020019081526020015f205f828254610a0a9190611287565b925050819055503373ffffffffffffffffffffffffffffffffffffffff167f42269b09224b40f0b303d85790b3f28f1f7eacbb8b6143bff10a541a559e499b82604051610a579190610ea9565b60405180910390a250565b5f8160085f3373ffffffffffffffffffffffffffffffffffffffff1673ffffffffffffffffffffffffffffffffffffffff1681526020019081526020015f20541015610ae3576040517f08c379a0000000000000000000000000000000000000000000000000000000008152600401610ada9061136c565b60405180910390fd5b8160085f3373ffffffffffffffffffffffffffffffffffffffff1673ffffffffffffffffffffffffffffffffffffffff1681526020019081526020015f205f828254610b2f919061115e565b925050819055508160085f8573ffffffffffffffffffffffffffffffffffffffff1673ffffffffffffffffffffffffffffffffffffffff1681526020019081526020015f205f828254610b829190611287565b925050819055508273ffffffffffffffffffffffffffffffffffffffff163373ffffffffffffffffffffffffffffffffffffffff167fddf252ad1be2c89b69c2b068fc378daa952ba7f163c4a11628f55a4df523b3ef84604051610be69190610ea9565b60405180910390a36001905092915050565b5f8054610c0490611058565b80601f0160208091040260200160405190810160405280929190818152602001828054610c3090611058565b8015610c7b5780601f10610c5257610100808354040283529160200191610c7b565b820191905f5260205f20905b815481529060010190602001808311610c5e57829003601f168201915b505050505081565b60028054610c9090611058565b80601f0160208091040260200160405190810160405280929190818152602001828054610cbc90611058565b8015610d075780601f10610cde57610100808354040283529160200191610d07565b820191905f5260205f20905b815481529060010190602001808311610cea57829003601f168201915b505050505081565b600a5481565b6009602052815f5260405f20602052805f5260405f205f91509150505481565b60015481565b600b602052805f5260405f205f915090505481565b5f73ffffffffffffffffffffffffffffffffffffffff82169050919050565b5f610d7982610d50565b9050919050565b610d8981610d6f565b82525050565b5f602082019050610da25f830184610d80565b92915050565b5f81519050919050565b5f82825260208201905092915050565b8281835e5f83830152505050565b5f601f19601f8301169050919050565b5f610dea82610da8565b610df48185610db2565b9350610e04818560208601610dc2565b610e0d81610dd0565b840191505092915050565b5f6020820190508181035f830152610e308184610de0565b905092915050565b5f80fd5b5f819050919050565b610e4e81610e3c565b8114610e58575f80fd5b50565b5f81359050610e6981610e45565b92915050565b5f60208284031215610e8457610e83610e38565b5b5f610e9184828501610e5b565b91505092915050565b610ea381610e3c565b82525050565b5f602082019050610ebc5f830184610e9a565b92915050565b5f60ff82169050919050565b610ed781610ec2565b82525050565b5f602082019050610ef05f830184610ece565b92915050565b610eff81610d6f565b8114610f09575f80fd5b50565b5f81359050610f1a81610ef6565b92915050565b5f8060408385031215610f3657610f35610e38565b5b5f610f4385828601610f0c565b9250506020610f5485828601610e5b565b9150509250929050565b5f60208284031215610f7357610f72610e38565b5b5f610f8084828501610f0c565b91505092915050565b5f8115159050919050565b610f9d81610f89565b82525050565b5f602082019050610fb65f830184610f94565b92915050565b5f8060408385031215610fd257610fd1610e38565b5b5f610fdf85828601610f0c565b9250506020610ff085828601610f0c565b9150509250929050565b5f819050919050565b61100c81610ffa565b82525050565b5f6020820190506110255f830184611003565b92915050565b7f4e487b71000000000000000000000000000000000000000000000000000000005f52602260045260245ffd5b5f600282049050600182168061106f57607f821691505b6020821081036110825761108161102b565b5b50919050565b7f496e73756666696369656e742062616c616e636520746f2073656c6c000000005f82015250565b5f6110bc601c83610db2565b91506110c782611088565b602082019050919050565b5f6020820190508181035f8301526110e9816110b0565b9050919050565b7f4e487b71000000000000000000000000000000000000000000000000000000005f52601160045260245ffd5b5f61112782610e3c565b915061113283610e3c565b925082820261114081610e3c565b91508282048414831517611157576111566110f0565b5b5092915050565b5f61116882610e3c565b915061117383610e3c565b925082820390508181111561118b5761118a6110f0565b5b92915050565b7f4f6e6c79207468652063726561746f722063616e20706572666f726d207468695f8201527f7320616374696f6e000000000000000000000000000000000000000000000000602082015250565b5f6111eb602883610db2565b91506111f682611191565b604082019050919050565b5f6020820190508181035f830152611218816111df565b9050919050565b7f43616e6e6f74206d696e7420746f20746865207a65726f2061646472657373005f82015250565b5f611253601f83610db2565b915061125e8261121f565b602082019050919050565b5f6020820190508181035f83015261128081611247565b9050919050565b5f61129182610e3c565b915061129c83610e3c565b92508282019050808211156112b4576112b36110f0565b5b92915050565b7f496e636f7272656374204554482073656e7400000000000000000000000000005f82015250565b5f6112ee601283610db2565b91506112f9826112ba565b602082019050919050565b5f6020820190508181035f83015261131b816112e2565b9050919050565b7f496e73756666696369656e742062616c616e63650000000000000000000000005f82015250565b5f611356601483610db2565b915061136182611322565b602082019050919050565b5f6020820190508181035f8301526113838161134a565b905091905056fea2646970667358221220c61825bc49641dbd31b7417774b629152862f12c091f3b822c036fe23e11eaa464736f6c634300081a0033",
					"opcodes": "PUSH1 0x80 PUSH1 0x40 MSTORE PUSH1 0x40 MLOAD DUP1 PUSH1 0x40 ADD PUSH1 0x40 MSTORE DUP1 PUSH1 0x14 DUP2 MSTORE PUSH1 0x20 ADD PUSH32 0x4672616374696F6E616C4173736574546F6B656E000000000000000000000000 DUP2 MSTORE POP PUSH1 0x4 SWAP1 DUP2 PUSH2 0x48 SWAP2 SWAP1 PUSH2 0x3CF JUMP JUMPDEST POP PUSH1 0x40 MLOAD DUP1 PUSH1 0x40 ADD PUSH1 0x40 MSTORE DUP1 PUSH1 0x3 DUP2 MSTORE PUSH1 0x20 ADD PUSH32 0x4641540000000000000000000000000000000000000000000000000000000000 DUP2 MSTORE POP PUSH1 0x5 SWAP1 DUP2 PUSH2 0x8D SWAP2 SWAP1 PUSH2 0x3CF JUMP JUMPDEST POP PUSH1 0x12 PUSH1 0x6 PUSH0 PUSH2 0x100 EXP DUP2 SLOAD DUP2 PUSH1 0xFF MUL NOT AND SWAP1 DUP4 PUSH1 0xFF AND MUL OR SWAP1 SSTORE POP CALLVALUE DUP1 ISZERO PUSH2 0xB4 JUMPI PUSH0 DUP1 REVERT JUMPDEST POP PUSH1 0x40 MLOAD PUSH2 0x1B6B CODESIZE SUB DUP1 PUSH2 0x1B6B DUP4 CODECOPY DUP2 DUP2 ADD PUSH1 0x40 MSTORE DUP2 ADD SWAP1 PUSH2 0xD6 SWAP2 SWAP1 PUSH2 0x61B JUMP JUMPDEST DUP4 DUP4 DUP4 DUP3 DUP3 DUP3 DUP3 PUSH0 SWAP1 DUP2 PUSH2 0xEA SWAP2 SWAP1 PUSH2 0x3CF JUMP JUMPDEST POP DUP2 PUSH1 0x1 DUP2 SWAP1 SSTORE POP DUP1 PUSH1 0x2 SWAP1 DUP2 PUSH2 0x101 SWAP2 SWAP1 PUSH2 0x3CF JUMP JUMPDEST POP CALLER PUSH1 0x3 PUSH0 PUSH2 0x100 EXP DUP2 SLOAD DUP2 PUSH20 0xFFFFFFFFFFFFFFFFFFFFFFFFFFFFFFFFFFFFFFFF MUL NOT AND SWAP1 DUP4 PUSH20 0xFFFFFFFFFFFFFFFFFFFFFFFFFFFFFFFFFFFFFFFF AND MUL OR SWAP1 SSTORE POP PUSH32 0x5E0D2597888948E599236EB45A35968B450146DA0B5A9DB5D3CB1C28C061A7CE DUP4 DUP4 DUP4 CALLER PUSH1 0x40 MLOAD PUSH2 0x177 SWAP5 SWAP4 SWAP3 SWAP2 SWAP1 PUSH2 0x74D JUMP JUMPDEST PUSH1 0x40 MLOAD DUP1 SWAP2 SUB SWAP1 LOG1 POP POP POP POP POP POP DUP1 PUSH1 0xA DUP2 SWAP1 SSTORE POP POP POP POP POP PUSH2 0x79E JUMP JUMPDEST PUSH0 DUP2 MLOAD SWAP1 POP SWAP2 SWAP1 POP JUMP JUMPDEST PUSH32 0x4E487B7100000000000000000000000000000000000000000000000000000000 PUSH0 MSTORE PUSH1 0x41 PUSH1 0x4 MSTORE PUSH1 0x24 PUSH0 REVERT JUMPDEST PUSH32 0x4E487B7100000000000000000000000000000000000000000000000000000000 PUSH0 MSTORE PUSH1 0x22 PUSH1 0x4 MSTORE PUSH1 0x24 PUSH0 REVERT JUMPDEST PUSH0 PUSH1 0x2 DUP3 DIV SWAP1 POP PUSH1 0x1 DUP3 AND DUP1 PUSH2 0x210 JUMPI PUSH1 0x7F DUP3 AND SWAP2 POP JUMPDEST PUSH1 0x20 DUP3 LT DUP2 SUB PUSH2 0x223 JUMPI PUSH2 0x222 PUSH2 0x1CC JUMP JUMPDEST JUMPDEST POP SWAP2 SWAP1 POP JUMP JUMPDEST PUSH0 DUP2 SWAP1 POP DUP2 PUSH0 MSTORE PUSH1 0x20 PUSH0 KECCAK256 SWAP1 POP SWAP2 SWAP1 POP JUMP JUMPDEST PUSH0 PUSH1 0x20 PUSH1 0x1F DUP4 ADD DIV SWAP1 POP SWAP2 SWAP1 POP JUMP JUMPDEST PUSH0 DUP3 DUP3 SHL SWAP1 POP SWAP3 SWAP2 POP POP JUMP JUMPDEST PUSH0 PUSH1 0x8 DUP4 MUL PUSH2 0x285 PUSH32 0xFFFFFFFFFFFFFFFFFFFFFFFFFFFFFFFFFFFFFFFFFFFFFFFFFFFFFFFFFFFFFFFF DUP3 PUSH2 0x24A JUMP JUMPDEST PUSH2 0x28F DUP7 DUP4 PUSH2 0x24A JUMP JUMPDEST SWAP6 POP DUP1 NOT DUP5 AND SWAP4 POP DUP1 DUP7 AND DUP5 OR SWAP3 POP POP POP SWAP4 SWAP3 POP POP POP JUMP JUMPDEST PUSH0 DUP2 SWAP1 POP SWAP2 SWAP1 POP JUMP JUMPDEST PUSH0 DUP2 SWAP1 POP SWAP2 SWAP1 POP JUMP JUMPDEST PUSH0 PUSH2 0x2D3 PUSH2 0x2CE PUSH2 0x2C9 DUP5 PUSH2 0x2A7 JUMP JUMPDEST PUSH2 0x2B0 JUMP JUMPDEST PUSH2 0x2A7 JUMP JUMPDEST SWAP1 POP SWAP2 SWAP1 POP JUMP JUMPDEST PUSH0 DUP2 SWAP1 POP SWAP2 SWAP1 POP JUMP JUMPDEST PUSH2 0x2EC DUP4 PUSH2 0x2B9 JUMP JUMPDEST PUSH2 0x300 PUSH2 0x2F8 DUP3 PUSH2 0x2DA JUMP JUMPDEST DUP5 DUP5 SLOAD PUSH2 0x256 JUMP JUMPDEST DUP3 SSTORE POP POP POP POP JUMP JUMPDEST PUSH0 SWAP1 JUMP JUMPDEST PUSH2 0x314 PUSH2 0x308 JUMP JUMPDEST PUSH2 0x31F DUP2 DUP5 DUP5 PUSH2 0x2E3 JUMP JUMPDEST POP POP POP JUMP JUMPDEST JUMPDEST DUP2 DUP2 LT ISZERO PUSH2 0x342 JUMPI PUSH2 0x337 PUSH0 DUP3 PUSH2 0x30C JUMP JUMPDEST PUSH1 0x1 DUP2 ADD SWAP1 POP PUSH2 0x325 JUMP JUMPDEST POP POP JUMP JUMPDEST PUSH1 0x1F DUP3 GT ISZERO PUSH2 0x387 JUMPI PUSH2 0x358 DUP2 PUSH2 0x229 JUMP JUMPDEST PUSH2 0x361 DUP5 PUSH2 0x23B JUMP JUMPDEST DUP2 ADD PUSH1 0x20 DUP6 LT ISZERO PUSH2 0x370 JUMPI DUP2 SWAP1 POP JUMPDEST PUSH2 0x384 PUSH2 0x37C DUP6 PUSH2 0x23B JUMP JUMPDEST DUP4 ADD DUP3 PUSH2 0x324 JUMP JUMPDEST POP POP JUMPDEST POP POP POP JUMP JUMPDEST PUSH0 DUP3 DUP3 SHR SWAP1 POP SWAP3 SWAP2 POP POP JUMP JUMPDEST PUSH0 PUSH2 0x3A7 PUSH0 NOT DUP5 PUSH1 0x8 MUL PUSH2 0x38C JUMP JUMPDEST NOT DUP1 DUP4 AND SWAP2 POP POP SWAP3 SWAP2 POP POP JUMP JUMPDEST PUSH0 PUSH2 0x3BF DUP4 DUP4 PUSH2 0x398 JUMP JUMPDEST SWAP2 POP DUP3 PUSH1 0x2 MUL DUP3 OR SWAP1 POP SWAP3 SWAP2 POP POP JUMP JUMPDEST PUSH2 0x3D8 DUP3 PUSH2 0x195 JUMP JUMPDEST PUSH8 0xFFFFFFFFFFFFFFFF DUP2 GT ISZERO PUSH2 0x3F1 JUMPI PUSH2 0x3F0 PUSH2 0x19F JUMP JUMPDEST JUMPDEST PUSH2 0x3FB DUP3 SLOAD PUSH2 0x1F9 JUMP JUMPDEST PUSH2 0x406 DUP3 DUP3 DUP6 PUSH2 0x346 JUMP JUMPDEST PUSH0 PUSH1 0x20 SWAP1 POP PUSH1 0x1F DUP4 GT PUSH1 0x1 DUP2 EQ PUSH2 0x437 JUMPI PUSH0 DUP5 ISZERO PUSH2 0x425 JUMPI DUP3 DUP8 ADD MLOAD SWAP1 POP JUMPDEST PUSH2 0x42F DUP6 DUP3 PUSH2 0x3B4 JUMP JUMPDEST DUP7 SSTORE POP PUSH2 0x496 JUMP JUMPDEST PUSH1 0x1F NOT DUP5 AND PUSH2 0x445 DUP7 PUSH2 0x229 JUMP JUMPDEST PUSH0 JUMPDEST DUP3 DUP2 LT ISZERO PUSH2 0x46C JUMPI DUP5 DUP10 ADD MLOAD DUP3 SSTORE PUSH1 0x1 DUP3 ADD SWAP2 POP PUSH1 0x20 DUP6 ADD SWAP5 POP PUSH1 0x20 DUP2 ADD SWAP1 POP PUSH2 0x447 JUMP JUMPDEST DUP7 DUP4 LT ISZERO PUSH2 0x489 JUMPI DUP5 DUP10 ADD MLOAD PUSH2 0x485 PUSH1 0x1F DUP10 AND DUP3 PUSH2 0x398 JUMP JUMPDEST DUP4 SSTORE POP JUMPDEST PUSH1 0x1 PUSH1 0x2 DUP9 MUL ADD DUP9 SSTORE POP POP POP JUMPDEST POP POP POP POP POP POP JUMP JUMPDEST PUSH0 PUSH1 0x40 MLOAD SWAP1 POP SWAP1 JUMP JUMPDEST PUSH0 DUP1 REVERT JUMPDEST PUSH0 DUP1 REVERT JUMPDEST PUSH0 DUP1 REVERT JUMPDEST PUSH0 DUP1 REVERT JUMPDEST PUSH0 PUSH1 0x1F NOT PUSH1 0x1F DUP4 ADD AND SWAP1 POP SWAP2 SWAP1 POP JUMP JUMPDEST PUSH2 0x4D0 DUP3 PUSH2 0x4B7 JUMP JUMPDEST DUP2 ADD DUP2 DUP2 LT PUSH8 0xFFFFFFFFFFFFFFFF DUP3 GT OR ISZERO PUSH2 0x4EF JUMPI PUSH2 0x4EE PUSH2 0x19F JUMP JUMPDEST JUMPDEST DUP1 PUSH1 0x40 MSTORE POP POP POP JUMP JUMPDEST PUSH0 PUSH2 0x501 PUSH2 0x49E JUMP JUMPDEST SWAP1 POP PUSH2 0x50D DUP3 DUP3 PUSH2 0x4C7 JUMP JUMPDEST SWAP2 SWAP1 POP JUMP JUMPDEST PUSH0 PUSH8 0xFFFFFFFFFFFFFFFF DUP3 GT ISZERO PUSH2 0x52C JUMPI PUSH2 0x52B PUSH2 0x19F JUMP JUMPDEST JUMPDEST PUSH2 0x535 DUP3 PUSH2 0x4B7 JUMP JUMPDEST SWAP1 POP PUSH1 0x20 DUP2 ADD SWAP1 POP SWAP2 SWAP1 POP JUMP JUMPDEST DUP3 DUP2 DUP4 MCOPY PUSH0 DUP4 DUP4 ADD MSTORE POP POP POP JUMP JUMPDEST PUSH0 PUSH2 0x562 PUSH2 0x55D DUP5 PUSH2 0x512 JUMP JUMPDEST PUSH2 0x4F8 JUMP JUMPDEST SWAP1 POP DUP3 DUP2 MSTORE PUSH1 0x20 DUP2 ADD DUP5 DUP5 DUP5 ADD GT ISZERO PUSH2 0x57E JUMPI PUSH2 0x57D PUSH2 0x4B3 JUMP JUMPDEST JUMPDEST PUSH2 0x589 DUP5 DUP3 DUP6 PUSH2 0x542 JUMP JUMPDEST POP SWAP4 SWAP3 POP POP POP JUMP JUMPDEST PUSH0 DUP3 PUSH1 0x1F DUP4 ADD SLT PUSH2 0x5A5 JUMPI PUSH2 0x5A4 PUSH2 0x4AF JUMP JUMPDEST JUMPDEST DUP2 MLOAD PUSH2 0x5B5 DUP5 DUP3 PUSH1 0x20 DUP7 ADD PUSH2 0x550 JUMP JUMPDEST SWAP2 POP POP SWAP3 SWAP2 POP POP JUMP JUMPDEST PUSH0 DUP2 SWAP1 POP SWAP2 SWAP1 POP JUMP JUMPDEST PUSH2 0x5D0 DUP2 PUSH2 0x5BE JUMP JUMPDEST DUP2 EQ PUSH2 0x5DA JUMPI PUSH0 DUP1 REVERT JUMPDEST POP JUMP JUMPDEST PUSH0 DUP2 MLOAD SWAP1 POP PUSH2 0x5EB DUP2 PUSH2 0x5C7 JUMP JUMPDEST SWAP3 SWAP2 POP POP JUMP JUMPDEST PUSH2 0x5FA DUP2 PUSH2 0x2A7 JUMP JUMPDEST DUP2 EQ PUSH2 0x604 JUMPI PUSH0 DUP1 REVERT JUMPDEST POP JUMP JUMPDEST PUSH0 DUP2 MLOAD SWAP1 POP PUSH2 0x615 DUP2 PUSH2 0x5F1 JUMP JUMPDEST SWAP3 SWAP2 POP POP JUMP JUMPDEST PUSH0 DUP1 PUSH0 DUP1 PUSH1 0x80 DUP6 DUP8 SUB SLT ISZERO PUSH2 0x633 JUMPI PUSH2 0x632 PUSH2 0x4A7 JUMP JUMPDEST JUMPDEST PUSH0 DUP6 ADD MLOAD PUSH8 0xFFFFFFFFFFFFFFFF DUP2 GT ISZERO PUSH2 0x650 JUMPI PUSH2 0x64F PUSH2 0x4AB JUMP JUMPDEST JUMPDEST PUSH2 0x65C DUP8 DUP3 DUP9 ADD PUSH2 0x591 JUMP JUMPDEST SWAP5 POP POP PUSH1 0x20 PUSH2 0x66D DUP8 DUP3 DUP9 ADD PUSH2 0x5DD JUMP JUMPDEST SWAP4 POP POP PUSH1 0x40 DUP6 ADD MLOAD PUSH8 0xFFFFFFFFFFFFFFFF DUP2 GT ISZERO PUSH2 0x68E JUMPI PUSH2 0x68D PUSH2 0x4AB JUMP JUMPDEST JUMPDEST PUSH2 0x69A DUP8 DUP3 DUP9 ADD PUSH2 0x591 JUMP JUMPDEST SWAP3 POP POP PUSH1 0x60 PUSH2 0x6AB DUP8 DUP3 DUP9 ADD PUSH2 0x607 JUMP JUMPDEST SWAP2 POP POP SWAP3 SWAP6 SWAP2 SWAP5 POP SWAP3 POP JUMP JUMPDEST PUSH0 DUP3 DUP3 MSTORE PUSH1 0x20 DUP3 ADD SWAP1 POP SWAP3 SWAP2 POP POP JUMP JUMPDEST PUSH0 PUSH2 0x6D1 DUP3 PUSH2 0x195 JUMP JUMPDEST PUSH2 0x6DB DUP2 DUP6 PUSH2 0x6B7 JUMP JUMPDEST SWAP4 POP PUSH2 0x6EB DUP2 DUP6 PUSH1 0x20 DUP7 ADD PUSH2 0x542 JUMP JUMPDEST PUSH2 0x6F4 DUP2 PUSH2 0x4B7 JUMP JUMPDEST DUP5 ADD SWAP2 POP POP SWAP3 SWAP2 POP POP JUMP JUMPDEST PUSH2 0x708 DUP2 PUSH2 0x5BE JUMP JUMPDEST DUP3 MSTORE POP POP JUMP JUMPDEST PUSH0 PUSH20 0xFFFFFFFFFFFFFFFFFFFFFFFFFFFFFFFFFFFFFFFF DUP3 AND SWAP1 POP SWAP2 SWAP1 POP JUMP JUMPDEST PUSH0 PUSH2 0x737 DUP3 PUSH2 0x70E JUMP JUMPDEST SWAP1 POP SWAP2 SWAP1 POP JUMP JUMPDEST PUSH2 0x747 DUP2 PUSH2 0x72D JUMP JUMPDEST DUP3 MSTORE POP POP JUMP JUMPDEST PUSH0 PUSH1 0x80 DUP3 ADD SWAP1 POP DUP2 DUP2 SUB PUSH0 DUP4 ADD MSTORE PUSH2 0x765 DUP2 DUP8 PUSH2 0x6C7 JUMP JUMPDEST SWAP1 POP PUSH2 0x774 PUSH1 0x20 DUP4 ADD DUP7 PUSH2 0x6FF JUMP JUMPDEST DUP2 DUP2 SUB PUSH1 0x40 DUP4 ADD MSTORE PUSH2 0x786 DUP2 DUP6 PUSH2 0x6C7 JUMP JUMPDEST SWAP1 POP PUSH2 0x795 PUSH1 0x60 DUP4 ADD DUP5 PUSH2 0x73E JUMP JUMPDEST SWAP6 SWAP5 POP POP POP POP POP JUMP JUMPDEST PUSH2 0x13C0 DUP1 PUSH2 0x7AB PUSH0 CODECOPY PUSH0 RETURN INVALID PUSH1 0x80 PUSH1 0x40 MSTORE PUSH1 0x4 CALLDATASIZE LT PUSH2 0xFD JUMPI PUSH0 CALLDATALOAD PUSH1 0xE0 SHR DUP1 PUSH4 0x95D89B41 GT PUSH2 0x94 JUMPI DUP1 PUSH4 0xCC00DD19 GT PUSH2 0x63 JUMPI DUP1 PUSH4 0xCC00DD19 EQ PUSH2 0x309 JUMPI DUP1 PUSH4 0xD24378EB EQ PUSH2 0x333 JUMPI DUP1 PUSH4 0xDD62ED3E EQ PUSH2 0x35D JUMPI DUP1 PUSH4 0xDE8F4642 EQ PUSH2 0x399 JUMPI DUP1 PUSH4 0xE45F2B8A EQ PUSH2 0x3C3 JUMPI PUSH2 0xFD JUMP JUMPDEST DUP1 PUSH4 0x95D89B41 EQ PUSH2 0x25D JUMPI DUP1 PUSH4 0xA457E1C0 EQ PUSH2 0x287 JUMPI DUP1 PUSH4 0xA9059CBB EQ PUSH2 0x2A3 JUMPI DUP1 PUSH4 0xB2033CE7 EQ PUSH2 0x2DF JUMPI PUSH2 0xFD JUMP JUMPDEST DUP1 PUSH4 0x2EED8B95 GT PUSH2 0xD0 JUMPI DUP1 PUSH4 0x2EED8B95 EQ PUSH2 0x1A7 JUMPI DUP1 PUSH4 0x313CE567 EQ PUSH2 0x1CF JUMPI DUP1 PUSH4 0x40C10F19 EQ PUSH2 0x1F9 JUMPI DUP1 PUSH4 0x70A08231 EQ PUSH2 0x221 JUMPI PUSH2 0xFD JUMP JUMPDEST DUP1 PUSH4 0x2D05D3F EQ PUSH2 0x101 JUMPI DUP1 PUSH4 0x6FDDE03 EQ PUSH2 0x12B JUMPI DUP1 PUSH4 0x7480FD8 EQ PUSH2 0x155 JUMPI DUP1 PUSH4 0x18160DDD EQ PUSH2 0x17D JUMPI JUMPDEST PUSH0 DUP1 REVERT JUMPDEST CALLVALUE DUP1 ISZERO PUSH2 0x10C JUMPI PUSH0 DUP1 REVERT JUMPDEST POP PUSH2 0x115 PUSH2 0x3FF JUMP JUMPDEST PUSH1 0x40 MLOAD PUSH2 0x122 SWAP2 SWAP1 PUSH2 0xD8F JUMP JUMPDEST PUSH1 0x40 MLOAD DUP1 SWAP2 SUB SWAP1 RETURN JUMPDEST CALLVALUE DUP1 ISZERO PUSH2 0x136 JUMPI PUSH0 DUP1 REVERT JUMPDEST POP PUSH2 0x13F PUSH2 0x424 JUMP JUMPDEST PUSH1 0x40 MLOAD PUSH2 0x14C SWAP2 SWAP1 PUSH2 0xE18 JUMP JUMPDEST PUSH1 0x40 MLOAD DUP1 SWAP2 SUB SWAP1 RETURN JUMPDEST CALLVALUE DUP1 ISZERO PUSH2 0x160 JUMPI PUSH0 DUP1 REVERT JUMPDEST POP PUSH2 0x17B PUSH1 0x4 DUP1 CALLDATASIZE SUB DUP2 ADD SWAP1 PUSH2 0x176 SWAP2 SWAP1 PUSH2 0xE6F JUMP JUMPDEST PUSH2 0x4B0 JUMP JUMPDEST STOP JUMPDEST CALLVALUE DUP1 ISZERO PUSH2 0x188 JUMPI PUSH0 DUP1 REVERT JUMPDEST POP PUSH2 0x191 PUSH2 0x642 JUMP JUMPDEST PUSH1 0x40 MLOAD PUSH2 0x19E SWAP2 SWAP1 PUSH2 0xEA9 JUMP JUMPDEST PUSH1 0x40 MLOAD DUP1 SWAP2 SUB SWAP1 RETURN JUMPDEST CALLVALUE DUP1 ISZERO PUSH2 0x1B2 JUMPI PUSH0 DUP1 REVERT JUMPDEST POP PUSH2 0x1CD PUSH1 0x4 DUP1 CALLDATASIZE SUB DUP2 ADD SWAP1 PUSH2 0x1C8 SWAP2 SWAP1 PUSH2 0xE6F JUMP JUMPDEST PUSH2 0x648 JUMP JUMPDEST STOP JUMPDEST CALLVALUE DUP1 ISZERO PUSH2 0x1DA JUMPI PUSH0 DUP1 REVERT JUMPDEST POP PUSH2 0x1E3 PUSH2 0x6E1 JUMP JUMPDEST PUSH1 0x40 MLOAD PUSH2 0x1F0 SWAP2 SWAP1 PUSH2 0xEDD JUMP JUMPDEST PUSH1 0x40 MLOAD DUP1 SWAP2 SUB SWAP1 RETURN JUMPDEST CALLVALUE DUP1 ISZERO PUSH2 0x204 JUMPI PUSH0 DUP1 REVERT JUMPDEST POP PUSH2 0x21F PUSH1 0x4 DUP1 CALLDATASIZE SUB DUP2 ADD SWAP1 PUSH2 0x21A SWAP2 SWAP1 PUSH2 0xF20 JUMP JUMPDEST PUSH2 0x6F3 JUMP JUMPDEST STOP JUMPDEST CALLVALUE DUP1 ISZERO PUSH2 0x22C JUMPI PUSH0 DUP1 REVERT JUMPDEST POP PUSH2 0x247 PUSH1 0x4 DUP1 CALLDATASIZE SUB DUP2 ADD SWAP1 PUSH2 0x242 SWAP2 SWAP1 PUSH2 0xF5E JUMP JUMPDEST PUSH2 0x8C4 JUMP JUMPDEST PUSH1 0x40 MLOAD PUSH2 0x254 SWAP2 SWAP1 PUSH2 0xEA9 JUMP JUMPDEST PUSH1 0x40 MLOAD DUP1 SWAP2 SUB SWAP1 RETURN JUMPDEST CALLVALUE DUP1 ISZERO PUSH2 0x268 JUMPI PUSH0 DUP1 REVERT JUMPDEST POP PUSH2 0x271 PUSH2 0x8D9 JUMP JUMPDEST PUSH1 0x40 MLOAD PUSH2 0x27E SWAP2 SWAP1 PUSH2 0xE18 JUMP JUMPDEST PUSH1 0x40 MLOAD DUP1 SWAP2 SUB SWAP1 RETURN JUMPDEST PUSH2 0x2A1 PUSH1 0x4 DUP1 CALLDATASIZE SUB DUP2 ADD SWAP1 PUSH2 0x29C SWAP2 SWAP1 PUSH2 0xE6F JUMP JUMPDEST PUSH2 0x965 JUMP JUMPDEST STOP JUMPDEST CALLVALUE DUP1 ISZERO PUSH2 0x2AE JUMPI PUSH0 DUP1 REVERT JUMPDEST POP PUSH2 0x2C9 PUSH1 0x4 DUP1 CALLDATASIZE SUB DUP2 ADD SWAP1 PUSH2 0x2C4 SWAP2 SWAP1 PUSH2 0xF20 JUMP JUMPDEST PUSH2 0xA62 JUMP JUMPDEST PUSH1 0x40 MLOAD PUSH2 0x2D6 SWAP2 SWAP1 PUSH2 0xFA3 JUMP JUMPDEST PUSH1 0x40 MLOAD DUP1 SWAP2 SUB SWAP1 RETURN JUMPDEST CALLVALUE DUP1 ISZERO PUSH2 0x2EA JUMPI PUSH0 DUP1 REVERT JUMPDEST POP PUSH2 0x2F3 PUSH2 0xBF8 JUMP JUMPDEST PUSH1 0x40 MLOAD PUSH2 0x300 SWAP2 SWAP1 PUSH2 0xE18 JUMP JUMPDEST PUSH1 0x40 MLOAD DUP1 SWAP2 SUB SWAP1 RETURN JUMPDEST CALLVALUE DUP1 ISZERO PUSH2 0x314 JUMPI PUSH0 DUP1 REVERT JUMPDEST POP PUSH2 0x31D PUSH2 0xC83 JUMP JUMPDEST PUSH1 0x40 MLOAD PUSH2 0x32A SWAP2 SWAP1 PUSH2 0xE18 JUMP JUMPDEST PUSH1 0x40 MLOAD DUP1 SWAP2 SUB SWAP1 RETURN JUMPDEST CALLVALUE DUP1 ISZERO PUSH2 0x33E JUMPI PUSH0 DUP1 REVERT JUMPDEST POP PUSH2 0x347 PUSH2 0xD0F JUMP JUMPDEST PUSH1 0x40 MLOAD PUSH2 0x354 SWAP2 SWAP1 PUSH2 0xEA9 JUMP JUMPDEST PUSH1 0x40 MLOAD DUP1 SWAP2 SUB SWAP1 RETURN JUMPDEST CALLVALUE DUP1 ISZERO PUSH2 0x368 JUMPI PUSH0 DUP1 REVERT JUMPDEST POP PUSH2 0x383 PUSH1 0x4 DUP1 CALLDATASIZE SUB DUP2 ADD SWAP1 PUSH2 0x37E SWAP2 SWAP1 PUSH2 0xFBC JUMP JUMPDEST PUSH2 0xD15 JUMP JUMPDEST PUSH1 0x40 MLOAD PUSH2 0x390 SWAP2 SWAP1 PUSH2 0xEA9 JUMP JUMPDEST PUSH1 0x40 MLOAD DUP1 SWAP2 SUB SWAP1 RETURN JUMPDEST CALLVALUE DUP1 ISZERO PUSH2 0x3A4 JUMPI PUSH0 DUP1 REVERT JUMPDEST POP PUSH2 0x3AD PUSH2 0xD35 JUMP JUMPDEST PUSH1 0x40 MLOAD PUSH2 0x3BA SWAP2 SWAP1 PUSH2 0x1012 JUMP JUMPDEST PUSH1 0x40 MLOAD DUP1 SWAP2 SUB SWAP1 RETURN JUMPDEST CALLVALUE DUP1 ISZERO PUSH2 0x3CE JUMPI PUSH0 DUP1 REVERT JUMPDEST POP PUSH2 0x3E9 PUSH1 0x4 DUP1 CALLDATASIZE SUB DUP2 ADD SWAP1 PUSH2 0x3E4 SWAP2 SWAP1 PUSH2 0xF5E JUMP JUMPDEST PUSH2 0xD3B JUMP JUMPDEST PUSH1 0x40 MLOAD PUSH2 0x3F6 SWAP2 SWAP1 PUSH2 0xEA9 JUMP JUMPDEST PUSH1 0x40 MLOAD DUP1 SWAP2 SUB SWAP1 RETURN JUMPDEST PUSH1 0x3 PUSH0 SWAP1 SLOAD SWAP1 PUSH2 0x100 EXP SWAP1 DIV PUSH20 0xFFFFFFFFFFFFFFFFFFFFFFFFFFFFFFFFFFFFFFFF AND DUP2 JUMP JUMPDEST PUSH1 0x4 DUP1 SLOAD PUSH2 0x431 SWAP1 PUSH2 0x1058 JUMP JUMPDEST DUP1 PUSH1 0x1F ADD PUSH1 0x20 DUP1 SWAP2 DIV MUL PUSH1 0x20 ADD PUSH1 0x40 MLOAD SWAP1 DUP2 ADD PUSH1 0x40 MSTORE DUP1 SWAP3 SWAP2 SWAP1 DUP2 DUP2 MSTORE PUSH1 0x20 ADD DUP3 DUP1 SLOAD PUSH2 0x45D SWAP1 PUSH2 0x1058 JUMP JUMPDEST DUP1 ISZERO PUSH2 0x4A8 JUMPI DUP1 PUSH1 0x1F LT PUSH2 0x47F JUMPI PUSH2 0x100 DUP1 DUP4 SLOAD DIV MUL DUP4 MSTORE SWAP2 PUSH1 0x20 ADD SWAP2 PUSH2 0x4A8 JUMP JUMPDEST DUP3 ADD SWAP2 SWAP1 PUSH0 MSTORE PUSH1 0x20 PUSH0 KECCAK256 SWAP1 JUMPDEST DUP2 SLOAD DUP2 MSTORE SWAP1 PUSH1 0x1 ADD SWAP1 PUSH1 0x20 ADD DUP1 DUP4 GT PUSH2 0x48B JUMPI DUP3 SWAP1 SUB PUSH1 0x1F AND DUP3 ADD SWAP2 JUMPDEST POP POP POP POP POP DUP2 JUMP JUMPDEST DUP1 PUSH1 0x8 PUSH0 CALLER PUSH20 0xFFFFFFFFFFFFFFFFFFFFFFFFFFFFFFFFFFFFFFFF AND PUSH20 0xFFFFFFFFFFFFFFFFFFFFFFFFFFFFFFFFFFFFFFFF AND DUP2 MSTORE PUSH1 0x20 ADD SWAP1 DUP2 MSTORE PUSH1 0x20 ADD PUSH0 KECCAK256 SLOAD LT ISZERO PUSH2 0x530 JUMPI PUSH1 0x40 MLOAD PUSH32 0x8C379A000000000000000000000000000000000000000000000000000000000 DUP2 MSTORE PUSH1 0x4 ADD PUSH2 0x527 SWAP1 PUSH2 0x10D2 JUMP JUMPDEST PUSH1 0x40 MLOAD DUP1 SWAP2 SUB SWAP1 REVERT JUMPDEST PUSH0 DUP2 PUSH1 0xA SLOAD PUSH2 0x53F SWAP2 SWAP1 PUSH2 0x111D JUMP JUMPDEST SWAP1 POP CALLER PUSH20 0xFFFFFFFFFFFFFFFFFFFFFFFFFFFFFFFFFFFFFFFF AND PUSH2 0x8FC DUP3 SWAP1 DUP2 ISZERO MUL SWAP1 PUSH1 0x40 MLOAD PUSH0 PUSH1 0x40 MLOAD DUP1 DUP4 SUB DUP2 DUP6 DUP9 DUP9 CALL SWAP4 POP POP POP POP ISZERO DUP1 ISZERO PUSH2 0x584 JUMPI RETURNDATASIZE PUSH0 DUP1 RETURNDATACOPY RETURNDATASIZE PUSH0 REVERT JUMPDEST POP DUP2 PUSH1 0x8 PUSH0 CALLER PUSH20 0xFFFFFFFFFFFFFFFFFFFFFFFFFFFFFFFFFFFFFFFF AND PUSH20 0xFFFFFFFFFFFFFFFFFFFFFFFFFFFFFFFFFFFFFFFF AND DUP2 MSTORE PUSH1 0x20 ADD SWAP1 DUP2 MSTORE PUSH1 0x20 ADD PUSH0 KECCAK256 PUSH0 DUP3 DUP3 SLOAD PUSH2 0x5D1 SWAP2 SWAP1 PUSH2 0x115E JUMP JUMPDEST SWAP3 POP POP DUP2 SWAP1 SSTORE POP DUP2 PUSH1 0x7 PUSH0 DUP3 DUP3 SLOAD PUSH2 0x5E9 SWAP2 SWAP1 PUSH2 0x115E JUMP JUMPDEST SWAP3 POP POP DUP2 SWAP1 SSTORE POP CALLER PUSH20 0xFFFFFFFFFFFFFFFFFFFFFFFFFFFFFFFFFFFFFFFF AND PUSH32 0x11228197CB47986D326F6C795B48B26C7BC662AB55F470BF5EE2AD68F4064594 DUP4 PUSH1 0x40 MLOAD PUSH2 0x636 SWAP2 SWAP1 PUSH2 0xEA9 JUMP JUMPDEST PUSH1 0x40 MLOAD DUP1 SWAP2 SUB SWAP1 LOG2 POP POP JUMP JUMPDEST PUSH1 0x7 SLOAD DUP2 JUMP JUMPDEST PUSH1 0x3 PUSH0 SWAP1 SLOAD SWAP1 PUSH2 0x100 EXP SWAP1 DIV PUSH20 0xFFFFFFFFFFFFFFFFFFFFFFFFFFFFFFFFFFFFFFFF AND PUSH20 0xFFFFFFFFFFFFFFFFFFFFFFFFFFFFFFFFFFFFFFFF AND CALLER PUSH20 0xFFFFFFFFFFFFFFFFFFFFFFFFFFFFFFFFFFFFFFFF AND EQ PUSH2 0x6D7 JUMPI PUSH1 0x40 MLOAD PUSH32 0x8C379A000000000000000000000000000000000000000000000000000000000 DUP2 MSTORE PUSH1 0x4 ADD PUSH2 0x6CE SWAP1 PUSH2 0x1201 JUMP JUMPDEST PUSH1 0x40 MLOAD DUP1 SWAP2 SUB SWAP1 REVERT JUMPDEST DUP1 PUSH1 0xA DUP2 SWAP1 SSTORE POP POP JUMP JUMPDEST PUSH1 0x6 PUSH0 SWAP1 SLOAD SWAP1 PUSH2 0x100 EXP SWAP1 DIV PUSH1 0xFF AND DUP2 JUMP JUMPDEST PUSH1 0x3 PUSH0 SWAP1 SLOAD SWAP1 PUSH2 0x100 EXP SWAP1 DIV PUSH20 0xFFFFFFFFFFFFFFFFFFFFFFFFFFFFFFFFFFFFFFFF AND PUSH20 0xFFFFFFFFFFFFFFFFFFFFFFFFFFFFFFFFFFFFFFFF AND CALLER PUSH20 0xFFFFFFFFFFFFFFFFFFFFFFFFFFFFFFFFFFFFFFFF AND EQ PUSH2 0x782 JUMPI PUSH1 0x40 MLOAD PUSH32 0x8C379A000000000000000000000000000000000000000000000000000000000 DUP2 MSTORE PUSH1 0x4 ADD PUSH2 0x779 SWAP1 PUSH2 0x1201 JUMP JUMPDEST PUSH1 0x40 MLOAD DUP1 SWAP2 SUB SWAP1 REVERT JUMPDEST PUSH0 PUSH20 0xFFFFFFFFFFFFFFFFFFFFFFFFFFFFFFFFFFFFFFFF AND DUP3 PUSH20 0xFFFFFFFFFFFFFFFFFFFFFFFFFFFFFFFFFFFFFFFF AND SUB PUSH2 0x7F0 JUMPI PUSH1 0x40 MLOAD PUSH32 0x8C379A000000000000000000000000000000000000000000000000000000000 DUP2 MSTORE PUSH1 0x4 ADD PUSH2 0x7E7 SWAP1 PUSH2 0x1269 JUMP JUMPDEST PUSH1 0x40 MLOAD DUP1 SWAP2 SUB SWAP1 REVERT JUMPDEST DUP1 PUSH1 0x7 PUSH0 DUP3 DUP3 SLOAD PUSH2 0x801 SWAP2 SWAP1 PUSH2 0x1287 JUMP JUMPDEST SWAP3 POP POP DUP2 SWAP1 SSTORE POP DUP1 PUSH1 0x8 PUSH0 DUP5 PUSH20 0xFFFFFFFFFFFFFFFFFFFFFFFFFFFFFFFFFFFFFFFF AND PUSH20 0xFFFFFFFFFFFFFFFFFFFFFFFFFFFFFFFFFFFFFFFF AND DUP2 MSTORE PUSH1 0x20 ADD SWAP1 DUP2 MSTORE PUSH1 0x20 ADD PUSH0 KECCAK256 PUSH0 DUP3 DUP3 SLOAD PUSH2 0x854 SWAP2 SWAP1 PUSH2 0x1287 JUMP JUMPDEST SWAP3 POP POP DUP2 SWAP1 SSTORE POP DUP2 PUSH20 0xFFFFFFFFFFFFFFFFFFFFFFFFFFFFFFFFFFFFFFFF AND PUSH0 PUSH20 0xFFFFFFFFFFFFFFFFFFFFFFFFFFFFFFFFFFFFFFFF AND PUSH32 0xDDF252AD1BE2C89B69C2B068FC378DAA952BA7F163C4A11628F55A4DF523B3EF DUP4 PUSH1 0x40 MLOAD PUSH2 0x8B8 SWAP2 SWAP1 PUSH2 0xEA9 JUMP JUMPDEST PUSH1 0x40 MLOAD DUP1 SWAP2 SUB SWAP1 LOG3 POP POP JUMP JUMPDEST PUSH1 0x8 PUSH1 0x20 MSTORE DUP1 PUSH0 MSTORE PUSH1 0x40 PUSH0 KECCAK256 PUSH0 SWAP2 POP SWAP1 POP SLOAD DUP2 JUMP JUMPDEST PUSH1 0x5 DUP1 SLOAD PUSH2 0x8E6 SWAP1 PUSH2 0x1058 JUMP JUMPDEST DUP1 PUSH1 0x1F ADD PUSH1 0x20 DUP1 SWAP2 DIV MUL PUSH1 0x20 ADD PUSH1 0x40 MLOAD SWAP1 DUP2 ADD PUSH1 0x40 MSTORE DUP1 SWAP3 SWAP2 SWAP1 DUP2 DUP2 MSTORE PUSH1 0x20 ADD DUP3 DUP1 SLOAD PUSH2 0x912 SWAP1 PUSH2 0x1058 JUMP JUMPDEST DUP1 ISZERO PUSH2 0x95D JUMPI DUP1 PUSH1 0x1F LT PUSH2 0x934 JUMPI PUSH2 0x100 DUP1 DUP4 SLOAD DIV MUL DUP4 MSTORE SWAP2 PUSH1 0x20 ADD SWAP2 PUSH2 0x95D JUMP JUMPDEST DUP3 ADD SWAP2 SWAP1 PUSH0 MSTORE PUSH1 0x20 PUSH0 KECCAK256 SWAP1 JUMPDEST DUP2 SLOAD DUP2 MSTORE SWAP1 PUSH1 0x1 ADD SWAP1 PUSH1 0x20 ADD DUP1 DUP4 GT PUSH2 0x940 JUMPI DUP3 SWAP1 SUB PUSH1 0x1F AND DUP3 ADD SWAP2 JUMPDEST POP POP POP POP POP DUP2 JUMP JUMPDEST DUP1 PUSH1 0xA SLOAD PUSH2 0x973 SWAP2 SWAP1 PUSH2 0x111D JUMP JUMPDEST CALLVALUE EQ PUSH2 0x9B4 JUMPI PUSH1 0x40 MLOAD PUSH32 0x8C379A000000000000000000000000000000000000000000000000000000000 DUP2 MSTORE PUSH1 0x4 ADD PUSH2 0x9AB SWAP1 PUSH2 0x1304 JUMP JUMPDEST PUSH1 0x40 MLOAD DUP1 SWAP2 SUB SWAP1 REVERT JUMPDEST PUSH2 0x9BE CALLER DUP3 PUSH2 0x6F3 JUMP JUMPDEST DUP1 PUSH1 0xB PUSH0 CALLER PUSH20 0xFFFFFFFFFFFFFFFFFFFFFFFFFFFFFFFFFFFFFFFF AND PUSH20 0xFFFFFFFFFFFFFFFFFFFFFFFFFFFFFFFFFFFFFFFF AND DUP2 MSTORE PUSH1 0x20 ADD SWAP1 DUP2 MSTORE PUSH1 0x20 ADD PUSH0 KECCAK256 PUSH0 DUP3 DUP3 SLOAD PUSH2 0xA0A SWAP2 SWAP1 PUSH2 0x1287 JUMP JUMPDEST SWAP3 POP POP DUP2 SWAP1 SSTORE POP CALLER PUSH20 0xFFFFFFFFFFFFFFFFFFFFFFFFFFFFFFFFFFFFFFFF AND PUSH32 0x42269B09224B40F0B303D85790B3F28F1F7EACBB8B6143BFF10A541A559E499B DUP3 PUSH1 0x40 MLOAD PUSH2 0xA57 SWAP2 SWAP1 PUSH2 0xEA9 JUMP JUMPDEST PUSH1 0x40 MLOAD DUP1 SWAP2 SUB SWAP1 LOG2 POP JUMP JUMPDEST PUSH0 DUP2 PUSH1 0x8 PUSH0 CALLER PUSH20 0xFFFFFFFFFFFFFFFFFFFFFFFFFFFFFFFFFFFFFFFF AND PUSH20 0xFFFFFFFFFFFFFFFFFFFFFFFFFFFFFFFFFFFFFFFF AND DUP2 MSTORE PUSH1 0x20 ADD SWAP1 DUP2 MSTORE PUSH1 0x20 ADD PUSH0 KECCAK256 SLOAD LT ISZERO PUSH2 0xAE3 JUMPI PUSH1 0x40 MLOAD PUSH32 0x8C379A000000000000000000000000000000000000000000000000000000000 DUP2 MSTORE PUSH1 0x4 ADD PUSH2 0xADA SWAP1 PUSH2 0x136C JUMP JUMPDEST PUSH1 0x40 MLOAD DUP1 SWAP2 SUB SWAP1 REVERT JUMPDEST DUP2 PUSH1 0x8 PUSH0 CALLER PUSH20 0xFFFFFFFFFFFFFFFFFFFFFFFFFFFFFFFFFFFFFFFF AND PUSH20 0xFFFFFFFFFFFFFFFFFFFFFFFFFFFFFFFFFFFFFFFF AND DUP2 MSTORE PUSH1 0x20 ADD SWAP1 DUP2 MSTORE PUSH1 0x20 ADD PUSH0 KECCAK256 PUSH0 DUP3 DUP3 SLOAD PUSH2 0xB2F SWAP2 SWAP1 PUSH2 0x115E JUMP JUMPDEST SWAP3 POP POP DUP2 SWAP1 SSTORE POP DUP2 PUSH1 0x8 PUSH0 DUP6 PUSH20 0xFFFFFFFFFFFFFFFFFFFFFFFFFFFFFFFFFFFFFFFF AND PUSH20 0xFFFFFFFFFFFFFFFFFFFFFFFFFFFFFFFFFFFFFFFF AND DUP2 MSTORE PUSH1 0x20 ADD SWAP1 DUP2 MSTORE PUSH1 0x20 ADD PUSH0 KECCAK256 PUSH0 DUP3 DUP3 SLOAD PUSH2 0xB82 SWAP2 SWAP1 PUSH2 0x1287 JUMP JUMPDEST SWAP3 POP POP DUP2 SWAP1 SSTORE POP DUP3 PUSH20 0xFFFFFFFFFFFFFFFFFFFFFFFFFFFFFFFFFFFFFFFF AND CALLER PUSH20 0xFFFFFFFFFFFFFFFFFFFFFFFFFFFFFFFFFFFFFFFF AND PUSH32 0xDDF252AD1BE2C89B69C2B068FC378DAA952BA7F163C4A11628F55A4DF523B3EF DUP5 PUSH1 0x40 MLOAD PUSH2 0xBE6 SWAP2 SWAP1 PUSH2 0xEA9 JUMP JUMPDEST PUSH1 0x40 MLOAD DUP1 SWAP2 SUB SWAP1 LOG3 PUSH1 0x1 SWAP1 POP SWAP3 SWAP2 POP POP JUMP JUMPDEST PUSH0 DUP1 SLOAD PUSH2 0xC04 SWAP1 PUSH2 0x1058 JUMP JUMPDEST DUP1 PUSH1 0x1F ADD PUSH1 0x20 DUP1 SWAP2 DIV MUL PUSH1 0x20 ADD PUSH1 0x40 MLOAD SWAP1 DUP2 ADD PUSH1 0x40 MSTORE DUP1 SWAP3 SWAP2 SWAP1 DUP2 DUP2 MSTORE PUSH1 0x20 ADD DUP3 DUP1 SLOAD PUSH2 0xC30 SWAP1 PUSH2 0x1058 JUMP JUMPDEST DUP1 ISZERO PUSH2 0xC7B JUMPI DUP1 PUSH1 0x1F LT PUSH2 0xC52 JUMPI PUSH2 0x100 DUP1 DUP4 SLOAD DIV MUL DUP4 MSTORE SWAP2 PUSH1 0x20 ADD SWAP2 PUSH2 0xC7B JUMP JUMPDEST DUP3 ADD SWAP2 SWAP1 PUSH0 MSTORE PUSH1 0x20 PUSH0 KECCAK256 SWAP1 JUMPDEST DUP2 SLOAD DUP2 MSTORE SWAP1 PUSH1 0x1 ADD SWAP1 PUSH1 0x20 ADD DUP1 DUP4 GT PUSH2 0xC5E JUMPI DUP3 SWAP1 SUB PUSH1 0x1F AND DUP3 ADD SWAP2 JUMPDEST POP POP POP POP POP DUP2 JUMP JUMPDEST PUSH1 0x2 DUP1 SLOAD PUSH2 0xC90 SWAP1 PUSH2 0x1058 JUMP JUMPDEST DUP1 PUSH1 0x1F ADD PUSH1 0x20 DUP1 SWAP2 DIV MUL PUSH1 0x20 ADD PUSH1 0x40 MLOAD SWAP1 DUP2 ADD PUSH1 0x40 MSTORE DUP1 SWAP3 SWAP2 SWAP1 DUP2 DUP2 MSTORE PUSH1 0x20 ADD DUP3 DUP1 SLOAD PUSH2 0xCBC SWAP1 PUSH2 0x1058 JUMP JUMPDEST DUP1 ISZERO PUSH2 0xD07 JUMPI DUP1 PUSH1 0x1F LT PUSH2 0xCDE JUMPI PUSH2 0x100 DUP1 DUP4 SLOAD DIV MUL DUP4 MSTORE SWAP2 PUSH1 0x20 ADD SWAP2 PUSH2 0xD07 JUMP JUMPDEST DUP3 ADD SWAP2 SWAP1 PUSH0 MSTORE PUSH1 0x20 PUSH0 KECCAK256 SWAP1 JUMPDEST DUP2 SLOAD DUP2 MSTORE SWAP1 PUSH1 0x1 ADD SWAP1 PUSH1 0x20 ADD DUP1 DUP4 GT PUSH2 0xCEA JUMPI DUP3 SWAP1 SUB PUSH1 0x1F AND DUP3 ADD SWAP2 JUMPDEST POP POP POP POP POP DUP2 JUMP JUMPDEST PUSH1 0xA SLOAD DUP2 JUMP JUMPDEST PUSH1 0x9 PUSH1 0x20 MSTORE DUP2 PUSH0 MSTORE PUSH1 0x40 PUSH0 KECCAK256 PUSH1 0x20 MSTORE DUP1 PUSH0 MSTORE PUSH1 0x40 PUSH0 KECCAK256 PUSH0 SWAP2 POP SWAP2 POP POP SLOAD DUP2 JUMP JUMPDEST PUSH1 0x1 SLOAD DUP2 JUMP JUMPDEST PUSH1 0xB PUSH1 0x20 MSTORE DUP1 PUSH0 MSTORE PUSH1 0x40 PUSH0 KECCAK256 PUSH0 SWAP2 POP SWAP1 POP SLOAD DUP2 JUMP JUMPDEST PUSH0 PUSH20 0xFFFFFFFFFFFFFFFFFFFFFFFFFFFFFFFFFFFFFFFF DUP3 AND SWAP1 POP SWAP2 SWAP1 POP JUMP JUMPDEST PUSH0 PUSH2 0xD79 DUP3 PUSH2 0xD50 JUMP JUMPDEST SWAP1 POP SWAP2 SWAP1 POP JUMP JUMPDEST PUSH2 0xD89 DUP2 PUSH2 0xD6F JUMP JUMPDEST DUP3 MSTORE POP POP JUMP JUMPDEST PUSH0 PUSH1 0x20 DUP3 ADD SWAP1 POP PUSH2 0xDA2 PUSH0 DUP4 ADD DUP5 PUSH2 0xD80 JUMP JUMPDEST SWAP3 SWAP2 POP POP JUMP JUMPDEST PUSH0 DUP2 MLOAD SWAP1 POP SWAP2 SWAP1 POP JUMP JUMPDEST PUSH0 DUP3 DUP3 MSTORE PUSH1 0x20 DUP3 ADD SWAP1 POP SWAP3 SWAP2 POP POP JUMP JUMPDEST DUP3 DUP2 DUP4 MCOPY PUSH0 DUP4 DUP4 ADD MSTORE POP POP POP JUMP JUMPDEST PUSH0 PUSH1 0x1F NOT PUSH1 0x1F DUP4 ADD AND SWAP1 POP SWAP2 SWAP1 POP JUMP JUMPDEST PUSH0 PUSH2 0xDEA DUP3 PUSH2 0xDA8 JUMP JUMPDEST PUSH2 0xDF4 DUP2 DUP6 PUSH2 0xDB2 JUMP JUMPDEST SWAP4 POP PUSH2 0xE04 DUP2 DUP6 PUSH1 0x20 DUP7 ADD PUSH2 0xDC2 JUMP JUMPDEST PUSH2 0xE0D DUP2 PUSH2 0xDD0 JUMP JUMPDEST DUP5 ADD SWAP2 POP POP SWAP3 SWAP2 POP POP JUMP JUMPDEST PUSH0 PUSH1 0x20 DUP3 ADD SWAP1 POP DUP2 DUP2 SUB PUSH0 DUP4 ADD MSTORE PUSH2 0xE30 DUP2 DUP5 PUSH2 0xDE0 JUMP JUMPDEST SWAP1 POP SWAP3 SWAP2 POP POP JUMP JUMPDEST PUSH0 DUP1 REVERT JUMPDEST PUSH0 DUP2 SWAP1 POP SWAP2 SWAP1 POP JUMP JUMPDEST PUSH2 0xE4E DUP2 PUSH2 0xE3C JUMP JUMPDEST DUP2 EQ PUSH2 0xE58 JUMPI PUSH0 DUP1 REVERT JUMPDEST POP JUMP JUMPDEST PUSH0 DUP2 CALLDATALOAD SWAP1 POP PUSH2 0xE69 DUP2 PUSH2 0xE45 JUMP JUMPDEST SWAP3 SWAP2 POP POP JUMP JUMPDEST PUSH0 PUSH1 0x20 DUP3 DUP5 SUB SLT ISZERO PUSH2 0xE84 JUMPI PUSH2 0xE83 PUSH2 0xE38 JUMP JUMPDEST JUMPDEST PUSH0 PUSH2 0xE91 DUP5 DUP3 DUP6 ADD PUSH2 0xE5B JUMP JUMPDEST SWAP2 POP POP SWAP3 SWAP2 POP POP JUMP JUMPDEST PUSH2 0xEA3 DUP2 PUSH2 0xE3C JUMP JUMPDEST DUP3 MSTORE POP POP JUMP JUMPDEST PUSH0 PUSH1 0x20 DUP3 ADD SWAP1 POP PUSH2 0xEBC PUSH0 DUP4 ADD DUP5 PUSH2 0xE9A JUMP JUMPDEST SWAP3 SWAP2 POP POP JUMP JUMPDEST PUSH0 PUSH1 0xFF DUP3 AND SWAP1 POP SWAP2 SWAP1 POP JUMP JUMPDEST PUSH2 0xED7 DUP2 PUSH2 0xEC2 JUMP JUMPDEST DUP3 MSTORE POP POP JUMP JUMPDEST PUSH0 PUSH1 0x20 DUP3 ADD SWAP1 POP PUSH2 0xEF0 PUSH0 DUP4 ADD DUP5 PUSH2 0xECE JUMP JUMPDEST SWAP3 SWAP2 POP POP JUMP JUMPDEST PUSH2 0xEFF DUP2 PUSH2 0xD6F JUMP JUMPDEST DUP2 EQ PUSH2 0xF09 JUMPI PUSH0 DUP1 REVERT JUMPDEST POP JUMP JUMPDEST PUSH0 DUP2 CALLDATALOAD SWAP1 POP PUSH2 0xF1A DUP2 PUSH2 0xEF6 JUMP JUMPDEST SWAP3 SWAP2 POP POP JUMP JUMPDEST PUSH0 DUP1 PUSH1 0x40 DUP4 DUP6 SUB SLT ISZERO PUSH2 0xF36 JUMPI PUSH2 0xF35 PUSH2 0xE38 JUMP JUMPDEST JUMPDEST PUSH0 PUSH2 0xF43 DUP6 DUP3 DUP7 ADD PUSH2 0xF0C JUMP JUMPDEST SWAP3 POP POP PUSH1 0x20 PUSH2 0xF54 DUP6 DUP3 DUP7 ADD PUSH2 0xE5B JUMP JUMPDEST SWAP2 POP POP SWAP3 POP SWAP3 SWAP1 POP JUMP JUMPDEST PUSH0 PUSH1 0x20 DUP3 DUP5 SUB SLT ISZERO PUSH2 0xF73 JUMPI PUSH2 0xF72 PUSH2 0xE38 JUMP JUMPDEST JUMPDEST PUSH0 PUSH2 0xF80 DUP5 DUP3 DUP6 ADD PUSH2 0xF0C JUMP JUMPDEST SWAP2 POP POP SWAP3 SWAP2 POP POP JUMP JUMPDEST PUSH0 DUP2 ISZERO ISZERO SWAP1 POP SWAP2 SWAP1 POP JUMP JUMPDEST PUSH2 0xF9D DUP2 PUSH2 0xF89 JUMP JUMPDEST DUP3 MSTORE POP POP JUMP JUMPDEST PUSH0 PUSH1 0x20 DUP3 ADD SWAP1 POP PUSH2 0xFB6 PUSH0 DUP4 ADD DUP5 PUSH2 0xF94 JUMP JUMPDEST SWAP3 SWAP2 POP POP JUMP JUMPDEST PUSH0 DUP1 PUSH1 0x40 DUP4 DUP6 SUB SLT ISZERO PUSH2 0xFD2 JUMPI PUSH2 0xFD1 PUSH2 0xE38 JUMP JUMPDEST JUMPDEST PUSH0 PUSH2 0xFDF DUP6 DUP3 DUP7 ADD PUSH2 0xF0C JUMP JUMPDEST SWAP3 POP POP PUSH1 0x20 PUSH2 0xFF0 DUP6 DUP3 DUP7 ADD PUSH2 0xF0C JUMP JUMPDEST SWAP2 POP POP SWAP3 POP SWAP3 SWAP1 POP JUMP JUMPDEST PUSH0 DUP2 SWAP1 POP SWAP2 SWAP1 POP JUMP JUMPDEST PUSH2 0x100C DUP2 PUSH2 0xFFA JUMP JUMPDEST DUP3 MSTORE POP POP JUMP JUMPDEST PUSH0 PUSH1 0x20 DUP3 ADD SWAP1 POP PUSH2 0x1025 PUSH0 DUP4 ADD DUP5 PUSH2 0x1003 JUMP JUMPDEST SWAP3 SWAP2 POP POP JUMP JUMPDEST PUSH32 0x4E487B7100000000000000000000000000000000000000000000000000000000 PUSH0 MSTORE PUSH1 0x22 PUSH1 0x4 MSTORE PUSH1 0x24 PUSH0 REVERT JUMPDEST PUSH0 PUSH1 0x2 DUP3 DIV SWAP1 POP PUSH1 0x1 DUP3 AND DUP1 PUSH2 0x106F JUMPI PUSH1 0x7F DUP3 AND SWAP2 POP JUMPDEST PUSH1 0x20 DUP3 LT DUP2 SUB PUSH2 0x1082 JUMPI PUSH2 0x1081 PUSH2 0x102B JUMP JUMPDEST JUMPDEST POP SWAP2 SWAP1 POP JUMP JUMPDEST PUSH32 0x496E73756666696369656E742062616C616E636520746F2073656C6C00000000 PUSH0 DUP3 ADD MSTORE POP JUMP JUMPDEST PUSH0 PUSH2 0x10BC PUSH1 0x1C DUP4 PUSH2 0xDB2 JUMP JUMPDEST SWAP2 POP PUSH2 0x10C7 DUP3 PUSH2 0x1088 JUMP JUMPDEST PUSH1 0x20 DUP3 ADD SWAP1 POP SWAP2 SWAP1 POP JUMP JUMPDEST PUSH0 PUSH1 0x20 DUP3 ADD SWAP1 POP DUP2 DUP2 SUB PUSH0 DUP4 ADD MSTORE PUSH2 0x10E9 DUP2 PUSH2 0x10B0 JUMP JUMPDEST SWAP1 POP SWAP2 SWAP1 POP JUMP JUMPDEST PUSH32 0x4E487B7100000000000000000000000000000000000000000000000000000000 PUSH0 MSTORE PUSH1 0x11 PUSH1 0x4 MSTORE PUSH1 0x24 PUSH0 REVERT JUMPDEST PUSH0 PUSH2 0x1127 DUP3 PUSH2 0xE3C JUMP JUMPDEST SWAP2 POP PUSH2 0x1132 DUP4 PUSH2 0xE3C JUMP JUMPDEST SWAP3 POP DUP3 DUP3 MUL PUSH2 0x1140 DUP2 PUSH2 0xE3C JUMP JUMPDEST SWAP2 POP DUP3 DUP3 DIV DUP5 EQ DUP4 ISZERO OR PUSH2 0x1157 JUMPI PUSH2 0x1156 PUSH2 0x10F0 JUMP JUMPDEST JUMPDEST POP SWAP3 SWAP2 POP POP JUMP JUMPDEST PUSH0 PUSH2 0x1168 DUP3 PUSH2 0xE3C JUMP JUMPDEST SWAP2 POP PUSH2 0x1173 DUP4 PUSH2 0xE3C JUMP JUMPDEST SWAP3 POP DUP3 DUP3 SUB SWAP1 POP DUP2 DUP2 GT ISZERO PUSH2 0x118B JUMPI PUSH2 0x118A PUSH2 0x10F0 JUMP JUMPDEST JUMPDEST SWAP3 SWAP2 POP POP JUMP JUMPDEST PUSH32 0x4F6E6C79207468652063726561746F722063616E20706572666F726D20746869 PUSH0 DUP3 ADD MSTORE PUSH32 0x7320616374696F6E000000000000000000000000000000000000000000000000 PUSH1 0x20 DUP3 ADD MSTORE POP JUMP JUMPDEST PUSH0 PUSH2 0x11EB PUSH1 0x28 DUP4 PUSH2 0xDB2 JUMP JUMPDEST SWAP2 POP PUSH2 0x11F6 DUP3 PUSH2 0x1191 JUMP JUMPDEST PUSH1 0x40 DUP3 ADD SWAP1 POP SWAP2 SWAP1 POP JUMP JUMPDEST PUSH0 PUSH1 0x20 DUP3 ADD SWAP1 POP DUP2 DUP2 SUB PUSH0 DUP4 ADD MSTORE PUSH2 0x1218 DUP2 PUSH2 0x11DF JUMP JUMPDEST SWAP1 POP SWAP2 SWAP1 POP JUMP JUMPDEST PUSH32 0x43616E6E6F74206D696E7420746F20746865207A65726F206164647265737300 PUSH0 DUP3 ADD MSTORE POP JUMP JUMPDEST PUSH0 PUSH2 0x1253 PUSH1 0x1F DUP4 PUSH2 0xDB2 JUMP JUMPDEST SWAP2 POP PUSH2 0x125E DUP3 PUSH2 0x121F JUMP JUMPDEST PUSH1 0x20 DUP3 ADD SWAP1 POP SWAP2 SWAP1 POP JUMP JUMPDEST PUSH0 PUSH1 0x20 DUP3 ADD SWAP1 POP DUP2 DUP2 SUB PUSH0 DUP4 ADD MSTORE PUSH2 0x1280 DUP2 PUSH2 0x1247 JUMP JUMPDEST SWAP1 POP SWAP2 SWAP1 POP JUMP JUMPDEST PUSH0 PUSH2 0x1291 DUP3 PUSH2 0xE3C JUMP JUMPDEST SWAP2 POP PUSH2 0x129C DUP4 PUSH2 0xE3C JUMP JUMPDEST SWAP3 POP DUP3 DUP3 ADD SWAP1 POP DUP1 DUP3 GT ISZERO PUSH2 0x12B4 JUMPI PUSH2 0x12B3 PUSH2 0x10F0 JUMP JUMPDEST JUMPDEST SWAP3 SWAP2 POP POP JUMP JUMPDEST PUSH32 0x496E636F7272656374204554482073656E740000000000000000000000000000 PUSH0 DUP3 ADD MSTORE POP JUMP JUMPDEST PUSH0 PUSH2 0x12EE PUSH1 0x12 DUP4 PUSH2 0xDB2 JUMP JUMPDEST SWAP2 POP PUSH2 0x12F9 DUP3 PUSH2 0x12BA JUMP JUMPDEST PUSH1 0x20 DUP3 ADD SWAP1 POP SWAP2 SWAP1 POP JUMP JUMPDEST PUSH0 PUSH1 0x20 DUP3 ADD SWAP1 POP DUP2 DUP2 SUB PUSH0 DUP4 ADD MSTORE PUSH2 0x131B DUP2 PUSH2 0x12E2 JUMP JUMPDEST SWAP1 POP SWAP2 SWAP1 POP JUMP JUMPDEST PUSH32 0x496E73756666696369656E742062616C616E6365000000000000000000000000 PUSH0 DUP3 ADD MSTORE POP JUMP JUMPDEST PUSH0 PUSH2 0x1356 PUSH1 0x14 DUP4 PUSH2 0xDB2 JUMP JUMPDEST SWAP2 POP PUSH2 0x1361 DUP3 PUSH2 0x1322 JUMP JUMPDEST PUSH1 0x20 DUP3 ADD SWAP1 POP SWAP2 SWAP1 POP JUMP JUMPDEST PUSH0 PUSH1 0x20 DUP3 ADD SWAP1 POP DUP2 DUP2 SUB PUSH0 DUP4 ADD MSTORE PUSH2 0x1383 DUP2 PUSH2 0x134A JUMP JUMPDEST SWAP1 POP SWAP2 SWAP1 POP JUMP INVALID LOG2 PUSH5 0x6970667358 0x22 SLT KECCAK256 0xC6 XOR 0x25 0xBC BLOBHASH PUSH5 0x1DBD31B741 PUSH24 0x74B629152862F12C091F3B822C036FE23E11EAA464736F6C PUSH4 0x4300081A STOP CALLER "
				},
				"gasEstimates": {
					"creation": {
						"codeDepositCost": "1011200",
						"executionCost": "infinite",
						"totalCost": "infinite"
					},
					"external": {
						"allowance(address,address)": "infinite",
						"assetPrice()": "2469",
						"balanceOf(address)": "2891",
						"creator()": "2532",
						"decimals()": "2511",
						"gameReleaseYear()": "2513",
						"gameSystem()": "infinite",
						"gameTitle()": "infinite",
						"mint(address,uint256)": "infinite",
						"name()": "infinite",
						"purchaseAsset(uint256)": "infinite",
						"purchaseHistory(address)": "2912",
						"sellAsset(uint256)": "infinite",
						"setAssetPrice(uint256)": "24707",
						"symbol()": "infinite",
						"totalSupply()": "2515",
						"transfer(address,uint256)": "infinite"
					}
				},
				"methodIdentifiers": {
					"allowance(address,address)": "dd62ed3e",
					"assetPrice()": "d24378eb",
					"balanceOf(address)": "70a08231",
					"creator()": "02d05d3f",
					"decimals()": "313ce567",
					"gameReleaseYear()": "de8f4642",
					"gameSystem()": "cc00dd19",
					"gameTitle()": "b2033ce7",
					"mint(address,uint256)": "40c10f19",
					"name()": "06fdde03",
					"purchaseAsset(uint256)": "a457e1c0",
					"purchaseHistory(address)": "e45f2b8a",
					"sellAsset(uint256)": "07480fd8",
					"setAssetPrice(uint256)": "2eed8b95",
					"symbol()": "95d89b41",
					"totalSupply()": "18160ddd",
					"transfer(address,uint256)": "a9059cbb"
				}
			},
			"storageLayout": {
				"storage": [
					{
						"astId": 143,
						"contract": "AssetTransactions.sol:AssetTransactions",
						"label": "gameTitle",
						"offset": 0,
						"slot": "0",
						"type": "t_string_storage"
					},
					{
						"astId": 145,
						"contract": "AssetTransactions.sol:AssetTransactions",
						"label": "gameReleaseYear",
						"offset": 0,
						"slot": "1",
						"type": "t_int256"
					},
					{
						"astId": 147,
						"contract": "AssetTransactions.sol:AssetTransactions",
						"label": "gameSystem",
						"offset": 0,
						"slot": "2",
						"type": "t_string_storage"
					},
					{
						"astId": 149,
						"contract": "AssetTransactions.sol:AssetTransactions",
						"label": "creator",
						"offset": 0,
						"slot": "3",
						"type": "t_address"
					},
					{
						"astId": 215,
						"contract": "AssetTransactions.sol:AssetTransactions",
						"label": "name",
						"offset": 0,
						"slot": "4",
						"type": "t_string_storage"
					},
					{
						"astId": 218,
						"contract": "AssetTransactions.sol:AssetTransactions",
						"label": "symbol",
						"offset": 0,
						"slot": "5",
						"type": "t_string_storage"
					},
					{
						"astId": 221,
						"contract": "AssetTransactions.sol:AssetTransactions",
						"label": "decimals",
						"offset": 0,
						"slot": "6",
						"type": "t_uint8"
					},
					{
						"astId": 223,
						"contract": "AssetTransactions.sol:AssetTransactions",
						"label": "totalSupply",
						"offset": 0,
						"slot": "7",
						"type": "t_uint256"
					},
					{
						"astId": 227,
						"contract": "AssetTransactions.sol:AssetTransactions",
						"label": "balanceOf",
						"offset": 0,
						"slot": "8",
						"type": "t_mapping(t_address,t_uint256)"
					},
					{
						"astId": 233,
						"contract": "AssetTransactions.sol:AssetTransactions",
						"label": "allowance",
						"offset": 0,
						"slot": "9",
						"type": "t_mapping(t_address,t_mapping(t_address,t_uint256))"
					},
					{
						"astId": 6,
						"contract": "AssetTransactions.sol:AssetTransactions",
						"label": "assetPrice",
						"offset": 0,
						"slot": "10",
						"type": "t_uint256"
					},
					{
						"astId": 10,
						"contract": "AssetTransactions.sol:AssetTransactions",
						"label": "purchaseHistory",
						"offset": 0,
						"slot": "11",
						"type": "t_mapping(t_address,t_uint256)"
					}
				],
				"types": {
					"t_address": {
						"encoding": "inplace",
						"label": "address",
						"numberOfBytes": "20"
					},
					"t_int256": {
						"encoding": "inplace",
						"label": "int256",
						"numberOfBytes": "32"
					},
					"t_mapping(t_address,t_mapping(t_address,t_uint256))": {
						"encoding": "mapping",
						"key": "t_address",
						"label": "mapping(address => mapping(address => uint256))",
						"numberOfBytes": "32",
						"value": "t_mapping(t_address,t_uint256)"
					},
					"t_mapping(t_address,t_uint256)": {
						"encoding": "mapping",
						"key": "t_address",
						"label": "mapping(address => uint256)",
						"numberOfBytes": "32",
						"value": "t_uint256"
					},
					"t_string_storage": {
						"encoding": "bytes",
						"label": "string",
						"numberOfBytes": "32"
					},
					"t_uint256": {
						"encoding": "inplace",
						"label": "uint256",
						"numberOfBytes": "32"
					},
					"t_uint8": {
						"encoding": "inplace",
						"label": "uint8",
						"numberOfBytes": "1"
					}
				}
			},
			"userdoc": {
				"kind": "user",
				"methods": {},
				"version": 1
			}
		}
	}
}